{
	"contracts/ProposalContractFourthHomework.sol": {
		"ProposalContract": {
			"abi": [
				{
					"inputs": [],
					"stateMutability": "nonpayable",
					"type": "constructor"
				},
				{
					"inputs": [
						{
							"internalType": "string",
							"name": "_title",
							"type": "string"
						},
						{
							"internalType": "string",
							"name": "_description",
							"type": "string"
						},
						{
							"internalType": "uint256",
							"name": "_total_vote_to_end",
							"type": "uint256"
						}
					],
					"name": "create",
					"outputs": [],
					"stateMutability": "nonpayable",
					"type": "function"
				},
				{
					"inputs": [
						{
							"internalType": "address",
							"name": "new_owner",
							"type": "address"
						}
					],
					"name": "setOwner",
					"outputs": [],
					"stateMutability": "nonpayable",
					"type": "function"
				},
				{
					"inputs": [
						{
							"internalType": "uint8",
							"name": "choice",
							"type": "uint8"
						}
					],
					"name": "vote",
					"outputs": [],
					"stateMutability": "nonpayable",
					"type": "function"
				}
			],
			"devdoc": {
				"kind": "dev",
				"methods": {},
				"version": 1
			},
			"evm": {
				"assembly": "    /* \"contracts/ProposalContractFourthHomework.sol\":61:4123  contract ProposalContract {... */\n  mstore(0x40, 0x80)\n    /* \"contracts/ProposalContractFourthHomework.sol\":961:1055  constructor() {... */\n  callvalue\n  dup1\n  iszero\n  tag_1\n  jumpi\n  0x00\n  dup1\n  revert\ntag_1:\n  pop\n    /* \"contracts/ProposalContractFourthHomework.sol\":994:1004  msg.sender */\n  caller\n    /* \"contracts/ProposalContractFourthHomework.sol\":986:991  owner */\n  0x00\n  dup1\n    /* \"contracts/ProposalContractFourthHomework.sol\":986:1004  owner = msg.sender */\n  0x0100\n  exp\n  dup2\n  sload\n  dup2\n  0xffffffffffffffffffffffffffffffffffffffff\n  mul\n  not\n  and\n  swap1\n  dup4\n  0xffffffffffffffffffffffffffffffffffffffff\n  and\n  mul\n  or\n  swap1\n  sstore\n  pop\n    /* \"contracts/ProposalContractFourthHomework.sol\":1015:1030  voted_addresses */\n  0x03\n    /* \"contracts/ProposalContractFourthHomework.sol\":1036:1046  msg.sender */\n  caller\n    /* \"contracts/ProposalContractFourthHomework.sol\":1015:1047  voted_addresses.push(msg.sender) */\n  swap1\n  dup1\n  0x01\n  dup2\n  sload\n  add\n  dup1\n  dup3\n  sstore\n  dup1\n  swap2\n  pop\n  pop\n  0x01\n  swap1\n  sub\n  swap1\n  0x00\n  mstore\n  keccak256(0x00, 0x20)\n  add\n  0x00\n  swap1\n  swap2\n  swap1\n  swap2\n  swap1\n  swap2\n  0x0100\n  exp\n  dup2\n  sload\n  dup2\n  0xffffffffffffffffffffffffffffffffffffffff\n  mul\n  not\n  and\n  swap1\n  dup4\n  0xffffffffffffffffffffffffffffffffffffffff\n  and\n  mul\n  or\n  swap1\n  sstore\n  pop\n    /* \"contracts/ProposalContractFourthHomework.sol\":61:4123  contract ProposalContract {... */\n  dataSize(sub_0)\n  dup1\n  dataOffset(sub_0)\n  0x00\n  codecopy\n  0x00\n  return\nstop\n\nsub_0: assembly {\n        /* \"contracts/ProposalContractFourthHomework.sol\":61:4123  contract ProposalContract {... */\n      mstore(0x40, 0x80)\n      callvalue\n      dup1\n      iszero\n      tag_1\n      jumpi\n      0x00\n      dup1\n      revert\n    tag_1:\n      pop\n      jumpi(tag_2, lt(calldatasize, 0x04))\n      shr(0xe0, calldataload(0x00))\n      dup1\n      0x13af4035\n      eq\n      tag_3\n      jumpi\n      dup1\n      0x3ca6d100\n      eq\n      tag_4\n      jumpi\n      dup1\n      0xb3f98adc\n      eq\n      tag_5\n      jumpi\n    tag_2:\n      0x00\n      dup1\n      revert\n        /* \"contracts/ProposalContractFourthHomework.sol\":1533:1625  function setOwner(address new_owner) external onlyOwner {... */\n    tag_3:\n      tag_6\n      0x04\n      dup1\n      calldatasize\n      sub\n      dup2\n      add\n      swap1\n      tag_7\n      swap2\n      swap1\n      tag_8\n      jump\t// in\n    tag_7:\n      tag_9\n      jump\t// in\n    tag_6:\n      stop\n        /* \"contracts/ProposalContractFourthHomework.sol\":1633:2097  function create(string calldata _title, string calldata _description, uint256 _total_vote_to_end) external onlyOwner {... */\n    tag_4:\n      tag_10\n      0x04\n      dup1\n      calldatasize\n      sub\n      dup2\n      add\n      swap1\n      tag_11\n      swap2\n      swap1\n      tag_12\n      jump\t// in\n    tag_11:\n      tag_13\n      jump\t// in\n    tag_10:\n      stop\n        /* \"contracts/ProposalContractFourthHomework.sol\":2109:2981  function vote(uint8 choice) external active newVoter(msg.sender) {... */\n    tag_5:\n      tag_14\n      0x04\n      dup1\n      calldatasize\n      sub\n      dup2\n      add\n      swap1\n      tag_15\n      swap2\n      swap1\n      tag_16\n      jump\t// in\n    tag_15:\n      tag_17\n      jump\t// in\n    tag_14:\n      stop\n        /* \"contracts/ProposalContractFourthHomework.sol\":1533:1625  function setOwner(address new_owner) external onlyOwner {... */\n    tag_9:\n        /* \"contracts/ProposalContractFourthHomework.sol\":1117:1122  owner */\n      0x00\n      dup1\n      sload\n      swap1\n      0x0100\n      exp\n      swap1\n      div\n      0xffffffffffffffffffffffffffffffffffffffff\n      and\n        /* \"contracts/ProposalContractFourthHomework.sol\":1103:1122  msg.sender == owner */\n      0xffffffffffffffffffffffffffffffffffffffff\n      and\n        /* \"contracts/ProposalContractFourthHomework.sol\":1103:1113  msg.sender */\n      caller\n        /* \"contracts/ProposalContractFourthHomework.sol\":1103:1122  msg.sender == owner */\n      0xffffffffffffffffffffffffffffffffffffffff\n      and\n      eq\n        /* \"contracts/ProposalContractFourthHomework.sol\":1095:1164  require(msg.sender == owner, \"Only the owner can call this function\") */\n      tag_19\n      jumpi\n      mload(0x40)\n      0x08c379a000000000000000000000000000000000000000000000000000000000\n      dup2\n      mstore\n      0x04\n      add\n      tag_20\n      swap1\n      tag_21\n      jump\t// in\n    tag_20:\n      mload(0x40)\n      dup1\n      swap2\n      sub\n      swap1\n      revert\n    tag_19:\n        /* \"contracts/ProposalContractFourthHomework.sol\":1608:1617  new_owner */\n      dup1\n        /* \"contracts/ProposalContractFourthHomework.sol\":1600:1605  owner */\n      0x00\n      dup1\n        /* \"contracts/ProposalContractFourthHomework.sol\":1600:1617  owner = new_owner */\n      0x0100\n      exp\n      dup2\n      sload\n      dup2\n      0xffffffffffffffffffffffffffffffffffffffff\n      mul\n      not\n      and\n      swap1\n      dup4\n      0xffffffffffffffffffffffffffffffffffffffff\n      and\n      mul\n      or\n      swap1\n      sstore\n      pop\n        /* \"contracts/ProposalContractFourthHomework.sol\":1533:1625  function setOwner(address new_owner) external onlyOwner {... */\n      pop\n      jump\t// out\n        /* \"contracts/ProposalContractFourthHomework.sol\":1633:2097  function create(string calldata _title, string calldata _description, uint256 _total_vote_to_end) external onlyOwner {... */\n    tag_13:\n        /* \"contracts/ProposalContractFourthHomework.sol\":1117:1122  owner */\n      0x00\n      dup1\n      sload\n      swap1\n      0x0100\n      exp\n      swap1\n      div\n      0xffffffffffffffffffffffffffffffffffffffff\n      and\n        /* \"contracts/ProposalContractFourthHomework.sol\":1103:1122  msg.sender == owner */\n      0xffffffffffffffffffffffffffffffffffffffff\n      and\n        /* \"contracts/ProposalContractFourthHomework.sol\":1103:1113  msg.sender */\n      caller\n        /* \"contracts/ProposalContractFourthHomework.sol\":1103:1122  msg.sender == owner */\n      0xffffffffffffffffffffffffffffffffffffffff\n      and\n      eq\n        /* \"contracts/ProposalContractFourthHomework.sol\":1095:1164  require(msg.sender == owner, \"Only the owner can call this function\") */\n      tag_24\n      jumpi\n      mload(0x40)\n      0x08c379a000000000000000000000000000000000000000000000000000000000\n      dup2\n      mstore\n      0x04\n      add\n      tag_25\n      swap1\n      tag_21\n      jump\t// in\n    tag_25:\n      mload(0x40)\n      dup1\n      swap2\n      sub\n      swap1\n      revert\n    tag_24:\n        /* \"contracts/ProposalContractFourthHomework.sol\":1772:1773  1 */\n      0x01\n        /* \"contracts/ProposalContractFourthHomework.sol\":1761:1768  counter */\n      dup1\n      0x00\n        /* \"contracts/ProposalContractFourthHomework.sol\":1761:1773  counter += 1 */\n      dup3\n      dup3\n      sload\n      tag_27\n      swap2\n      swap1\n      tag_28\n      jump\t// in\n    tag_27:\n      swap3\n      pop\n      pop\n      dup2\n      swap1\n      sstore\n      pop\n        /* \"contracts/ProposalContractFourthHomework.sol\":1812:2089  Proposal({... */\n      mload(0x40)\n      dup1\n      0x0100\n      add\n      0x40\n      mstore\n      dup1\n        /* \"contracts/ProposalContractFourthHomework.sol\":1843:1849  _title */\n      dup7\n      dup7\n        /* \"contracts/ProposalContractFourthHomework.sol\":1812:2089  Proposal({... */\n      dup1\n      dup1\n      0x1f\n      add\n      0x20\n      dup1\n      swap2\n      div\n      mul\n      0x20\n      add\n      mload(0x40)\n      swap1\n      dup2\n      add\n      0x40\n      mstore\n      dup1\n      swap4\n      swap3\n      swap2\n      swap1\n      dup2\n      dup2\n      mstore\n      0x20\n      add\n      dup4\n      dup4\n      dup1\n      dup3\n      dup5\n      calldatacopy\n      0x00\n      dup2\n      dup5\n      add\n      mstore\n      not(0x1f)\n      0x1f\n      dup3\n      add\n      and\n      swap1\n      pop\n      dup1\n      dup4\n      add\n      swap3\n      pop\n      pop\n      pop\n      pop\n      pop\n      pop\n      pop\n      dup2\n      mstore\n      0x20\n      add\n        /* \"contracts/ProposalContractFourthHomework.sol\":1877:1889  _description */\n      dup5\n      dup5\n        /* \"contracts/ProposalContractFourthHomework.sol\":1812:2089  Proposal({... */\n      dup1\n      dup1\n      0x1f\n      add\n      0x20\n      dup1\n      swap2\n      div\n      mul\n      0x20\n      add\n      mload(0x40)\n      swap1\n      dup2\n      add\n      0x40\n      mstore\n      dup1\n      swap4\n      swap3\n      swap2\n      swap1\n      dup2\n      dup2\n      mstore\n      0x20\n      add\n      dup4\n      dup4\n      dup1\n      dup3\n      dup5\n      calldatacopy\n      0x00\n      dup2\n      dup5\n      add\n      mstore\n      not(0x1f)\n      0x1f\n      dup3\n      add\n      and\n      swap1\n      pop\n      dup1\n      dup4\n      add\n      swap3\n      pop\n      pop\n      pop\n      pop\n      pop\n      pop\n      pop\n      dup2\n      mstore\n      0x20\n      add\n        /* \"contracts/ProposalContractFourthHomework.sol\":1913:1914  0 */\n      0x00\n        /* \"contracts/ProposalContractFourthHomework.sol\":1812:2089  Proposal({... */\n      dup2\n      mstore\n      0x20\n      add\n        /* \"contracts/ProposalContractFourthHomework.sol\":1937:1938  0 */\n      0x00\n        /* \"contracts/ProposalContractFourthHomework.sol\":1812:2089  Proposal({... */\n      dup2\n      mstore\n      0x20\n      add\n        /* \"contracts/ProposalContractFourthHomework.sol\":1959:1960  0 */\n      0x00\n        /* \"contracts/ProposalContractFourthHomework.sol\":1812:2089  Proposal({... */\n      dup2\n      mstore\n      0x20\n      add\n        /* \"contracts/ProposalContractFourthHomework.sol\":1994:2012  _total_vote_to_end */\n      dup3\n        /* \"contracts/ProposalContractFourthHomework.sol\":1812:2089  Proposal({... */\n      dup2\n      mstore\n      0x20\n      add\n        /* \"contracts/ProposalContractFourthHomework.sol\":2042:2047  false */\n      0x00\n        /* \"contracts/ProposalContractFourthHomework.sol\":1812:2089  Proposal({... */\n      iszero\n      iszero\n      dup2\n      mstore\n      0x20\n      add\n        /* \"contracts/ProposalContractFourthHomework.sol\":2073:2077  true */\n      0x01\n        /* \"contracts/ProposalContractFourthHomework.sol\":1812:2089  Proposal({... */\n      iszero\n      iszero\n      dup2\n      mstore\n      pop\n        /* \"contracts/ProposalContractFourthHomework.sol\":1784:1800  proposal_history */\n      0x02\n        /* \"contracts/ProposalContractFourthHomework.sol\":1784:1809  proposal_history[counter] */\n      0x00\n        /* \"contracts/ProposalContractFourthHomework.sol\":1801:1808  counter */\n      sload(0x01)\n        /* \"contracts/ProposalContractFourthHomework.sol\":1784:1809  proposal_history[counter] */\n      dup2\n      mstore\n      0x20\n      add\n      swap1\n      dup2\n      mstore\n      0x20\n      add\n      0x00\n      keccak256\n        /* \"contracts/ProposalContractFourthHomework.sol\":1784:2089  proposal_history[counter] = Proposal({... */\n      0x00\n      dup3\n      add\n      mload\n      dup2\n      0x00\n      add\n      swap1\n      dup2\n      tag_29\n      swap2\n      swap1\n      tag_30\n      jump\t// in\n    tag_29:\n      pop\n      0x20\n      dup3\n      add\n      mload\n      dup2\n      0x01\n      add\n      swap1\n      dup2\n      tag_31\n      swap2\n      swap1\n      tag_30\n      jump\t// in\n    tag_31:\n      pop\n      0x40\n      dup3\n      add\n      mload\n      dup2\n      0x02\n      add\n      sstore\n      0x60\n      dup3\n      add\n      mload\n      dup2\n      0x03\n      add\n      sstore\n      0x80\n      dup3\n      add\n      mload\n      dup2\n      0x04\n      add\n      sstore\n      0xa0\n      dup3\n      add\n      mload\n      dup2\n      0x05\n      add\n      sstore\n      0xc0\n      dup3\n      add\n      mload\n      dup2\n      0x06\n      add\n      exp(0x0100, 0x00)\n      dup2\n      sload\n      dup2\n      0xff\n      mul\n      not\n      and\n      swap1\n      dup4\n      iszero\n      iszero\n      mul\n      or\n      swap1\n      sstore\n      pop\n      0xe0\n      dup3\n      add\n      mload\n      dup2\n      0x06\n      add\n      exp(0x0100, 0x01)\n      dup2\n      sload\n      dup2\n      0xff\n      mul\n      not\n      and\n      swap1\n      dup4\n      iszero\n      iszero\n      mul\n      or\n      swap1\n      sstore\n      pop\n      swap1\n      pop\n      pop\n        /* \"contracts/ProposalContractFourthHomework.sol\":1633:2097  function create(string calldata _title, string calldata _description, uint256 _total_vote_to_end) external onlyOwner {... */\n      pop\n      pop\n      pop\n      pop\n      pop\n      jump\t// out\n        /* \"contracts/ProposalContractFourthHomework.sol\":2109:2981  function vote(uint8 choice) external active newVoter(msg.sender) {... */\n    tag_17:\n        /* \"contracts/ProposalContractFourthHomework.sol\":1268:1272  true */\n      0x01\n        /* \"contracts/ProposalContractFourthHomework.sol\":1229:1272  proposal_history[counter].is_active == true */\n      iszero\n      iszero\n        /* \"contracts/ProposalContractFourthHomework.sol\":1229:1245  proposal_history */\n      0x02\n        /* \"contracts/ProposalContractFourthHomework.sol\":1229:1254  proposal_history[counter] */\n      0x00\n        /* \"contracts/ProposalContractFourthHomework.sol\":1246:1253  counter */\n      sload(0x01)\n        /* \"contracts/ProposalContractFourthHomework.sol\":1229:1254  proposal_history[counter] */\n      dup2\n      mstore\n      0x20\n      add\n      swap1\n      dup2\n      mstore\n      0x20\n      add\n      0x00\n      keccak256\n        /* \"contracts/ProposalContractFourthHomework.sol\":1229:1264  proposal_history[counter].is_active */\n      0x06\n      add\n      0x01\n      swap1\n      sload\n      swap1\n      0x0100\n      exp\n      swap1\n      div\n      0xff\n      and\n        /* \"contracts/ProposalContractFourthHomework.sol\":1229:1272  proposal_history[counter].is_active == true */\n      iszero\n      iszero\n      eq\n        /* \"contracts/ProposalContractFourthHomework.sol\":1221:1303  require(proposal_history[counter].is_active == true, \"The proposal is not active\") */\n      tag_33\n      jumpi\n      mload(0x40)\n      0x08c379a000000000000000000000000000000000000000000000000000000000\n      dup2\n      mstore\n      0x04\n      add\n      tag_34\n      swap1\n      tag_35\n      jump\t// in\n    tag_34:\n      mload(0x40)\n      dup1\n      swap2\n      sub\n      swap1\n      revert\n    tag_33:\n        /* \"contracts/ProposalContractFourthHomework.sol\":2162:2172  msg.sender */\n      caller\n        /* \"contracts/ProposalContractFourthHomework.sol\":1387:1404  isVoted(_address) */\n      tag_37\n        /* \"contracts/ProposalContractFourthHomework.sol\":1395:1403  _address */\n      dup2\n        /* \"contracts/ProposalContractFourthHomework.sol\":1387:1394  isVoted */\n      tag_38\n        /* \"contracts/ProposalContractFourthHomework.sol\":1387:1404  isVoted(_address) */\n      jump\t// in\n    tag_37:\n        /* \"contracts/ProposalContractFourthHomework.sol\":1386:1404  !isVoted(_address) */\n      iszero\n        /* \"contracts/ProposalContractFourthHomework.sol\":1378:1434  require(!isVoted(_address), \"Address has already voted\") */\n      tag_39\n      jumpi\n      mload(0x40)\n      0x08c379a000000000000000000000000000000000000000000000000000000000\n      dup2\n      mstore\n      0x04\n      add\n      tag_40\n      swap1\n      tag_41\n      jump\t// in\n    tag_40:\n      mload(0x40)\n      dup1\n      swap2\n      sub\n      swap1\n      revert\n    tag_39:\n        /* \"contracts/ProposalContractFourthHomework.sol\":2185:2210  Proposal storage proposal */\n      0x00\n        /* \"contracts/ProposalContractFourthHomework.sol\":2213:2229  proposal_history */\n      0x02\n        /* \"contracts/ProposalContractFourthHomework.sol\":2213:2238  proposal_history[counter] */\n      0x00\n        /* \"contracts/ProposalContractFourthHomework.sol\":2230:2237  counter */\n      sload(0x01)\n        /* \"contracts/ProposalContractFourthHomework.sol\":2213:2238  proposal_history[counter] */\n      dup2\n      mstore\n      0x20\n      add\n      swap1\n      dup2\n      mstore\n      0x20\n      add\n      0x00\n      keccak256\n        /* \"contracts/ProposalContractFourthHomework.sol\":2185:2238  Proposal storage proposal = proposal_history[counter] */\n      swap1\n      pop\n        /* \"contracts/ProposalContractFourthHomework.sol\":2249:2267  uint256 total_vote */\n      0x00\n        /* \"contracts/ProposalContractFourthHomework.sol\":2307:2315  proposal */\n      dup2\n        /* \"contracts/ProposalContractFourthHomework.sol\":2307:2320  proposal.pass */\n      0x04\n      add\n      sload\n        /* \"contracts/ProposalContractFourthHomework.sol\":2289:2297  proposal */\n      dup3\n        /* \"contracts/ProposalContractFourthHomework.sol\":2289:2304  proposal.reject */\n      0x03\n      add\n      sload\n        /* \"contracts/ProposalContractFourthHomework.sol\":2270:2278  proposal */\n      dup4\n        /* \"contracts/ProposalContractFourthHomework.sol\":2270:2286  proposal.approve */\n      0x02\n      add\n      sload\n        /* \"contracts/ProposalContractFourthHomework.sol\":2270:2304  proposal.approve + proposal.reject */\n      tag_43\n      swap2\n      swap1\n      tag_28\n      jump\t// in\n    tag_43:\n        /* \"contracts/ProposalContractFourthHomework.sol\":2270:2320  proposal.approve + proposal.reject + proposal.pass */\n      tag_44\n      swap2\n      swap1\n      tag_28\n      jump\t// in\n    tag_44:\n        /* \"contracts/ProposalContractFourthHomework.sol\":2249:2320  uint256 total_vote = proposal.approve + proposal.reject + proposal.pass */\n      swap1\n      pop\n        /* \"contracts/ProposalContractFourthHomework.sol\":2333:2348  voted_addresses */\n      0x03\n        /* \"contracts/ProposalContractFourthHomework.sol\":2354:2364  msg.sender */\n      caller\n        /* \"contracts/ProposalContractFourthHomework.sol\":2333:2365  voted_addresses.push(msg.sender) */\n      swap1\n      dup1\n      0x01\n      dup2\n      sload\n      add\n      dup1\n      dup3\n      sstore\n      dup1\n      swap2\n      pop\n      pop\n      0x01\n      swap1\n      sub\n      swap1\n      0x00\n      mstore\n      keccak256(0x00, 0x20)\n      add\n      0x00\n      swap1\n      swap2\n      swap1\n      swap2\n      swap1\n      swap2\n      0x0100\n      exp\n      dup2\n      sload\n      dup2\n      0xffffffffffffffffffffffffffffffffffffffff\n      mul\n      not\n      and\n      swap1\n      dup4\n      0xffffffffffffffffffffffffffffffffffffffff\n      and\n      mul\n      or\n      swap1\n      sstore\n      pop\n        /* \"contracts/ProposalContractFourthHomework.sol\":2392:2393  1 */\n      0x01\n        /* \"contracts/ProposalContractFourthHomework.sol\":2382:2388  choice */\n      dup5\n        /* \"contracts/ProposalContractFourthHomework.sol\":2382:2393  choice == 1 */\n      0xff\n      and\n      sub\n        /* \"contracts/ProposalContractFourthHomework.sol\":2378:2770  if (choice == 1) {... */\n      tag_46\n      jumpi\n        /* \"contracts/ProposalContractFourthHomework.sol\":2430:2431  1 */\n      0x01\n        /* \"contracts/ProposalContractFourthHomework.sol\":2410:2418  proposal */\n      dup3\n        /* \"contracts/ProposalContractFourthHomework.sol\":2410:2426  proposal.approve */\n      0x02\n      add\n      0x00\n        /* \"contracts/ProposalContractFourthHomework.sol\":2410:2431  proposal.approve += 1 */\n      dup3\n      dup3\n      sload\n      tag_47\n      swap2\n      swap1\n      tag_28\n      jump\t// in\n    tag_47:\n      swap3\n      pop\n      pop\n      dup2\n      swap1\n      sstore\n      pop\n        /* \"contracts/ProposalContractFourthHomework.sol\":2471:2494  calculateCurrentState() */\n      tag_48\n        /* \"contracts/ProposalContractFourthHomework.sol\":2471:2492  calculateCurrentState */\n      tag_49\n        /* \"contracts/ProposalContractFourthHomework.sol\":2471:2494  calculateCurrentState() */\n      jump\t// in\n    tag_48:\n        /* \"contracts/ProposalContractFourthHomework.sol\":2446:2454  proposal */\n      dup3\n        /* \"contracts/ProposalContractFourthHomework.sol\":2446:2468  proposal.current_state */\n      0x06\n      add\n      0x00\n        /* \"contracts/ProposalContractFourthHomework.sol\":2446:2494  proposal.current_state = calculateCurrentState() */\n      0x0100\n      exp\n      dup2\n      sload\n      dup2\n      0xff\n      mul\n      not\n      and\n      swap1\n      dup4\n      iszero\n      iszero\n      mul\n      or\n      swap1\n      sstore\n      pop\n        /* \"contracts/ProposalContractFourthHomework.sol\":2378:2770  if (choice == 1) {... */\n      jump(tag_50)\n    tag_46:\n        /* \"contracts/ProposalContractFourthHomework.sol\":2526:2527  2 */\n      0x02\n        /* \"contracts/ProposalContractFourthHomework.sol\":2516:2522  choice */\n      dup5\n        /* \"contracts/ProposalContractFourthHomework.sol\":2516:2527  choice == 2 */\n      0xff\n      and\n      sub\n        /* \"contracts/ProposalContractFourthHomework.sol\":2512:2770  if (choice == 2) {... */\n      tag_51\n      jumpi\n        /* \"contracts/ProposalContractFourthHomework.sol\":2563:2564  1 */\n      0x01\n        /* \"contracts/ProposalContractFourthHomework.sol\":2544:2552  proposal */\n      dup3\n        /* \"contracts/ProposalContractFourthHomework.sol\":2544:2559  proposal.reject */\n      0x03\n      add\n      0x00\n        /* \"contracts/ProposalContractFourthHomework.sol\":2544:2564  proposal.reject += 1 */\n      dup3\n      dup3\n      sload\n      tag_52\n      swap2\n      swap1\n      tag_28\n      jump\t// in\n    tag_52:\n      swap3\n      pop\n      pop\n      dup2\n      swap1\n      sstore\n      pop\n        /* \"contracts/ProposalContractFourthHomework.sol\":2604:2627  calculateCurrentState() */\n      tag_53\n        /* \"contracts/ProposalContractFourthHomework.sol\":2604:2625  calculateCurrentState */\n      tag_49\n        /* \"contracts/ProposalContractFourthHomework.sol\":2604:2627  calculateCurrentState() */\n      jump\t// in\n    tag_53:\n        /* \"contracts/ProposalContractFourthHomework.sol\":2579:2587  proposal */\n      dup3\n        /* \"contracts/ProposalContractFourthHomework.sol\":2579:2601  proposal.current_state */\n      0x06\n      add\n      0x00\n        /* \"contracts/ProposalContractFourthHomework.sol\":2579:2627  proposal.current_state = calculateCurrentState() */\n      0x0100\n      exp\n      dup2\n      sload\n      dup2\n      0xff\n      mul\n      not\n      and\n      swap1\n      dup4\n      iszero\n      iszero\n      mul\n      or\n      swap1\n      sstore\n      pop\n        /* \"contracts/ProposalContractFourthHomework.sol\":2512:2770  if (choice == 2) {... */\n      jump(tag_54)\n    tag_51:\n        /* \"contracts/ProposalContractFourthHomework.sol\":2659:2660  0 */\n      0x00\n        /* \"contracts/ProposalContractFourthHomework.sol\":2649:2655  choice */\n      dup5\n        /* \"contracts/ProposalContractFourthHomework.sol\":2649:2660  choice == 0 */\n      0xff\n      and\n      sub\n        /* \"contracts/ProposalContractFourthHomework.sol\":2645:2770  if (choice == 0) {... */\n      tag_55\n      jumpi\n        /* \"contracts/ProposalContractFourthHomework.sol\":2694:2695  1 */\n      0x01\n        /* \"contracts/ProposalContractFourthHomework.sol\":2677:2685  proposal */\n      dup3\n        /* \"contracts/ProposalContractFourthHomework.sol\":2677:2690  proposal.pass */\n      0x04\n      add\n      0x00\n        /* \"contracts/ProposalContractFourthHomework.sol\":2677:2695  proposal.pass += 1 */\n      dup3\n      dup3\n      sload\n      tag_56\n      swap2\n      swap1\n      tag_28\n      jump\t// in\n    tag_56:\n      swap3\n      pop\n      pop\n      dup2\n      swap1\n      sstore\n      pop\n        /* \"contracts/ProposalContractFourthHomework.sol\":2735:2758  calculateCurrentState() */\n      tag_57\n        /* \"contracts/ProposalContractFourthHomework.sol\":2735:2756  calculateCurrentState */\n      tag_49\n        /* \"contracts/ProposalContractFourthHomework.sol\":2735:2758  calculateCurrentState() */\n      jump\t// in\n    tag_57:\n        /* \"contracts/ProposalContractFourthHomework.sol\":2710:2718  proposal */\n      dup3\n        /* \"contracts/ProposalContractFourthHomework.sol\":2710:2732  proposal.current_state */\n      0x06\n      add\n      0x00\n        /* \"contracts/ProposalContractFourthHomework.sol\":2710:2758  proposal.current_state = calculateCurrentState() */\n      0x0100\n      exp\n      dup2\n      sload\n      dup2\n      0xff\n      mul\n      not\n      and\n      swap1\n      dup4\n      iszero\n      iszero\n      mul\n      or\n      swap1\n      sstore\n      pop\n        /* \"contracts/ProposalContractFourthHomework.sol\":2645:2770  if (choice == 0) {... */\n    tag_55:\n        /* \"contracts/ProposalContractFourthHomework.sol\":2512:2770  if (choice == 2) {... */\n    tag_54:\n        /* \"contracts/ProposalContractFourthHomework.sol\":2378:2770  if (choice == 1) {... */\n    tag_50:\n        /* \"contracts/ProposalContractFourthHomework.sol\":2830:2831  1 */\n      0x01\n        /* \"contracts/ProposalContractFourthHomework.sol\":2816:2826  total_vote */\n      dup2\n        /* \"contracts/ProposalContractFourthHomework.sol\":2787:2795  proposal */\n      dup4\n        /* \"contracts/ProposalContractFourthHomework.sol\":2787:2813  proposal.total_vote_to_end */\n      0x05\n      add\n      sload\n        /* \"contracts/ProposalContractFourthHomework.sol\":2787:2826  proposal.total_vote_to_end - total_vote */\n      tag_58\n      swap2\n      swap1\n      tag_59\n      jump\t// in\n    tag_58:\n        /* \"contracts/ProposalContractFourthHomework.sol\":2787:2831  proposal.total_vote_to_end - total_vote == 1 */\n      eq\n        /* \"contracts/ProposalContractFourthHomework.sol\":2786:2879  (proposal.total_vote_to_end - total_vote == 1) && (choice == 1 || choice == 2 || choice == 0) */\n      dup1\n      iszero\n      tag_60\n      jumpi\n      pop\n        /* \"contracts/ProposalContractFourthHomework.sol\":2847:2848  1 */\n      0x01\n        /* \"contracts/ProposalContractFourthHomework.sol\":2837:2843  choice */\n      dup5\n        /* \"contracts/ProposalContractFourthHomework.sol\":2837:2848  choice == 1 */\n      0xff\n      and\n      eq\n        /* \"contracts/ProposalContractFourthHomework.sol\":2837:2863  choice == 1 || choice == 2 */\n      dup1\n      tag_61\n      jumpi\n      pop\n        /* \"contracts/ProposalContractFourthHomework.sol\":2862:2863  2 */\n      0x02\n        /* \"contracts/ProposalContractFourthHomework.sol\":2852:2858  choice */\n      dup5\n        /* \"contracts/ProposalContractFourthHomework.sol\":2852:2863  choice == 2 */\n      0xff\n      and\n      eq\n        /* \"contracts/ProposalContractFourthHomework.sol\":2837:2863  choice == 1 || choice == 2 */\n    tag_61:\n        /* \"contracts/ProposalContractFourthHomework.sol\":2837:2878  choice == 1 || choice == 2 || choice == 0 */\n      dup1\n      tag_62\n      jumpi\n      pop\n        /* \"contracts/ProposalContractFourthHomework.sol\":2877:2878  0 */\n      0x00\n        /* \"contracts/ProposalContractFourthHomework.sol\":2867:2873  choice */\n      dup5\n        /* \"contracts/ProposalContractFourthHomework.sol\":2867:2878  choice == 0 */\n      0xff\n      and\n      eq\n        /* \"contracts/ProposalContractFourthHomework.sol\":2837:2878  choice == 1 || choice == 2 || choice == 0 */\n    tag_62:\n        /* \"contracts/ProposalContractFourthHomework.sol\":2786:2879  (proposal.total_vote_to_end - total_vote == 1) && (choice == 1 || choice == 2 || choice == 0) */\n    tag_60:\n        /* \"contracts/ProposalContractFourthHomework.sol\":2782:2974  if ((proposal.total_vote_to_end - total_vote == 1) && (choice == 1 || choice == 2 || choice == 0)) {... */\n      iszero\n      tag_63\n      jumpi\n        /* \"contracts/ProposalContractFourthHomework.sol\":2917:2922  false */\n      0x00\n        /* \"contracts/ProposalContractFourthHomework.sol\":2896:2904  proposal */\n      dup3\n        /* \"contracts/ProposalContractFourthHomework.sol\":2896:2914  proposal.is_active */\n      0x06\n      add\n      0x01\n        /* \"contracts/ProposalContractFourthHomework.sol\":2896:2922  proposal.is_active = false */\n      0x0100\n      exp\n      dup2\n      sload\n      dup2\n      0xff\n      mul\n      not\n      and\n      swap1\n      dup4\n      iszero\n      iszero\n      mul\n      or\n      swap1\n      sstore\n      pop\n        /* \"contracts/ProposalContractFourthHomework.sol\":2937:2962  voted_addresses = [owner] */\n      mload(0x40)\n      dup1\n      0x20\n      add\n      0x40\n      mstore\n      dup1\n        /* \"contracts/ProposalContractFourthHomework.sol\":2956:2961  owner */\n      0x00\n      dup1\n      sload\n      swap1\n      0x0100\n      exp\n      swap1\n      div\n      0xffffffffffffffffffffffffffffffffffffffff\n      and\n        /* \"contracts/ProposalContractFourthHomework.sol\":2937:2962  voted_addresses = [owner] */\n      0xffffffffffffffffffffffffffffffffffffffff\n      and\n      0xffffffffffffffffffffffffffffffffffffffff\n      and\n      dup2\n      mstore\n      pop\n        /* \"contracts/ProposalContractFourthHomework.sol\":2937:2952  voted_addresses */\n      0x03\n        /* \"contracts/ProposalContractFourthHomework.sol\":2937:2962  voted_addresses = [owner] */\n      swap1\n      0x01\n      tag_64\n      swap3\n      swap2\n      swap1\n      tag_65\n      jump\t// in\n    tag_64:\n      pop\n        /* \"contracts/ProposalContractFourthHomework.sol\":2782:2974  if ((proposal.total_vote_to_end - total_vote == 1) && (choice == 1 || choice == 2 || choice == 0)) {... */\n    tag_63:\n        /* \"contracts/ProposalContractFourthHomework.sol\":2174:2981  {... */\n      pop\n      pop\n        /* \"contracts/ProposalContractFourthHomework.sol\":1314:1315  _ */\n      pop\n        /* \"contracts/ProposalContractFourthHomework.sol\":2109:2981  function vote(uint8 choice) external active newVoter(msg.sender) {... */\n      pop\n      jump\t// out\n        /* \"contracts/ProposalContractFourthHomework.sol\":3855:4120  function isVoted(address _address) private view returns (bool) {... */\n    tag_38:\n        /* \"contracts/ProposalContractFourthHomework.sol\":3912:3916  bool */\n      0x00\n        /* \"contracts/ProposalContractFourthHomework.sol\":3934:3943  uint256 i */\n      dup1\n        /* \"contracts/ProposalContractFourthHomework.sol\":3946:3947  0 */\n      0x00\n        /* \"contracts/ProposalContractFourthHomework.sol\":3934:3947  uint256 i = 0 */\n      swap1\n      pop\n        /* \"contracts/ProposalContractFourthHomework.sol\":3929:4090  for (uint256 i = 0; i < voted_addresses.length; i++) {... */\n    tag_67:\n        /* \"contracts/ProposalContractFourthHomework.sol\":3953:3968  voted_addresses */\n      0x03\n        /* \"contracts/ProposalContractFourthHomework.sol\":3953:3975  voted_addresses.length */\n      dup1\n      sload\n      swap1\n      pop\n        /* \"contracts/ProposalContractFourthHomework.sol\":3949:3950  i */\n      dup2\n        /* \"contracts/ProposalContractFourthHomework.sol\":3949:3975  i < voted_addresses.length */\n      lt\n        /* \"contracts/ProposalContractFourthHomework.sol\":3929:4090  for (uint256 i = 0; i < voted_addresses.length; i++) {... */\n      iszero\n      tag_68\n      jumpi\n        /* \"contracts/ProposalContractFourthHomework.sol\":4023:4031  _address */\n      dup3\n        /* \"contracts/ProposalContractFourthHomework.sol\":4001:4031  voted_addresses[i] == _address */\n      0xffffffffffffffffffffffffffffffffffffffff\n      and\n        /* \"contracts/ProposalContractFourthHomework.sol\":4001:4016  voted_addresses */\n      0x03\n        /* \"contracts/ProposalContractFourthHomework.sol\":4017:4018  i */\n      dup3\n        /* \"contracts/ProposalContractFourthHomework.sol\":4001:4019  voted_addresses[i] */\n      dup2\n      sload\n      dup2\n      lt\n      tag_70\n      jumpi\n      tag_71\n      tag_72\n      jump\t// in\n    tag_71:\n    tag_70:\n      swap1\n      0x00\n      mstore\n      keccak256(0x00, 0x20)\n      add\n      0x00\n      swap1\n      sload\n      swap1\n      0x0100\n      exp\n      swap1\n      div\n      0xffffffffffffffffffffffffffffffffffffffff\n      and\n        /* \"contracts/ProposalContractFourthHomework.sol\":4001:4031  voted_addresses[i] == _address */\n      0xffffffffffffffffffffffffffffffffffffffff\n      and\n      sub\n        /* \"contracts/ProposalContractFourthHomework.sol\":3997:4079  if (voted_addresses[i] == _address) {... */\n      tag_74\n      jumpi\n        /* \"contracts/ProposalContractFourthHomework.sol\":4059:4063  true */\n      0x01\n        /* \"contracts/ProposalContractFourthHomework.sol\":4052:4063  return true */\n      swap2\n      pop\n      pop\n      jump(tag_66)\n        /* \"contracts/ProposalContractFourthHomework.sol\":3997:4079  if (voted_addresses[i] == _address) {... */\n    tag_74:\n        /* \"contracts/ProposalContractFourthHomework.sol\":3977:3980  i++ */\n      dup1\n      dup1\n      0x01\n      add\n      swap2\n      pop\n      pop\n        /* \"contracts/ProposalContractFourthHomework.sol\":3929:4090  for (uint256 i = 0; i < voted_addresses.length; i++) {... */\n      jump(tag_67)\n    tag_68:\n      pop\n        /* \"contracts/ProposalContractFourthHomework.sol\":4107:4112  false */\n      0x00\n        /* \"contracts/ProposalContractFourthHomework.sol\":4100:4112  return false */\n      swap1\n      pop\n        /* \"contracts/ProposalContractFourthHomework.sol\":3855:4120  function isVoted(address _address) private view returns (bool) {... */\n    tag_66:\n      swap2\n      swap1\n      pop\n      jump\t// out\n        /* \"contracts/ProposalContractFourthHomework.sol\":3041:3797  function calculateCurrentState() private view returns(bool) {... */\n    tag_49:\n        /* \"contracts/ProposalContractFourthHomework.sol\":3095:3099  bool */\n      0x00\n        /* \"contracts/ProposalContractFourthHomework.sol\":3112:3137  Proposal storage proposal */\n      dup1\n        /* \"contracts/ProposalContractFourthHomework.sol\":3140:3156  proposal_history */\n      0x02\n        /* \"contracts/ProposalContractFourthHomework.sol\":3140:3165  proposal_history[counter] */\n      0x00\n        /* \"contracts/ProposalContractFourthHomework.sol\":3157:3164  counter */\n      sload(0x01)\n        /* \"contracts/ProposalContractFourthHomework.sol\":3140:3165  proposal_history[counter] */\n      dup2\n      mstore\n      0x20\n      add\n      swap1\n      dup2\n      mstore\n      0x20\n      add\n      0x00\n      keccak256\n        /* \"contracts/ProposalContractFourthHomework.sol\":3112:3165  Proposal storage proposal = proposal_history[counter] */\n      swap1\n      pop\n        /* \"contracts/ProposalContractFourthHomework.sol\":3178:3193  uint256 approve */\n      0x00\n        /* \"contracts/ProposalContractFourthHomework.sol\":3196:3204  proposal */\n      dup2\n        /* \"contracts/ProposalContractFourthHomework.sol\":3196:3212  proposal.approve */\n      0x02\n      add\n      sload\n        /* \"contracts/ProposalContractFourthHomework.sol\":3178:3212  uint256 approve = proposal.approve */\n      swap1\n      pop\n        /* \"contracts/ProposalContractFourthHomework.sol\":3223:3237  uint256 reject */\n      0x00\n        /* \"contracts/ProposalContractFourthHomework.sol\":3240:3248  proposal */\n      dup3\n        /* \"contracts/ProposalContractFourthHomework.sol\":3240:3255  proposal.reject */\n      0x03\n      add\n      sload\n        /* \"contracts/ProposalContractFourthHomework.sol\":3223:3255  uint256 reject = proposal.reject */\n      swap1\n      pop\n        /* \"contracts/ProposalContractFourthHomework.sol\":3266:3278  uint256 pass */\n      0x00\n        /* \"contracts/ProposalContractFourthHomework.sol\":3281:3289  proposal */\n      dup4\n        /* \"contracts/ProposalContractFourthHomework.sol\":3281:3294  proposal.pass */\n      0x04\n      add\n      sload\n        /* \"contracts/ProposalContractFourthHomework.sol\":3266:3294  uint256 pass = proposal.pass */\n      swap1\n      pop\n        /* \"contracts/ProposalContractFourthHomework.sol\":3483:3501  uint256 totalVotes */\n      0x00\n        /* \"contracts/ProposalContractFourthHomework.sol\":3523:3527  pass */\n      dup2\n        /* \"contracts/ProposalContractFourthHomework.sol\":3514:3520  reject */\n      dup4\n        /* \"contracts/ProposalContractFourthHomework.sol\":3504:3511  approve */\n      dup6\n        /* \"contracts/ProposalContractFourthHomework.sol\":3504:3520  approve + reject */\n      tag_76\n      swap2\n      swap1\n      tag_28\n      jump\t// in\n    tag_76:\n        /* \"contracts/ProposalContractFourthHomework.sol\":3504:3527  approve + reject + pass */\n      tag_77\n      swap2\n      swap1\n      tag_28\n      jump\t// in\n    tag_77:\n        /* \"contracts/ProposalContractFourthHomework.sol\":3483:3527  uint256 totalVotes = approve + reject + pass */\n      swap1\n      pop\n        /* \"contracts/ProposalContractFourthHomework.sol\":3538:3559  uint256 requiredVotes */\n      0x00\n        /* \"contracts/ProposalContractFourthHomework.sol\":3582:3585  100 */\n      0x64\n        /* \"contracts/ProposalContractFourthHomework.sol\":3576:3578  60 */\n      0x3c\n        /* \"contracts/ProposalContractFourthHomework.sol\":3563:3573  totalVotes */\n      dup4\n        /* \"contracts/ProposalContractFourthHomework.sol\":3563:3578  totalVotes * 60 */\n      tag_78\n      swap2\n      swap1\n      tag_79\n      jump\t// in\n    tag_78:\n        /* \"contracts/ProposalContractFourthHomework.sol\":3562:3585  (totalVotes * 60) / 100 */\n      tag_80\n      swap2\n      swap1\n      tag_81\n      jump\t// in\n    tag_80:\n        /* \"contracts/ProposalContractFourthHomework.sol\":3538:3585  uint256 requiredVotes = (totalVotes * 60) / 100 */\n      swap1\n      pop\n        /* \"contracts/ProposalContractFourthHomework.sol\":3634:3640  reject */\n      dup4\n        /* \"contracts/ProposalContractFourthHomework.sol\":3624:3631  approve */\n      dup6\n        /* \"contracts/ProposalContractFourthHomework.sol\":3624:3640  approve > reject */\n      gt\n        /* \"contracts/ProposalContractFourthHomework.sol\":3624:3668  approve > reject && approve >= requiredVotes */\n      dup1\n      iszero\n      tag_82\n      jumpi\n      pop\n        /* \"contracts/ProposalContractFourthHomework.sol\":3655:3668  requiredVotes */\n      dup1\n        /* \"contracts/ProposalContractFourthHomework.sol\":3644:3651  approve */\n      dup6\n        /* \"contracts/ProposalContractFourthHomework.sol\":3644:3668  approve >= requiredVotes */\n      lt\n      iszero\n        /* \"contracts/ProposalContractFourthHomework.sol\":3624:3668  approve > reject && approve >= requiredVotes */\n    tag_82:\n        /* \"contracts/ProposalContractFourthHomework.sol\":3620:3790  if (approve > reject && approve >= requiredVotes) {... */\n      iszero\n      tag_83\n      jumpi\n        /* \"contracts/ProposalContractFourthHomework.sol\":3692:3696  true */\n      0x01\n        /* \"contracts/ProposalContractFourthHomework.sol\":3685:3696  return true */\n      swap7\n      pop\n      pop\n      pop\n      pop\n      pop\n      pop\n      pop\n      jump(tag_75)\n        /* \"contracts/ProposalContractFourthHomework.sol\":3620:3790  if (approve > reject && approve >= requiredVotes) {... */\n    tag_83:\n        /* \"contracts/ProposalContractFourthHomework.sol\":3755:3760  false */\n      0x00\n        /* \"contracts/ProposalContractFourthHomework.sol\":3748:3760  return false */\n      swap7\n      pop\n      pop\n      pop\n      pop\n      pop\n      pop\n      pop\n        /* \"contracts/ProposalContractFourthHomework.sol\":3041:3797  function calculateCurrentState() private view returns(bool) {... */\n    tag_75:\n      swap1\n      jump\t// out\n    tag_65:\n      dup3\n      dup1\n      sload\n      dup3\n      dup3\n      sstore\n      swap1\n      0x00\n      mstore\n      keccak256(0x00, 0x20)\n      swap1\n      dup2\n      add\n      swap3\n      dup3\n      iszero\n      tag_85\n      jumpi\n      swap2\n      0x20\n      mul\n      dup3\n      add\n    tag_86:\n      dup3\n      dup2\n      gt\n      iszero\n      tag_87\n      jumpi\n      dup3\n      mload\n      dup3\n      exp(0x0100, 0x00)\n      dup2\n      sload\n      dup2\n      0xffffffffffffffffffffffffffffffffffffffff\n      mul\n      not\n      and\n      swap1\n      dup4\n      0xffffffffffffffffffffffffffffffffffffffff\n      and\n      mul\n      or\n      swap1\n      sstore\n      pop\n      swap2\n      0x20\n      add\n      swap2\n      swap1\n      0x01\n      add\n      swap1\n      jump(tag_86)\n    tag_87:\n    tag_85:\n      pop\n      swap1\n      pop\n      tag_88\n      swap2\n      swap1\n      tag_89\n      jump\t// in\n    tag_88:\n      pop\n      swap1\n      jump\t// out\n    tag_89:\n    tag_90:\n      dup1\n      dup3\n      gt\n      iszero\n      tag_91\n      jumpi\n      0x00\n      dup2\n      0x00\n      swap1\n      sstore\n      pop\n      0x01\n      add\n      jump(tag_90)\n    tag_91:\n      pop\n      swap1\n      jump\t// out\n        /* \"#utility.yul\":88:205   */\n    tag_93:\n        /* \"#utility.yul\":197:198   */\n      0x00\n        /* \"#utility.yul\":194:195   */\n      dup1\n        /* \"#utility.yul\":187:199   */\n      revert\n        /* \"#utility.yul\":211:328   */\n    tag_94:\n        /* \"#utility.yul\":320:321   */\n      0x00\n        /* \"#utility.yul\":317:318   */\n      dup1\n        /* \"#utility.yul\":310:322   */\n      revert\n        /* \"#utility.yul\":334:460   */\n    tag_95:\n        /* \"#utility.yul\":371:378   */\n      0x00\n        /* \"#utility.yul\":411:453   */\n      0xffffffffffffffffffffffffffffffffffffffff\n        /* \"#utility.yul\":404:409   */\n      dup3\n        /* \"#utility.yul\":400:454   */\n      and\n        /* \"#utility.yul\":389:454   */\n      swap1\n      pop\n        /* \"#utility.yul\":334:460   */\n      swap2\n      swap1\n      pop\n      jump\t// out\n        /* \"#utility.yul\":466:562   */\n    tag_96:\n        /* \"#utility.yul\":503:510   */\n      0x00\n        /* \"#utility.yul\":532:556   */\n      tag_143\n        /* \"#utility.yul\":550:555   */\n      dup3\n        /* \"#utility.yul\":532:556   */\n      tag_95\n      jump\t// in\n    tag_143:\n        /* \"#utility.yul\":521:556   */\n      swap1\n      pop\n        /* \"#utility.yul\":466:562   */\n      swap2\n      swap1\n      pop\n      jump\t// out\n        /* \"#utility.yul\":568:690   */\n    tag_97:\n        /* \"#utility.yul\":641:665   */\n      tag_145\n        /* \"#utility.yul\":659:664   */\n      dup2\n        /* \"#utility.yul\":641:665   */\n      tag_96\n      jump\t// in\n    tag_145:\n        /* \"#utility.yul\":634:639   */\n      dup2\n        /* \"#utility.yul\":631:666   */\n      eq\n        /* \"#utility.yul\":621:684   */\n      tag_146\n      jumpi\n        /* \"#utility.yul\":680:681   */\n      0x00\n        /* \"#utility.yul\":677:678   */\n      dup1\n        /* \"#utility.yul\":670:682   */\n      revert\n        /* \"#utility.yul\":621:684   */\n    tag_146:\n        /* \"#utility.yul\":568:690   */\n      pop\n      jump\t// out\n        /* \"#utility.yul\":696:835   */\n    tag_98:\n        /* \"#utility.yul\":742:747   */\n      0x00\n        /* \"#utility.yul\":780:786   */\n      dup2\n        /* \"#utility.yul\":767:787   */\n      calldataload\n        /* \"#utility.yul\":758:787   */\n      swap1\n      pop\n        /* \"#utility.yul\":796:829   */\n      tag_148\n        /* \"#utility.yul\":823:828   */\n      dup2\n        /* \"#utility.yul\":796:829   */\n      tag_97\n      jump\t// in\n    tag_148:\n        /* \"#utility.yul\":696:835   */\n      swap3\n      swap2\n      pop\n      pop\n      jump\t// out\n        /* \"#utility.yul\":841:1170   */\n    tag_8:\n        /* \"#utility.yul\":900:906   */\n      0x00\n        /* \"#utility.yul\":949:951   */\n      0x20\n        /* \"#utility.yul\":937:946   */\n      dup3\n        /* \"#utility.yul\":928:935   */\n      dup5\n        /* \"#utility.yul\":924:947   */\n      sub\n        /* \"#utility.yul\":920:952   */\n      slt\n        /* \"#utility.yul\":917:1036   */\n      iszero\n      tag_150\n      jumpi\n        /* \"#utility.yul\":955:1034   */\n      tag_151\n      tag_93\n      jump\t// in\n    tag_151:\n        /* \"#utility.yul\":917:1036   */\n    tag_150:\n        /* \"#utility.yul\":1075:1076   */\n      0x00\n        /* \"#utility.yul\":1100:1153   */\n      tag_152\n        /* \"#utility.yul\":1145:1152   */\n      dup5\n        /* \"#utility.yul\":1136:1142   */\n      dup3\n        /* \"#utility.yul\":1125:1134   */\n      dup6\n        /* \"#utility.yul\":1121:1143   */\n      add\n        /* \"#utility.yul\":1100:1153   */\n      tag_98\n      jump\t// in\n    tag_152:\n        /* \"#utility.yul\":1090:1153   */\n      swap2\n      pop\n        /* \"#utility.yul\":1046:1163   */\n      pop\n        /* \"#utility.yul\":841:1170   */\n      swap3\n      swap2\n      pop\n      pop\n      jump\t// out\n        /* \"#utility.yul\":1176:1293   */\n    tag_99:\n        /* \"#utility.yul\":1285:1286   */\n      0x00\n        /* \"#utility.yul\":1282:1283   */\n      dup1\n        /* \"#utility.yul\":1275:1287   */\n      revert\n        /* \"#utility.yul\":1299:1416   */\n    tag_100:\n        /* \"#utility.yul\":1408:1409   */\n      0x00\n        /* \"#utility.yul\":1405:1406   */\n      dup1\n        /* \"#utility.yul\":1398:1410   */\n      revert\n        /* \"#utility.yul\":1422:1539   */\n    tag_101:\n        /* \"#utility.yul\":1531:1532   */\n      0x00\n        /* \"#utility.yul\":1528:1529   */\n      dup1\n        /* \"#utility.yul\":1521:1533   */\n      revert\n        /* \"#utility.yul\":1559:2112   */\n    tag_102:\n        /* \"#utility.yul\":1617:1625   */\n      0x00\n        /* \"#utility.yul\":1627:1633   */\n      dup1\n        /* \"#utility.yul\":1677:1680   */\n      dup4\n        /* \"#utility.yul\":1670:1674   */\n      0x1f\n        /* \"#utility.yul\":1662:1668   */\n      dup5\n        /* \"#utility.yul\":1658:1675   */\n      add\n        /* \"#utility.yul\":1654:1681   */\n      slt\n        /* \"#utility.yul\":1644:1766   */\n      tag_157\n      jumpi\n        /* \"#utility.yul\":1685:1764   */\n      tag_158\n      tag_99\n      jump\t// in\n    tag_158:\n        /* \"#utility.yul\":1644:1766   */\n    tag_157:\n        /* \"#utility.yul\":1798:1804   */\n      dup3\n        /* \"#utility.yul\":1785:1805   */\n      calldataload\n        /* \"#utility.yul\":1775:1805   */\n      swap1\n      pop\n        /* \"#utility.yul\":1828:1846   */\n      0xffffffffffffffff\n        /* \"#utility.yul\":1820:1826   */\n      dup2\n        /* \"#utility.yul\":1817:1847   */\n      gt\n        /* \"#utility.yul\":1814:1931   */\n      iszero\n      tag_159\n      jumpi\n        /* \"#utility.yul\":1850:1929   */\n      tag_160\n      tag_100\n      jump\t// in\n    tag_160:\n        /* \"#utility.yul\":1814:1931   */\n    tag_159:\n        /* \"#utility.yul\":1964:1968   */\n      0x20\n        /* \"#utility.yul\":1956:1962   */\n      dup4\n        /* \"#utility.yul\":1952:1969   */\n      add\n        /* \"#utility.yul\":1940:1969   */\n      swap2\n      pop\n        /* \"#utility.yul\":2018:2021   */\n      dup4\n        /* \"#utility.yul\":2010:2014   */\n      0x01\n        /* \"#utility.yul\":2002:2008   */\n      dup3\n        /* \"#utility.yul\":1998:2015   */\n      mul\n        /* \"#utility.yul\":1988:1996   */\n      dup4\n        /* \"#utility.yul\":1984:2016   */\n      add\n        /* \"#utility.yul\":1981:2022   */\n      gt\n        /* \"#utility.yul\":1978:2106   */\n      iszero\n      tag_161\n      jumpi\n        /* \"#utility.yul\":2025:2104   */\n      tag_162\n      tag_101\n      jump\t// in\n    tag_162:\n        /* \"#utility.yul\":1978:2106   */\n    tag_161:\n        /* \"#utility.yul\":1559:2112   */\n      swap3\n      pop\n      swap3\n      swap1\n      pop\n      jump\t// out\n        /* \"#utility.yul\":2118:2195   */\n    tag_103:\n        /* \"#utility.yul\":2155:2162   */\n      0x00\n        /* \"#utility.yul\":2184:2189   */\n      dup2\n        /* \"#utility.yul\":2173:2189   */\n      swap1\n      pop\n        /* \"#utility.yul\":2118:2195   */\n      swap2\n      swap1\n      pop\n      jump\t// out\n        /* \"#utility.yul\":2201:2323   */\n    tag_104:\n        /* \"#utility.yul\":2274:2298   */\n      tag_165\n        /* \"#utility.yul\":2292:2297   */\n      dup2\n        /* \"#utility.yul\":2274:2298   */\n      tag_103\n      jump\t// in\n    tag_165:\n        /* \"#utility.yul\":2267:2272   */\n      dup2\n        /* \"#utility.yul\":2264:2299   */\n      eq\n        /* \"#utility.yul\":2254:2317   */\n      tag_166\n      jumpi\n        /* \"#utility.yul\":2313:2314   */\n      0x00\n        /* \"#utility.yul\":2310:2311   */\n      dup1\n        /* \"#utility.yul\":2303:2315   */\n      revert\n        /* \"#utility.yul\":2254:2317   */\n    tag_166:\n        /* \"#utility.yul\":2201:2323   */\n      pop\n      jump\t// out\n        /* \"#utility.yul\":2329:2468   */\n    tag_105:\n        /* \"#utility.yul\":2375:2380   */\n      0x00\n        /* \"#utility.yul\":2413:2419   */\n      dup2\n        /* \"#utility.yul\":2400:2420   */\n      calldataload\n        /* \"#utility.yul\":2391:2420   */\n      swap1\n      pop\n        /* \"#utility.yul\":2429:2462   */\n      tag_168\n        /* \"#utility.yul\":2456:2461   */\n      dup2\n        /* \"#utility.yul\":2429:2462   */\n      tag_104\n      jump\t// in\n    tag_168:\n        /* \"#utility.yul\":2329:2468   */\n      swap3\n      swap2\n      pop\n      pop\n      jump\t// out\n        /* \"#utility.yul\":2474:3493   */\n    tag_12:\n        /* \"#utility.yul\":2575:2581   */\n      0x00\n        /* \"#utility.yul\":2583:2589   */\n      dup1\n        /* \"#utility.yul\":2591:2597   */\n      0x00\n        /* \"#utility.yul\":2599:2605   */\n      dup1\n        /* \"#utility.yul\":2607:2613   */\n      0x00\n        /* \"#utility.yul\":2656:2658   */\n      0x60\n        /* \"#utility.yul\":2644:2653   */\n      dup7\n        /* \"#utility.yul\":2635:2642   */\n      dup9\n        /* \"#utility.yul\":2631:2654   */\n      sub\n        /* \"#utility.yul\":2627:2659   */\n      slt\n        /* \"#utility.yul\":2624:2743   */\n      iszero\n      tag_170\n      jumpi\n        /* \"#utility.yul\":2662:2741   */\n      tag_171\n      tag_93\n      jump\t// in\n    tag_171:\n        /* \"#utility.yul\":2624:2743   */\n    tag_170:\n        /* \"#utility.yul\":2810:2811   */\n      0x00\n        /* \"#utility.yul\":2799:2808   */\n      dup7\n        /* \"#utility.yul\":2795:2812   */\n      add\n        /* \"#utility.yul\":2782:2813   */\n      calldataload\n        /* \"#utility.yul\":2840:2858   */\n      0xffffffffffffffff\n        /* \"#utility.yul\":2832:2838   */\n      dup2\n        /* \"#utility.yul\":2829:2859   */\n      gt\n        /* \"#utility.yul\":2826:2943   */\n      iszero\n      tag_172\n      jumpi\n        /* \"#utility.yul\":2862:2941   */\n      tag_173\n      tag_94\n      jump\t// in\n    tag_173:\n        /* \"#utility.yul\":2826:2943   */\n    tag_172:\n        /* \"#utility.yul\":2975:3040   */\n      tag_174\n        /* \"#utility.yul\":3032:3039   */\n      dup9\n        /* \"#utility.yul\":3023:3029   */\n      dup3\n        /* \"#utility.yul\":3012:3021   */\n      dup10\n        /* \"#utility.yul\":3008:3030   */\n      add\n        /* \"#utility.yul\":2975:3040   */\n      tag_102\n      jump\t// in\n    tag_174:\n        /* \"#utility.yul\":2957:3040   */\n      swap6\n      pop\n      swap6\n      pop\n        /* \"#utility.yul\":2753:3050   */\n      pop\n        /* \"#utility.yul\":3117:3119   */\n      0x20\n        /* \"#utility.yul\":3106:3115   */\n      dup7\n        /* \"#utility.yul\":3102:3120   */\n      add\n        /* \"#utility.yul\":3089:3121   */\n      calldataload\n        /* \"#utility.yul\":3148:3166   */\n      0xffffffffffffffff\n        /* \"#utility.yul\":3140:3146   */\n      dup2\n        /* \"#utility.yul\":3137:3167   */\n      gt\n        /* \"#utility.yul\":3134:3251   */\n      iszero\n      tag_175\n      jumpi\n        /* \"#utility.yul\":3170:3249   */\n      tag_176\n      tag_94\n      jump\t// in\n    tag_176:\n        /* \"#utility.yul\":3134:3251   */\n    tag_175:\n        /* \"#utility.yul\":3283:3348   */\n      tag_177\n        /* \"#utility.yul\":3340:3347   */\n      dup9\n        /* \"#utility.yul\":3331:3337   */\n      dup3\n        /* \"#utility.yul\":3320:3329   */\n      dup10\n        /* \"#utility.yul\":3316:3338   */\n      add\n        /* \"#utility.yul\":3283:3348   */\n      tag_102\n      jump\t// in\n    tag_177:\n        /* \"#utility.yul\":3265:3348   */\n      swap4\n      pop\n      swap4\n      pop\n        /* \"#utility.yul\":3060:3358   */\n      pop\n        /* \"#utility.yul\":3397:3399   */\n      0x40\n        /* \"#utility.yul\":3423:3476   */\n      tag_178\n        /* \"#utility.yul\":3468:3475   */\n      dup9\n        /* \"#utility.yul\":3459:3465   */\n      dup3\n        /* \"#utility.yul\":3448:3457   */\n      dup10\n        /* \"#utility.yul\":3444:3466   */\n      add\n        /* \"#utility.yul\":3423:3476   */\n      tag_105\n      jump\t// in\n    tag_178:\n        /* \"#utility.yul\":3413:3476   */\n      swap2\n      pop\n        /* \"#utility.yul\":3368:3486   */\n      pop\n        /* \"#utility.yul\":2474:3493   */\n      swap3\n      swap6\n      pop\n      swap3\n      swap6\n      swap1\n      swap4\n      pop\n      jump\t// out\n        /* \"#utility.yul\":3499:3585   */\n    tag_106:\n        /* \"#utility.yul\":3534:3541   */\n      0x00\n        /* \"#utility.yul\":3574:3578   */\n      0xff\n        /* \"#utility.yul\":3567:3572   */\n      dup3\n        /* \"#utility.yul\":3563:3579   */\n      and\n        /* \"#utility.yul\":3552:3579   */\n      swap1\n      pop\n        /* \"#utility.yul\":3499:3585   */\n      swap2\n      swap1\n      pop\n      jump\t// out\n        /* \"#utility.yul\":3591:3709   */\n    tag_107:\n        /* \"#utility.yul\":3662:3684   */\n      tag_181\n        /* \"#utility.yul\":3678:3683   */\n      dup2\n        /* \"#utility.yul\":3662:3684   */\n      tag_106\n      jump\t// in\n    tag_181:\n        /* \"#utility.yul\":3655:3660   */\n      dup2\n        /* \"#utility.yul\":3652:3685   */\n      eq\n        /* \"#utility.yul\":3642:3703   */\n      tag_182\n      jumpi\n        /* \"#utility.yul\":3699:3700   */\n      0x00\n        /* \"#utility.yul\":3696:3697   */\n      dup1\n        /* \"#utility.yul\":3689:3701   */\n      revert\n        /* \"#utility.yul\":3642:3703   */\n    tag_182:\n        /* \"#utility.yul\":3591:3709   */\n      pop\n      jump\t// out\n        /* \"#utility.yul\":3715:3850   */\n    tag_108:\n        /* \"#utility.yul\":3759:3764   */\n      0x00\n        /* \"#utility.yul\":3797:3803   */\n      dup2\n        /* \"#utility.yul\":3784:3804   */\n      calldataload\n        /* \"#utility.yul\":3775:3804   */\n      swap1\n      pop\n        /* \"#utility.yul\":3813:3844   */\n      tag_184\n        /* \"#utility.yul\":3838:3843   */\n      dup2\n        /* \"#utility.yul\":3813:3844   */\n      tag_107\n      jump\t// in\n    tag_184:\n        /* \"#utility.yul\":3715:3850   */\n      swap3\n      swap2\n      pop\n      pop\n      jump\t// out\n        /* \"#utility.yul\":3856:4181   */\n    tag_16:\n        /* \"#utility.yul\":3913:3919   */\n      0x00\n        /* \"#utility.yul\":3962:3964   */\n      0x20\n        /* \"#utility.yul\":3950:3959   */\n      dup3\n        /* \"#utility.yul\":3941:3948   */\n      dup5\n        /* \"#utility.yul\":3937:3960   */\n      sub\n        /* \"#utility.yul\":3933:3965   */\n      slt\n        /* \"#utility.yul\":3930:4049   */\n      iszero\n      tag_186\n      jumpi\n        /* \"#utility.yul\":3968:4047   */\n      tag_187\n      tag_93\n      jump\t// in\n    tag_187:\n        /* \"#utility.yul\":3930:4049   */\n    tag_186:\n        /* \"#utility.yul\":4088:4089   */\n      0x00\n        /* \"#utility.yul\":4113:4164   */\n      tag_188\n        /* \"#utility.yul\":4156:4163   */\n      dup5\n        /* \"#utility.yul\":4147:4153   */\n      dup3\n        /* \"#utility.yul\":4136:4145   */\n      dup6\n        /* \"#utility.yul\":4132:4154   */\n      add\n        /* \"#utility.yul\":4113:4164   */\n      tag_108\n      jump\t// in\n    tag_188:\n        /* \"#utility.yul\":4103:4164   */\n      swap2\n      pop\n        /* \"#utility.yul\":4059:4174   */\n      pop\n        /* \"#utility.yul\":3856:4181   */\n      swap3\n      swap2\n      pop\n      pop\n      jump\t// out\n        /* \"#utility.yul\":4187:4356   */\n    tag_109:\n        /* \"#utility.yul\":4271:4282   */\n      0x00\n        /* \"#utility.yul\":4305:4311   */\n      dup3\n        /* \"#utility.yul\":4300:4303   */\n      dup3\n        /* \"#utility.yul\":4293:4312   */\n      mstore\n        /* \"#utility.yul\":4345:4349   */\n      0x20\n        /* \"#utility.yul\":4340:4343   */\n      dup3\n        /* \"#utility.yul\":4336:4350   */\n      add\n        /* \"#utility.yul\":4321:4350   */\n      swap1\n      pop\n        /* \"#utility.yul\":4187:4356   */\n      swap3\n      swap2\n      pop\n      pop\n      jump\t// out\n        /* \"#utility.yul\":4362:4586   */\n    tag_110:\n        /* \"#utility.yul\":4502:4536   */\n      0x4f6e6c7920746865206f776e65722063616e2063616c6c20746869732066756e\n        /* \"#utility.yul\":4498:4499   */\n      0x00\n        /* \"#utility.yul\":4490:4496   */\n      dup3\n        /* \"#utility.yul\":4486:4500   */\n      add\n        /* \"#utility.yul\":4479:4537   */\n      mstore\n        /* \"#utility.yul\":4571:4578   */\n      0x6374696f6e000000000000000000000000000000000000000000000000000000\n        /* \"#utility.yul\":4566:4568   */\n      0x20\n        /* \"#utility.yul\":4558:4564   */\n      dup3\n        /* \"#utility.yul\":4554:4569   */\n      add\n        /* \"#utility.yul\":4547:4579   */\n      mstore\n        /* \"#utility.yul\":4362:4586   */\n      pop\n      jump\t// out\n        /* \"#utility.yul\":4592:4958   */\n    tag_111:\n        /* \"#utility.yul\":4734:4737   */\n      0x00\n        /* \"#utility.yul\":4755:4822   */\n      tag_192\n        /* \"#utility.yul\":4819:4821   */\n      0x25\n        /* \"#utility.yul\":4814:4817   */\n      dup4\n        /* \"#utility.yul\":4755:4822   */\n      tag_109\n      jump\t// in\n    tag_192:\n        /* \"#utility.yul\":4748:4822   */\n      swap2\n      pop\n        /* \"#utility.yul\":4831:4924   */\n      tag_193\n        /* \"#utility.yul\":4920:4923   */\n      dup3\n        /* \"#utility.yul\":4831:4924   */\n      tag_110\n      jump\t// in\n    tag_193:\n        /* \"#utility.yul\":4949:4951   */\n      0x40\n        /* \"#utility.yul\":4944:4947   */\n      dup3\n        /* \"#utility.yul\":4940:4952   */\n      add\n        /* \"#utility.yul\":4933:4952   */\n      swap1\n      pop\n        /* \"#utility.yul\":4592:4958   */\n      swap2\n      swap1\n      pop\n      jump\t// out\n        /* \"#utility.yul\":4964:5383   */\n    tag_21:\n        /* \"#utility.yul\":5130:5134   */\n      0x00\n        /* \"#utility.yul\":5168:5170   */\n      0x20\n        /* \"#utility.yul\":5157:5166   */\n      dup3\n        /* \"#utility.yul\":5153:5171   */\n      add\n        /* \"#utility.yul\":5145:5171   */\n      swap1\n      pop\n        /* \"#utility.yul\":5217:5226   */\n      dup2\n        /* \"#utility.yul\":5211:5215   */\n      dup2\n        /* \"#utility.yul\":5207:5227   */\n      sub\n        /* \"#utility.yul\":5203:5204   */\n      0x00\n        /* \"#utility.yul\":5192:5201   */\n      dup4\n        /* \"#utility.yul\":5188:5205   */\n      add\n        /* \"#utility.yul\":5181:5228   */\n      mstore\n        /* \"#utility.yul\":5245:5376   */\n      tag_195\n        /* \"#utility.yul\":5371:5375   */\n      dup2\n        /* \"#utility.yul\":5245:5376   */\n      tag_111\n      jump\t// in\n    tag_195:\n        /* \"#utility.yul\":5237:5376   */\n      swap1\n      pop\n        /* \"#utility.yul\":4964:5383   */\n      swap2\n      swap1\n      pop\n      jump\t// out\n        /* \"#utility.yul\":5389:5569   */\n    tag_112:\n        /* \"#utility.yul\":5437:5514   */\n      0x4e487b7100000000000000000000000000000000000000000000000000000000\n        /* \"#utility.yul\":5434:5435   */\n      0x00\n        /* \"#utility.yul\":5427:5515   */\n      mstore\n        /* \"#utility.yul\":5534:5538   */\n      0x11\n        /* \"#utility.yul\":5531:5532   */\n      0x04\n        /* \"#utility.yul\":5524:5539   */\n      mstore\n        /* \"#utility.yul\":5558:5562   */\n      0x24\n        /* \"#utility.yul\":5555:5556   */\n      0x00\n        /* \"#utility.yul\":5548:5563   */\n      revert\n        /* \"#utility.yul\":5575:5766   */\n    tag_28:\n        /* \"#utility.yul\":5615:5618   */\n      0x00\n        /* \"#utility.yul\":5634:5654   */\n      tag_198\n        /* \"#utility.yul\":5652:5653   */\n      dup3\n        /* \"#utility.yul\":5634:5654   */\n      tag_103\n      jump\t// in\n    tag_198:\n        /* \"#utility.yul\":5629:5654   */\n      swap2\n      pop\n        /* \"#utility.yul\":5668:5688   */\n      tag_199\n        /* \"#utility.yul\":5686:5687   */\n      dup4\n        /* \"#utility.yul\":5668:5688   */\n      tag_103\n      jump\t// in\n    tag_199:\n        /* \"#utility.yul\":5663:5688   */\n      swap3\n      pop\n        /* \"#utility.yul\":5711:5712   */\n      dup3\n        /* \"#utility.yul\":5708:5709   */\n      dup3\n        /* \"#utility.yul\":5704:5713   */\n      add\n        /* \"#utility.yul\":5697:5713   */\n      swap1\n      pop\n        /* \"#utility.yul\":5732:5735   */\n      dup1\n        /* \"#utility.yul\":5729:5730   */\n      dup3\n        /* \"#utility.yul\":5726:5736   */\n      gt\n        /* \"#utility.yul\":5723:5759   */\n      iszero\n      tag_200\n      jumpi\n        /* \"#utility.yul\":5739:5757   */\n      tag_201\n      tag_112\n      jump\t// in\n    tag_201:\n        /* \"#utility.yul\":5723:5759   */\n    tag_200:\n        /* \"#utility.yul\":5575:5766   */\n      swap3\n      swap2\n      pop\n      pop\n      jump\t// out\n        /* \"#utility.yul\":5772:5871   */\n    tag_113:\n        /* \"#utility.yul\":5824:5830   */\n      0x00\n        /* \"#utility.yul\":5858:5863   */\n      dup2\n        /* \"#utility.yul\":5852:5864   */\n      mload\n        /* \"#utility.yul\":5842:5864   */\n      swap1\n      pop\n        /* \"#utility.yul\":5772:5871   */\n      swap2\n      swap1\n      pop\n      jump\t// out\n        /* \"#utility.yul\":5877:6057   */\n    tag_114:\n        /* \"#utility.yul\":5925:6002   */\n      0x4e487b7100000000000000000000000000000000000000000000000000000000\n        /* \"#utility.yul\":5922:5923   */\n      0x00\n        /* \"#utility.yul\":5915:6003   */\n      mstore\n        /* \"#utility.yul\":6022:6026   */\n      0x41\n        /* \"#utility.yul\":6019:6020   */\n      0x04\n        /* \"#utility.yul\":6012:6027   */\n      mstore\n        /* \"#utility.yul\":6046:6050   */\n      0x24\n        /* \"#utility.yul\":6043:6044   */\n      0x00\n        /* \"#utility.yul\":6036:6051   */\n      revert\n        /* \"#utility.yul\":6063:6243   */\n    tag_115:\n        /* \"#utility.yul\":6111:6188   */\n      0x4e487b7100000000000000000000000000000000000000000000000000000000\n        /* \"#utility.yul\":6108:6109   */\n      0x00\n        /* \"#utility.yul\":6101:6189   */\n      mstore\n        /* \"#utility.yul\":6208:6212   */\n      0x22\n        /* \"#utility.yul\":6205:6206   */\n      0x04\n        /* \"#utility.yul\":6198:6213   */\n      mstore\n        /* \"#utility.yul\":6232:6236   */\n      0x24\n        /* \"#utility.yul\":6229:6230   */\n      0x00\n        /* \"#utility.yul\":6222:6237   */\n      revert\n        /* \"#utility.yul\":6249:6569   */\n    tag_116:\n        /* \"#utility.yul\":6293:6299   */\n      0x00\n        /* \"#utility.yul\":6330:6331   */\n      0x02\n        /* \"#utility.yul\":6324:6328   */\n      dup3\n        /* \"#utility.yul\":6320:6332   */\n      div\n        /* \"#utility.yul\":6310:6332   */\n      swap1\n      pop\n        /* \"#utility.yul\":6377:6378   */\n      0x01\n        /* \"#utility.yul\":6371:6375   */\n      dup3\n        /* \"#utility.yul\":6367:6379   */\n      and\n        /* \"#utility.yul\":6398:6416   */\n      dup1\n        /* \"#utility.yul\":6388:6469   */\n      tag_206\n      jumpi\n        /* \"#utility.yul\":6454:6458   */\n      0x7f\n        /* \"#utility.yul\":6446:6452   */\n      dup3\n        /* \"#utility.yul\":6442:6459   */\n      and\n        /* \"#utility.yul\":6432:6459   */\n      swap2\n      pop\n        /* \"#utility.yul\":6388:6469   */\n    tag_206:\n        /* \"#utility.yul\":6516:6518   */\n      0x20\n        /* \"#utility.yul\":6508:6514   */\n      dup3\n        /* \"#utility.yul\":6505:6519   */\n      lt\n        /* \"#utility.yul\":6485:6503   */\n      dup2\n        /* \"#utility.yul\":6482:6520   */\n      sub\n        /* \"#utility.yul\":6479:6563   */\n      tag_207\n      jumpi\n        /* \"#utility.yul\":6535:6553   */\n      tag_208\n      tag_115\n      jump\t// in\n    tag_208:\n        /* \"#utility.yul\":6479:6563   */\n    tag_207:\n        /* \"#utility.yul\":6300:6569   */\n      pop\n        /* \"#utility.yul\":6249:6569   */\n      swap2\n      swap1\n      pop\n      jump\t// out\n        /* \"#utility.yul\":6575:6716   */\n    tag_117:\n        /* \"#utility.yul\":6624:6628   */\n      0x00\n        /* \"#utility.yul\":6647:6650   */\n      dup2\n        /* \"#utility.yul\":6639:6650   */\n      swap1\n      pop\n        /* \"#utility.yul\":6670:6673   */\n      dup2\n        /* \"#utility.yul\":6667:6668   */\n      0x00\n        /* \"#utility.yul\":6660:6674   */\n      mstore\n        /* \"#utility.yul\":6704:6708   */\n      0x20\n        /* \"#utility.yul\":6701:6702   */\n      0x00\n        /* \"#utility.yul\":6691:6709   */\n      keccak256\n        /* \"#utility.yul\":6683:6709   */\n      swap1\n      pop\n        /* \"#utility.yul\":6575:6716   */\n      swap2\n      swap1\n      pop\n      jump\t// out\n        /* \"#utility.yul\":6722:6815   */\n    tag_118:\n        /* \"#utility.yul\":6759:6765   */\n      0x00\n        /* \"#utility.yul\":6806:6808   */\n      0x20\n        /* \"#utility.yul\":6801:6803   */\n      0x1f\n        /* \"#utility.yul\":6794:6799   */\n      dup4\n        /* \"#utility.yul\":6790:6804   */\n      add\n        /* \"#utility.yul\":6786:6809   */\n      div\n        /* \"#utility.yul\":6776:6809   */\n      swap1\n      pop\n        /* \"#utility.yul\":6722:6815   */\n      swap2\n      swap1\n      pop\n      jump\t// out\n        /* \"#utility.yul\":6821:6928   */\n    tag_119:\n        /* \"#utility.yul\":6865:6873   */\n      0x00\n        /* \"#utility.yul\":6915:6920   */\n      dup3\n        /* \"#utility.yul\":6909:6913   */\n      dup3\n        /* \"#utility.yul\":6905:6921   */\n      shl\n        /* \"#utility.yul\":6884:6921   */\n      swap1\n      pop\n        /* \"#utility.yul\":6821:6928   */\n      swap3\n      swap2\n      pop\n      pop\n      jump\t// out\n        /* \"#utility.yul\":6934:7327   */\n    tag_120:\n        /* \"#utility.yul\":7003:7009   */\n      0x00\n        /* \"#utility.yul\":7053:7054   */\n      0x08\n        /* \"#utility.yul\":7041:7051   */\n      dup4\n        /* \"#utility.yul\":7037:7055   */\n      mul\n        /* \"#utility.yul\":7076:7173   */\n      tag_213\n        /* \"#utility.yul\":7106:7172   */\n      0xffffffffffffffffffffffffffffffffffffffffffffffffffffffffffffffff\n        /* \"#utility.yul\":7095:7104   */\n      dup3\n        /* \"#utility.yul\":7076:7173   */\n      tag_119\n      jump\t// in\n    tag_213:\n        /* \"#utility.yul\":7194:7233   */\n      tag_214\n        /* \"#utility.yul\":7224:7232   */\n      dup7\n        /* \"#utility.yul\":7213:7222   */\n      dup4\n        /* \"#utility.yul\":7194:7233   */\n      tag_119\n      jump\t// in\n    tag_214:\n        /* \"#utility.yul\":7182:7233   */\n      swap6\n      pop\n        /* \"#utility.yul\":7266:7270   */\n      dup1\n        /* \"#utility.yul\":7262:7271   */\n      not\n        /* \"#utility.yul\":7255:7260   */\n      dup5\n        /* \"#utility.yul\":7251:7272   */\n      and\n        /* \"#utility.yul\":7242:7272   */\n      swap4\n      pop\n        /* \"#utility.yul\":7315:7319   */\n      dup1\n        /* \"#utility.yul\":7305:7313   */\n      dup7\n        /* \"#utility.yul\":7301:7320   */\n      and\n        /* \"#utility.yul\":7294:7299   */\n      dup5\n        /* \"#utility.yul\":7291:7321   */\n      or\n        /* \"#utility.yul\":7281:7321   */\n      swap3\n      pop\n        /* \"#utility.yul\":7010:7327   */\n      pop\n      pop\n        /* \"#utility.yul\":6934:7327   */\n      swap4\n      swap3\n      pop\n      pop\n      pop\n      jump\t// out\n        /* \"#utility.yul\":7333:7393   */\n    tag_121:\n        /* \"#utility.yul\":7361:7364   */\n      0x00\n        /* \"#utility.yul\":7382:7387   */\n      dup2\n        /* \"#utility.yul\":7375:7387   */\n      swap1\n      pop\n        /* \"#utility.yul\":7333:7393   */\n      swap2\n      swap1\n      pop\n      jump\t// out\n        /* \"#utility.yul\":7399:7541   */\n    tag_122:\n        /* \"#utility.yul\":7449:7458   */\n      0x00\n        /* \"#utility.yul\":7482:7535   */\n      tag_217\n        /* \"#utility.yul\":7500:7534   */\n      tag_218\n        /* \"#utility.yul\":7509:7533   */\n      tag_219\n        /* \"#utility.yul\":7527:7532   */\n      dup5\n        /* \"#utility.yul\":7509:7533   */\n      tag_103\n      jump\t// in\n    tag_219:\n        /* \"#utility.yul\":7500:7534   */\n      tag_121\n      jump\t// in\n    tag_218:\n        /* \"#utility.yul\":7482:7535   */\n      tag_103\n      jump\t// in\n    tag_217:\n        /* \"#utility.yul\":7469:7535   */\n      swap1\n      pop\n        /* \"#utility.yul\":7399:7541   */\n      swap2\n      swap1\n      pop\n      jump\t// out\n        /* \"#utility.yul\":7547:7622   */\n    tag_123:\n        /* \"#utility.yul\":7590:7593   */\n      0x00\n        /* \"#utility.yul\":7611:7616   */\n      dup2\n        /* \"#utility.yul\":7604:7616   */\n      swap1\n      pop\n        /* \"#utility.yul\":7547:7622   */\n      swap2\n      swap1\n      pop\n      jump\t// out\n        /* \"#utility.yul\":7628:7897   */\n    tag_124:\n        /* \"#utility.yul\":7738:7777   */\n      tag_222\n        /* \"#utility.yul\":7769:7776   */\n      dup4\n        /* \"#utility.yul\":7738:7777   */\n      tag_122\n      jump\t// in\n    tag_222:\n        /* \"#utility.yul\":7799:7890   */\n      tag_223\n        /* \"#utility.yul\":7848:7889   */\n      tag_224\n        /* \"#utility.yul\":7872:7888   */\n      dup3\n        /* \"#utility.yul\":7848:7889   */\n      tag_123\n      jump\t// in\n    tag_224:\n        /* \"#utility.yul\":7840:7846   */\n      dup5\n        /* \"#utility.yul\":7833:7837   */\n      dup5\n        /* \"#utility.yul\":7827:7838   */\n      sload\n        /* \"#utility.yul\":7799:7890   */\n      tag_120\n      jump\t// in\n    tag_223:\n        /* \"#utility.yul\":7793:7797   */\n      dup3\n        /* \"#utility.yul\":7786:7891   */\n      sstore\n        /* \"#utility.yul\":7704:7897   */\n      pop\n        /* \"#utility.yul\":7628:7897   */\n      pop\n      pop\n      pop\n      jump\t// out\n        /* \"#utility.yul\":7903:7976   */\n    tag_125:\n        /* \"#utility.yul\":7948:7951   */\n      0x00\n        /* \"#utility.yul\":7903:7976   */\n      swap1\n      jump\t// out\n        /* \"#utility.yul\":7982:8171   */\n    tag_126:\n        /* \"#utility.yul\":8059:8091   */\n      tag_227\n      tag_125\n      jump\t// in\n    tag_227:\n        /* \"#utility.yul\":8100:8165   */\n      tag_228\n        /* \"#utility.yul\":8158:8164   */\n      dup2\n        /* \"#utility.yul\":8150:8156   */\n      dup5\n        /* \"#utility.yul\":8144:8148   */\n      dup5\n        /* \"#utility.yul\":8100:8165   */\n      tag_124\n      jump\t// in\n    tag_228:\n        /* \"#utility.yul\":8035:8171   */\n      pop\n        /* \"#utility.yul\":7982:8171   */\n      pop\n      pop\n      jump\t// out\n        /* \"#utility.yul\":8177:8363   */\n    tag_127:\n        /* \"#utility.yul\":8237:8357   */\n    tag_230:\n        /* \"#utility.yul\":8254:8257   */\n      dup2\n        /* \"#utility.yul\":8247:8252   */\n      dup2\n        /* \"#utility.yul\":8244:8258   */\n      lt\n        /* \"#utility.yul\":8237:8357   */\n      iszero\n      tag_232\n      jumpi\n        /* \"#utility.yul\":8308:8347   */\n      tag_233\n        /* \"#utility.yul\":8345:8346   */\n      0x00\n        /* \"#utility.yul\":8338:8343   */\n      dup3\n        /* \"#utility.yul\":8308:8347   */\n      tag_126\n      jump\t// in\n    tag_233:\n        /* \"#utility.yul\":8281:8282   */\n      0x01\n        /* \"#utility.yul\":8274:8279   */\n      dup2\n        /* \"#utility.yul\":8270:8283   */\n      add\n        /* \"#utility.yul\":8261:8283   */\n      swap1\n      pop\n        /* \"#utility.yul\":8237:8357   */\n      jump(tag_230)\n    tag_232:\n        /* \"#utility.yul\":8177:8363   */\n      pop\n      pop\n      jump\t// out\n        /* \"#utility.yul\":8369:8912   */\n    tag_128:\n        /* \"#utility.yul\":8470:8472   */\n      0x1f\n        /* \"#utility.yul\":8465:8468   */\n      dup3\n        /* \"#utility.yul\":8462:8473   */\n      gt\n        /* \"#utility.yul\":8459:8905   */\n      iszero\n      tag_235\n      jumpi\n        /* \"#utility.yul\":8504:8542   */\n      tag_236\n        /* \"#utility.yul\":8536:8541   */\n      dup2\n        /* \"#utility.yul\":8504:8542   */\n      tag_117\n      jump\t// in\n    tag_236:\n        /* \"#utility.yul\":8588:8617   */\n      tag_237\n        /* \"#utility.yul\":8606:8616   */\n      dup5\n        /* \"#utility.yul\":8588:8617   */\n      tag_118\n      jump\t// in\n    tag_237:\n        /* \"#utility.yul\":8578:8586   */\n      dup2\n        /* \"#utility.yul\":8574:8618   */\n      add\n        /* \"#utility.yul\":8771:8773   */\n      0x20\n        /* \"#utility.yul\":8759:8769   */\n      dup6\n        /* \"#utility.yul\":8756:8774   */\n      lt\n        /* \"#utility.yul\":8753:8802   */\n      iszero\n      tag_238\n      jumpi\n        /* \"#utility.yul\":8792:8800   */\n      dup2\n        /* \"#utility.yul\":8777:8800   */\n      swap1\n      pop\n        /* \"#utility.yul\":8753:8802   */\n    tag_238:\n        /* \"#utility.yul\":8815:8895   */\n      tag_239\n        /* \"#utility.yul\":8871:8893   */\n      tag_240\n        /* \"#utility.yul\":8889:8892   */\n      dup6\n        /* \"#utility.yul\":8871:8893   */\n      tag_118\n      jump\t// in\n    tag_240:\n        /* \"#utility.yul\":8861:8869   */\n      dup4\n        /* \"#utility.yul\":8857:8894   */\n      add\n        /* \"#utility.yul\":8844:8855   */\n      dup3\n        /* \"#utility.yul\":8815:8895   */\n      tag_127\n      jump\t// in\n    tag_239:\n        /* \"#utility.yul\":8474:8905   */\n      pop\n      pop\n        /* \"#utility.yul\":8459:8905   */\n    tag_235:\n        /* \"#utility.yul\":8369:8912   */\n      pop\n      pop\n      pop\n      jump\t// out\n        /* \"#utility.yul\":8918:9035   */\n    tag_129:\n        /* \"#utility.yul\":8972:8980   */\n      0x00\n        /* \"#utility.yul\":9022:9027   */\n      dup3\n        /* \"#utility.yul\":9016:9020   */\n      dup3\n        /* \"#utility.yul\":9012:9028   */\n      shr\n        /* \"#utility.yul\":8991:9028   */\n      swap1\n      pop\n        /* \"#utility.yul\":8918:9035   */\n      swap3\n      swap2\n      pop\n      pop\n      jump\t// out\n        /* \"#utility.yul\":9041:9210   */\n    tag_130:\n        /* \"#utility.yul\":9085:9091   */\n      0x00\n        /* \"#utility.yul\":9118:9169   */\n      tag_243\n        /* \"#utility.yul\":9166:9167   */\n      0x00\n        /* \"#utility.yul\":9162:9168   */\n      not\n        /* \"#utility.yul\":9154:9159   */\n      dup5\n        /* \"#utility.yul\":9151:9152   */\n      0x08\n        /* \"#utility.yul\":9147:9160   */\n      mul\n        /* \"#utility.yul\":9118:9169   */\n      tag_129\n      jump\t// in\n    tag_243:\n        /* \"#utility.yul\":9114:9170   */\n      not\n        /* \"#utility.yul\":9199:9203   */\n      dup1\n        /* \"#utility.yul\":9193:9197   */\n      dup4\n        /* \"#utility.yul\":9189:9204   */\n      and\n        /* \"#utility.yul\":9179:9204   */\n      swap2\n      pop\n        /* \"#utility.yul\":9092:9210   */\n      pop\n        /* \"#utility.yul\":9041:9210   */\n      swap3\n      swap2\n      pop\n      pop\n      jump\t// out\n        /* \"#utility.yul\":9215:9510   */\n    tag_131:\n        /* \"#utility.yul\":9291:9295   */\n      0x00\n        /* \"#utility.yul\":9437:9466   */\n      tag_245\n        /* \"#utility.yul\":9462:9465   */\n      dup4\n        /* \"#utility.yul\":9456:9460   */\n      dup4\n        /* \"#utility.yul\":9437:9466   */\n      tag_130\n      jump\t// in\n    tag_245:\n        /* \"#utility.yul\":9429:9466   */\n      swap2\n      pop\n        /* \"#utility.yul\":9499:9502   */\n      dup3\n        /* \"#utility.yul\":9496:9497   */\n      0x02\n        /* \"#utility.yul\":9492:9503   */\n      mul\n        /* \"#utility.yul\":9486:9490   */\n      dup3\n        /* \"#utility.yul\":9483:9504   */\n      or\n        /* \"#utility.yul\":9475:9504   */\n      swap1\n      pop\n        /* \"#utility.yul\":9215:9510   */\n      swap3\n      swap2\n      pop\n      pop\n      jump\t// out\n        /* \"#utility.yul\":9515:10910   */\n    tag_30:\n        /* \"#utility.yul\":9632:9669   */\n      tag_247\n        /* \"#utility.yul\":9665:9668   */\n      dup3\n        /* \"#utility.yul\":9632:9669   */\n      tag_113\n      jump\t// in\n    tag_247:\n        /* \"#utility.yul\":9734:9752   */\n      0xffffffffffffffff\n        /* \"#utility.yul\":9726:9732   */\n      dup2\n        /* \"#utility.yul\":9723:9753   */\n      gt\n        /* \"#utility.yul\":9720:9776   */\n      iszero\n      tag_248\n      jumpi\n        /* \"#utility.yul\":9756:9774   */\n      tag_249\n      tag_114\n      jump\t// in\n    tag_249:\n        /* \"#utility.yul\":9720:9776   */\n    tag_248:\n        /* \"#utility.yul\":9800:9838   */\n      tag_250\n        /* \"#utility.yul\":9832:9836   */\n      dup3\n        /* \"#utility.yul\":9826:9837   */\n      sload\n        /* \"#utility.yul\":9800:9838   */\n      tag_116\n      jump\t// in\n    tag_250:\n        /* \"#utility.yul\":9885:9952   */\n      tag_251\n        /* \"#utility.yul\":9945:9951   */\n      dup3\n        /* \"#utility.yul\":9937:9943   */\n      dup3\n        /* \"#utility.yul\":9931:9935   */\n      dup6\n        /* \"#utility.yul\":9885:9952   */\n      tag_128\n      jump\t// in\n    tag_251:\n        /* \"#utility.yul\":9979:9980   */\n      0x00\n        /* \"#utility.yul\":10003:10007   */\n      0x20\n        /* \"#utility.yul\":9990:10007   */\n      swap1\n      pop\n        /* \"#utility.yul\":10035:10037   */\n      0x1f\n        /* \"#utility.yul\":10027:10033   */\n      dup4\n        /* \"#utility.yul\":10024:10038   */\n      gt\n        /* \"#utility.yul\":10052:10053   */\n      0x01\n        /* \"#utility.yul\":10047:10665   */\n      dup2\n      eq\n      tag_253\n      jumpi\n        /* \"#utility.yul\":10709:10710   */\n      0x00\n        /* \"#utility.yul\":10726:10732   */\n      dup5\n        /* \"#utility.yul\":10723:10800   */\n      iszero\n      tag_254\n      jumpi\n        /* \"#utility.yul\":10775:10784   */\n      dup3\n        /* \"#utility.yul\":10770:10773   */\n      dup8\n        /* \"#utility.yul\":10766:10785   */\n      add\n        /* \"#utility.yul\":10760:10786   */\n      mload\n        /* \"#utility.yul\":10751:10786   */\n      swap1\n      pop\n        /* \"#utility.yul\":10723:10800   */\n    tag_254:\n        /* \"#utility.yul\":10826:10893   */\n      tag_255\n        /* \"#utility.yul\":10886:10892   */\n      dup6\n        /* \"#utility.yul\":10879:10884   */\n      dup3\n        /* \"#utility.yul\":10826:10893   */\n      tag_131\n      jump\t// in\n    tag_255:\n        /* \"#utility.yul\":10820:10824   */\n      dup7\n        /* \"#utility.yul\":10813:10894   */\n      sstore\n        /* \"#utility.yul\":10682:10904   */\n      pop\n        /* \"#utility.yul\":10017:10904   */\n      jump(tag_252)\n        /* \"#utility.yul\":10047:10665   */\n    tag_253:\n        /* \"#utility.yul\":10099:10103   */\n      0x1f\n        /* \"#utility.yul\":10095:10104   */\n      not\n        /* \"#utility.yul\":10087:10093   */\n      dup5\n        /* \"#utility.yul\":10083:10105   */\n      and\n        /* \"#utility.yul\":10133:10170   */\n      tag_256\n        /* \"#utility.yul\":10165:10169   */\n      dup7\n        /* \"#utility.yul\":10133:10170   */\n      tag_117\n      jump\t// in\n    tag_256:\n        /* \"#utility.yul\":10192:10193   */\n      0x00\n        /* \"#utility.yul\":10206:10414   */\n    tag_257:\n        /* \"#utility.yul\":10220:10227   */\n      dup3\n        /* \"#utility.yul\":10217:10218   */\n      dup2\n        /* \"#utility.yul\":10214:10228   */\n      lt\n        /* \"#utility.yul\":10206:10414   */\n      iszero\n      tag_259\n      jumpi\n        /* \"#utility.yul\":10299:10308   */\n      dup5\n        /* \"#utility.yul\":10294:10297   */\n      dup10\n        /* \"#utility.yul\":10290:10309   */\n      add\n        /* \"#utility.yul\":10284:10310   */\n      mload\n        /* \"#utility.yul\":10276:10282   */\n      dup3\n        /* \"#utility.yul\":10269:10311   */\n      sstore\n        /* \"#utility.yul\":10350:10351   */\n      0x01\n        /* \"#utility.yul\":10342:10348   */\n      dup3\n        /* \"#utility.yul\":10338:10352   */\n      add\n        /* \"#utility.yul\":10328:10352   */\n      swap2\n      pop\n        /* \"#utility.yul\":10397:10399   */\n      0x20\n        /* \"#utility.yul\":10386:10395   */\n      dup6\n        /* \"#utility.yul\":10382:10400   */\n      add\n        /* \"#utility.yul\":10369:10400   */\n      swap5\n      pop\n        /* \"#utility.yul\":10243:10247   */\n      0x20\n        /* \"#utility.yul\":10240:10241   */\n      dup2\n        /* \"#utility.yul\":10236:10248   */\n      add\n        /* \"#utility.yul\":10231:10248   */\n      swap1\n      pop\n        /* \"#utility.yul\":10206:10414   */\n      jump(tag_257)\n    tag_259:\n        /* \"#utility.yul\":10442:10448   */\n      dup7\n        /* \"#utility.yul\":10433:10440   */\n      dup4\n        /* \"#utility.yul\":10430:10449   */\n      lt\n        /* \"#utility.yul\":10427:10606   */\n      iszero\n      tag_260\n      jumpi\n        /* \"#utility.yul\":10500:10509   */\n      dup5\n        /* \"#utility.yul\":10495:10498   */\n      dup10\n        /* \"#utility.yul\":10491:10510   */\n      add\n        /* \"#utility.yul\":10485:10511   */\n      mload\n        /* \"#utility.yul\":10543:10591   */\n      tag_261\n        /* \"#utility.yul\":10585:10589   */\n      0x1f\n        /* \"#utility.yul\":10577:10583   */\n      dup10\n        /* \"#utility.yul\":10573:10590   */\n      and\n        /* \"#utility.yul\":10562:10571   */\n      dup3\n        /* \"#utility.yul\":10543:10591   */\n      tag_130\n      jump\t// in\n    tag_261:\n        /* \"#utility.yul\":10535:10541   */\n      dup4\n        /* \"#utility.yul\":10528:10592   */\n      sstore\n        /* \"#utility.yul\":10450:10606   */\n      pop\n        /* \"#utility.yul\":10427:10606   */\n    tag_260:\n        /* \"#utility.yul\":10652:10653   */\n      0x01\n        /* \"#utility.yul\":10648:10649   */\n      0x02\n        /* \"#utility.yul\":10640:10646   */\n      dup9\n        /* \"#utility.yul\":10636:10650   */\n      mul\n        /* \"#utility.yul\":10632:10654   */\n      add\n        /* \"#utility.yul\":10626:10630   */\n      dup9\n        /* \"#utility.yul\":10619:10655   */\n      sstore\n        /* \"#utility.yul\":10054:10665   */\n      pop\n      pop\n      pop\n        /* \"#utility.yul\":10017:10904   */\n    tag_252:\n      pop\n        /* \"#utility.yul\":9607:10910   */\n      pop\n      pop\n      pop\n        /* \"#utility.yul\":9515:10910   */\n      pop\n      pop\n      jump\t// out\n        /* \"#utility.yul\":10916:11092   */\n    tag_132:\n        /* \"#utility.yul\":11056:11084   */\n      0x5468652070726f706f73616c206973206e6f7420616374697665000000000000\n        /* \"#utility.yul\":11052:11053   */\n      0x00\n        /* \"#utility.yul\":11044:11050   */\n      dup3\n        /* \"#utility.yul\":11040:11054   */\n      add\n        /* \"#utility.yul\":11033:11085   */\n      mstore\n        /* \"#utility.yul\":10916:11092   */\n      pop\n      jump\t// out\n        /* \"#utility.yul\":11098:11464   */\n    tag_133:\n        /* \"#utility.yul\":11240:11243   */\n      0x00\n        /* \"#utility.yul\":11261:11328   */\n      tag_264\n        /* \"#utility.yul\":11325:11327   */\n      0x1a\n        /* \"#utility.yul\":11320:11323   */\n      dup4\n        /* \"#utility.yul\":11261:11328   */\n      tag_109\n      jump\t// in\n    tag_264:\n        /* \"#utility.yul\":11254:11328   */\n      swap2\n      pop\n        /* \"#utility.yul\":11337:11430   */\n      tag_265\n        /* \"#utility.yul\":11426:11429   */\n      dup3\n        /* \"#utility.yul\":11337:11430   */\n      tag_132\n      jump\t// in\n    tag_265:\n        /* \"#utility.yul\":11455:11457   */\n      0x20\n        /* \"#utility.yul\":11450:11453   */\n      dup3\n        /* \"#utility.yul\":11446:11458   */\n      add\n        /* \"#utility.yul\":11439:11458   */\n      swap1\n      pop\n        /* \"#utility.yul\":11098:11464   */\n      swap2\n      swap1\n      pop\n      jump\t// out\n        /* \"#utility.yul\":11470:11889   */\n    tag_35:\n        /* \"#utility.yul\":11636:11640   */\n      0x00\n        /* \"#utility.yul\":11674:11676   */\n      0x20\n        /* \"#utility.yul\":11663:11672   */\n      dup3\n        /* \"#utility.yul\":11659:11677   */\n      add\n        /* \"#utility.yul\":11651:11677   */\n      swap1\n      pop\n        /* \"#utility.yul\":11723:11732   */\n      dup2\n        /* \"#utility.yul\":11717:11721   */\n      dup2\n        /* \"#utility.yul\":11713:11733   */\n      sub\n        /* \"#utility.yul\":11709:11710   */\n      0x00\n        /* \"#utility.yul\":11698:11707   */\n      dup4\n        /* \"#utility.yul\":11694:11711   */\n      add\n        /* \"#utility.yul\":11687:11734   */\n      mstore\n        /* \"#utility.yul\":11751:11882   */\n      tag_267\n        /* \"#utility.yul\":11877:11881   */\n      dup2\n        /* \"#utility.yul\":11751:11882   */\n      tag_133\n      jump\t// in\n    tag_267:\n        /* \"#utility.yul\":11743:11882   */\n      swap1\n      pop\n        /* \"#utility.yul\":11470:11889   */\n      swap2\n      swap1\n      pop\n      jump\t// out\n        /* \"#utility.yul\":11895:12070   */\n    tag_134:\n        /* \"#utility.yul\":12035:12062   */\n      0x416464726573732068617320616c726561647920766f74656400000000000000\n        /* \"#utility.yul\":12031:12032   */\n      0x00\n        /* \"#utility.yul\":12023:12029   */\n      dup3\n        /* \"#utility.yul\":12019:12033   */\n      add\n        /* \"#utility.yul\":12012:12063   */\n      mstore\n        /* \"#utility.yul\":11895:12070   */\n      pop\n      jump\t// out\n        /* \"#utility.yul\":12076:12442   */\n    tag_135:\n        /* \"#utility.yul\":12218:12221   */\n      0x00\n        /* \"#utility.yul\":12239:12306   */\n      tag_270\n        /* \"#utility.yul\":12303:12305   */\n      0x19\n        /* \"#utility.yul\":12298:12301   */\n      dup4\n        /* \"#utility.yul\":12239:12306   */\n      tag_109\n      jump\t// in\n    tag_270:\n        /* \"#utility.yul\":12232:12306   */\n      swap2\n      pop\n        /* \"#utility.yul\":12315:12408   */\n      tag_271\n        /* \"#utility.yul\":12404:12407   */\n      dup3\n        /* \"#utility.yul\":12315:12408   */\n      tag_134\n      jump\t// in\n    tag_271:\n        /* \"#utility.yul\":12433:12435   */\n      0x20\n        /* \"#utility.yul\":12428:12431   */\n      dup3\n        /* \"#utility.yul\":12424:12436   */\n      add\n        /* \"#utility.yul\":12417:12436   */\n      swap1\n      pop\n        /* \"#utility.yul\":12076:12442   */\n      swap2\n      swap1\n      pop\n      jump\t// out\n        /* \"#utility.yul\":12448:12867   */\n    tag_41:\n        /* \"#utility.yul\":12614:12618   */\n      0x00\n        /* \"#utility.yul\":12652:12654   */\n      0x20\n        /* \"#utility.yul\":12641:12650   */\n      dup3\n        /* \"#utility.yul\":12637:12655   */\n      add\n        /* \"#utility.yul\":12629:12655   */\n      swap1\n      pop\n        /* \"#utility.yul\":12701:12710   */\n      dup2\n        /* \"#utility.yul\":12695:12699   */\n      dup2\n        /* \"#utility.yul\":12691:12711   */\n      sub\n        /* \"#utility.yul\":12687:12688   */\n      0x00\n        /* \"#utility.yul\":12676:12685   */\n      dup4\n        /* \"#utility.yul\":12672:12689   */\n      add\n        /* \"#utility.yul\":12665:12712   */\n      mstore\n        /* \"#utility.yul\":12729:12860   */\n      tag_273\n        /* \"#utility.yul\":12855:12859   */\n      dup2\n        /* \"#utility.yul\":12729:12860   */\n      tag_135\n      jump\t// in\n    tag_273:\n        /* \"#utility.yul\":12721:12860   */\n      swap1\n      pop\n        /* \"#utility.yul\":12448:12867   */\n      swap2\n      swap1\n      pop\n      jump\t// out\n        /* \"#utility.yul\":12873:13067   */\n    tag_59:\n        /* \"#utility.yul\":12913:12917   */\n      0x00\n        /* \"#utility.yul\":12933:12953   */\n      tag_275\n        /* \"#utility.yul\":12951:12952   */\n      dup3\n        /* \"#utility.yul\":12933:12953   */\n      tag_103\n      jump\t// in\n    tag_275:\n        /* \"#utility.yul\":12928:12953   */\n      swap2\n      pop\n        /* \"#utility.yul\":12967:12987   */\n      tag_276\n        /* \"#utility.yul\":12985:12986   */\n      dup4\n        /* \"#utility.yul\":12967:12987   */\n      tag_103\n      jump\t// in\n    tag_276:\n        /* \"#utility.yul\":12962:12987   */\n      swap3\n      pop\n        /* \"#utility.yul\":13011:13012   */\n      dup3\n        /* \"#utility.yul\":13008:13009   */\n      dup3\n        /* \"#utility.yul\":13004:13013   */\n      sub\n        /* \"#utility.yul\":12996:13013   */\n      swap1\n      pop\n        /* \"#utility.yul\":13035:13036   */\n      dup2\n        /* \"#utility.yul\":13029:13033   */\n      dup2\n        /* \"#utility.yul\":13026:13037   */\n      gt\n        /* \"#utility.yul\":13023:13060   */\n      iszero\n      tag_277\n      jumpi\n        /* \"#utility.yul\":13040:13058   */\n      tag_278\n      tag_112\n      jump\t// in\n    tag_278:\n        /* \"#utility.yul\":13023:13060   */\n    tag_277:\n        /* \"#utility.yul\":12873:13067   */\n      swap3\n      swap2\n      pop\n      pop\n      jump\t// out\n        /* \"#utility.yul\":13073:13253   */\n    tag_72:\n        /* \"#utility.yul\":13121:13198   */\n      0x4e487b7100000000000000000000000000000000000000000000000000000000\n        /* \"#utility.yul\":13118:13119   */\n      0x00\n        /* \"#utility.yul\":13111:13199   */\n      mstore\n        /* \"#utility.yul\":13218:13222   */\n      0x32\n        /* \"#utility.yul\":13215:13216   */\n      0x04\n        /* \"#utility.yul\":13208:13223   */\n      mstore\n        /* \"#utility.yul\":13242:13246   */\n      0x24\n        /* \"#utility.yul\":13239:13240   */\n      0x00\n        /* \"#utility.yul\":13232:13247   */\n      revert\n        /* \"#utility.yul\":13259:13669   */\n    tag_79:\n        /* \"#utility.yul\":13299:13306   */\n      0x00\n        /* \"#utility.yul\":13322:13342   */\n      tag_281\n        /* \"#utility.yul\":13340:13341   */\n      dup3\n        /* \"#utility.yul\":13322:13342   */\n      tag_103\n      jump\t// in\n    tag_281:\n        /* \"#utility.yul\":13317:13342   */\n      swap2\n      pop\n        /* \"#utility.yul\":13356:13376   */\n      tag_282\n        /* \"#utility.yul\":13374:13375   */\n      dup4\n        /* \"#utility.yul\":13356:13376   */\n      tag_103\n      jump\t// in\n    tag_282:\n        /* \"#utility.yul\":13351:13376   */\n      swap3\n      pop\n        /* \"#utility.yul\":13411:13412   */\n      dup3\n        /* \"#utility.yul\":13408:13409   */\n      dup3\n        /* \"#utility.yul\":13404:13413   */\n      mul\n        /* \"#utility.yul\":13433:13463   */\n      tag_283\n        /* \"#utility.yul\":13451:13462   */\n      dup2\n        /* \"#utility.yul\":13433:13463   */\n      tag_103\n      jump\t// in\n    tag_283:\n        /* \"#utility.yul\":13422:13463   */\n      swap2\n      pop\n        /* \"#utility.yul\":13612:13613   */\n      dup3\n        /* \"#utility.yul\":13603:13610   */\n      dup3\n        /* \"#utility.yul\":13599:13614   */\n      div\n        /* \"#utility.yul\":13596:13597   */\n      dup5\n        /* \"#utility.yul\":13593:13615   */\n      eq\n        /* \"#utility.yul\":13573:13574   */\n      dup4\n        /* \"#utility.yul\":13566:13575   */\n      iszero\n        /* \"#utility.yul\":13546:13629   */\n      or\n        /* \"#utility.yul\":13523:13662   */\n      tag_284\n      jumpi\n        /* \"#utility.yul\":13642:13660   */\n      tag_285\n      tag_112\n      jump\t// in\n    tag_285:\n        /* \"#utility.yul\":13523:13662   */\n    tag_284:\n        /* \"#utility.yul\":13307:13669   */\n      pop\n        /* \"#utility.yul\":13259:13669   */\n      swap3\n      swap2\n      pop\n      pop\n      jump\t// out\n        /* \"#utility.yul\":13675:13855   */\n    tag_136:\n        /* \"#utility.yul\":13723:13800   */\n      0x4e487b7100000000000000000000000000000000000000000000000000000000\n        /* \"#utility.yul\":13720:13721   */\n      0x00\n        /* \"#utility.yul\":13713:13801   */\n      mstore\n        /* \"#utility.yul\":13820:13824   */\n      0x12\n        /* \"#utility.yul\":13817:13818   */\n      0x04\n        /* \"#utility.yul\":13810:13825   */\n      mstore\n        /* \"#utility.yul\":13844:13848   */\n      0x24\n        /* \"#utility.yul\":13841:13842   */\n      0x00\n        /* \"#utility.yul\":13834:13849   */\n      revert\n        /* \"#utility.yul\":13861:14046   */\n    tag_81:\n        /* \"#utility.yul\":13901:13902   */\n      0x00\n        /* \"#utility.yul\":13918:13938   */\n      tag_288\n        /* \"#utility.yul\":13936:13937   */\n      dup3\n        /* \"#utility.yul\":13918:13938   */\n      tag_103\n      jump\t// in\n    tag_288:\n        /* \"#utility.yul\":13913:13938   */\n      swap2\n      pop\n        /* \"#utility.yul\":13952:13972   */\n      tag_289\n        /* \"#utility.yul\":13970:13971   */\n      dup4\n        /* \"#utility.yul\":13952:13972   */\n      tag_103\n      jump\t// in\n    tag_289:\n        /* \"#utility.yul\":13947:13972   */\n      swap3\n      pop\n        /* \"#utility.yul\":13991:13992   */\n      dup3\n        /* \"#utility.yul\":13981:14016   */\n      tag_290\n      jumpi\n        /* \"#utility.yul\":13996:14014   */\n      tag_291\n      tag_136\n      jump\t// in\n    tag_291:\n        /* \"#utility.yul\":13981:14016   */\n    tag_290:\n        /* \"#utility.yul\":14038:14039   */\n      dup3\n        /* \"#utility.yul\":14035:14036   */\n      dup3\n        /* \"#utility.yul\":14031:14040   */\n      div\n        /* \"#utility.yul\":14026:14040   */\n      swap1\n      pop\n        /* \"#utility.yul\":13861:14046   */\n      swap3\n      swap2\n      pop\n      pop\n      jump\t// out\n\n    auxdata: 0xa2646970667358221220a32c4fa0707724424b9d688df68ce5fdabc6ce2bc30098440f1b0403fdf8ee8864736f6c634300081a0033\n}\n",
				"bytecode": {
					"linkReferences": {},
					"object": "6080604052348015600e575f80fd5b50335f806101000a81548173ffffffffffffffffffffffffffffffffffffffff021916908373ffffffffffffffffffffffffffffffffffffffff160217905550600333908060018154018082558091505060019003905f5260205f20015f9091909190916101000a81548173ffffffffffffffffffffffffffffffffffffffff021916908373ffffffffffffffffffffffffffffffffffffffff160217905550611070806100bb5f395ff3fe608060405234801561000f575f80fd5b506004361061003f575f3560e01c806313af4035146100435780633ca6d1001461005f578063b3f98adc1461007b575b5f80fd5b61005d600480360381019061005891906108bd565b610097565b005b6100796004803603810190610074919061097c565b610166565b005b61009560048036038101906100909190610a43565b61037e565b005b5f8054906101000a900473ffffffffffffffffffffffffffffffffffffffff1673ffffffffffffffffffffffffffffffffffffffff163373ffffffffffffffffffffffffffffffffffffffff1614610124576040517f08c379a000000000000000000000000000000000000000000000000000000000815260040161011b90610aee565b60405180910390fd5b805f806101000a81548173ffffffffffffffffffffffffffffffffffffffff021916908373ffffffffffffffffffffffffffffffffffffffff16021790555050565b5f8054906101000a900473ffffffffffffffffffffffffffffffffffffffff1673ffffffffffffffffffffffffffffffffffffffff163373ffffffffffffffffffffffffffffffffffffffff16146101f3576040517f08c379a00000000000000000000000000000000000000000000000000000000081526004016101ea90610aee565b60405180910390fd5b6001805f8282546102049190610b39565b9250508190555060405180610100016040528086868080601f0160208091040260200160405190810160405280939291908181526020018383808284375f81840152601f19601f82011690508083019250505050505050815260200184848080601f0160208091040260200160405190810160405280939291908181526020018383808284375f81840152601f19601f8201169050808301925050505050505081526020015f81526020015f81526020015f81526020018281526020015f151581526020016001151581525060025f60015481526020019081526020015f205f820151815f0190816102f69190610d9d565b50602082015181600101908161030c9190610d9d565b5060408201518160020155606082015181600301556080820151816004015560a0820151816005015560c0820151816006015f6101000a81548160ff02191690831515021790555060e08201518160060160016101000a81548160ff0219169083151502179055509050505050505050565b6001151560025f60015481526020019081526020015f2060060160019054906101000a900460ff161515146103e8576040517f08c379a00000000000000000000000000000000000000000000000000000000081526004016103df90610eb6565b60405180910390fd5b336103f281610682565b15610432576040517f08c379a000000000000000000000000000000000000000000000000000000000815260040161042990610f1e565b60405180910390fd5b5f60025f60015481526020019081526020015f2090505f8160040154826003015483600201546104629190610b39565b61046c9190610b39565b9050600333908060018154018082558091505060019003905f5260205f20015f9091909190916101000a81548173ffffffffffffffffffffffffffffffffffffffff021916908373ffffffffffffffffffffffffffffffffffffffff16021790555060018460ff160361051b576001826002015f8282546104ed9190610b39565b925050819055506104fc610724565b826006015f6101000a81548160ff0219169083151502179055506105b2565b60028460ff1603610568576001826003015f82825461053a9190610b39565b92505081905550610549610724565b826006015f6101000a81548160ff0219169083151502179055506105b1565b5f8460ff16036105b0576001826004015f8282546105869190610b39565b92505081905550610595610724565b826006015f6101000a81548160ff0219169083151502179055505b5b5b60018183600501546105c49190610f3c565b1480156105ef575060018460ff1614806105e1575060028460ff16145b806105ee57505f8460ff16145b5b1561067c575f8260060160016101000a81548160ff02191690831515021790555060405180602001604052805f8054906101000a900473ffffffffffffffffffffffffffffffffffffffff1673ffffffffffffffffffffffffffffffffffffffff1673ffffffffffffffffffffffffffffffffffffffff16815250600390600161067a9291906107b9565b505b50505050565b5f805f90505b60038054905081101561071a578273ffffffffffffffffffffffffffffffffffffffff16600382815481106106c0576106bf610f6f565b5b905f5260205f20015f9054906101000a900473ffffffffffffffffffffffffffffffffffffffff1673ffffffffffffffffffffffffffffffffffffffff160361070d57600191505061071f565b8080600101915050610688565b505f90505b919050565b5f8060025f60015481526020019081526020015f2090505f816002015490505f826003015490505f836004015490505f8183856107619190610b39565b61076b9190610b39565b90505f6064603c8361077d9190610f9c565b610787919061100a565b905083851180156107985750808510155b156107ac57600196505050505050506107b6565b5f96505050505050505b90565b828054828255905f5260205f2090810192821561082f579160200282015b8281111561082e578251825f6101000a81548173ffffffffffffffffffffffffffffffffffffffff021916908373ffffffffffffffffffffffffffffffffffffffff160217905550916020019190600101906107d7565b5b50905061083c9190610840565b5090565b5b80821115610857575f815f905550600101610841565b5090565b5f80fd5b5f80fd5b5f73ffffffffffffffffffffffffffffffffffffffff82169050919050565b5f61088c82610863565b9050919050565b61089c81610882565b81146108a6575f80fd5b50565b5f813590506108b781610893565b92915050565b5f602082840312156108d2576108d161085b565b5b5f6108df848285016108a9565b91505092915050565b5f80fd5b5f80fd5b5f80fd5b5f8083601f840112610909576109086108e8565b5b8235905067ffffffffffffffff811115610926576109256108ec565b5b602083019150836001820283011115610942576109416108f0565b5b9250929050565b5f819050919050565b61095b81610949565b8114610965575f80fd5b50565b5f8135905061097681610952565b92915050565b5f805f805f606086880312156109955761099461085b565b5b5f86013567ffffffffffffffff8111156109b2576109b161085f565b5b6109be888289016108f4565b9550955050602086013567ffffffffffffffff8111156109e1576109e061085f565b5b6109ed888289016108f4565b93509350506040610a0088828901610968565b9150509295509295909350565b5f60ff82169050919050565b610a2281610a0d565b8114610a2c575f80fd5b50565b5f81359050610a3d81610a19565b92915050565b5f60208284031215610a5857610a5761085b565b5b5f610a6584828501610a2f565b91505092915050565b5f82825260208201905092915050565b7f4f6e6c7920746865206f776e65722063616e2063616c6c20746869732066756e5f8201527f6374696f6e000000000000000000000000000000000000000000000000000000602082015250565b5f610ad8602583610a6e565b9150610ae382610a7e565b604082019050919050565b5f6020820190508181035f830152610b0581610acc565b9050919050565b7f4e487b71000000000000000000000000000000000000000000000000000000005f52601160045260245ffd5b5f610b4382610949565b9150610b4e83610949565b9250828201905080821115610b6657610b65610b0c565b5b92915050565b5f81519050919050565b7f4e487b71000000000000000000000000000000000000000000000000000000005f52604160045260245ffd5b7f4e487b71000000000000000000000000000000000000000000000000000000005f52602260045260245ffd5b5f6002820490506001821680610be757607f821691505b602082108103610bfa57610bf9610ba3565b5b50919050565b5f819050815f5260205f209050919050565b5f6020601f8301049050919050565b5f82821b905092915050565b5f60088302610c5c7fffffffffffffffffffffffffffffffffffffffffffffffffffffffffffffffff82610c21565b610c668683610c21565b95508019841693508086168417925050509392505050565b5f819050919050565b5f610ca1610c9c610c9784610949565b610c7e565b610949565b9050919050565b5f819050919050565b610cba83610c87565b610cce610cc682610ca8565b848454610c2d565b825550505050565b5f90565b610ce2610cd6565b610ced818484610cb1565b505050565b5b81811015610d1057610d055f82610cda565b600181019050610cf3565b5050565b601f821115610d5557610d2681610c00565b610d2f84610c12565b81016020851015610d3e578190505b610d52610d4a85610c12565b830182610cf2565b50505b505050565b5f82821c905092915050565b5f610d755f1984600802610d5a565b1980831691505092915050565b5f610d8d8383610d66565b9150826002028217905092915050565b610da682610b6c565b67ffffffffffffffff811115610dbf57610dbe610b76565b5b610dc98254610bd0565b610dd4828285610d14565b5f60209050601f831160018114610e05575f8415610df3578287015190505b610dfd8582610d82565b865550610e64565b601f198416610e1386610c00565b5f5b82811015610e3a57848901518255600182019150602085019450602081019050610e15565b86831015610e575784890151610e53601f891682610d66565b8355505b6001600288020188555050505b505050505050565b7f5468652070726f706f73616c206973206e6f74206163746976650000000000005f82015250565b5f610ea0601a83610a6e565b9150610eab82610e6c565b602082019050919050565b5f6020820190508181035f830152610ecd81610e94565b9050919050565b7f416464726573732068617320616c726561647920766f746564000000000000005f82015250565b5f610f08601983610a6e565b9150610f1382610ed4565b602082019050919050565b5f6020820190508181035f830152610f3581610efc565b9050919050565b5f610f4682610949565b9150610f5183610949565b9250828203905081811115610f6957610f68610b0c565b5b92915050565b7f4e487b71000000000000000000000000000000000000000000000000000000005f52603260045260245ffd5b5f610fa682610949565b9150610fb183610949565b9250828202610fbf81610949565b91508282048414831517610fd657610fd5610b0c565b5b5092915050565b7f4e487b71000000000000000000000000000000000000000000000000000000005f52601260045260245ffd5b5f61101482610949565b915061101f83610949565b92508261102f5761102e610fdd565b5b82820490509291505056fea2646970667358221220a32c4fa0707724424b9d688df68ce5fdabc6ce2bc30098440f1b0403fdf8ee8864736f6c634300081a0033",
					"opcodes": "PUSH1 0x80 PUSH1 0x40 MSTORE CALLVALUE DUP1 ISZERO PUSH1 0xE JUMPI PUSH0 DUP1 REVERT JUMPDEST POP CALLER PUSH0 DUP1 PUSH2 0x100 EXP DUP2 SLOAD DUP2 PUSH20 0xFFFFFFFFFFFFFFFFFFFFFFFFFFFFFFFFFFFFFFFF MUL NOT AND SWAP1 DUP4 PUSH20 0xFFFFFFFFFFFFFFFFFFFFFFFFFFFFFFFFFFFFFFFF AND MUL OR SWAP1 SSTORE POP PUSH1 0x3 CALLER SWAP1 DUP1 PUSH1 0x1 DUP2 SLOAD ADD DUP1 DUP3 SSTORE DUP1 SWAP2 POP POP PUSH1 0x1 SWAP1 SUB SWAP1 PUSH0 MSTORE PUSH1 0x20 PUSH0 KECCAK256 ADD PUSH0 SWAP1 SWAP2 SWAP1 SWAP2 SWAP1 SWAP2 PUSH2 0x100 EXP DUP2 SLOAD DUP2 PUSH20 0xFFFFFFFFFFFFFFFFFFFFFFFFFFFFFFFFFFFFFFFF MUL NOT AND SWAP1 DUP4 PUSH20 0xFFFFFFFFFFFFFFFFFFFFFFFFFFFFFFFFFFFFFFFF AND MUL OR SWAP1 SSTORE POP PUSH2 0x1070 DUP1 PUSH2 0xBB PUSH0 CODECOPY PUSH0 RETURN INVALID PUSH1 0x80 PUSH1 0x40 MSTORE CALLVALUE DUP1 ISZERO PUSH2 0xF JUMPI PUSH0 DUP1 REVERT JUMPDEST POP PUSH1 0x4 CALLDATASIZE LT PUSH2 0x3F JUMPI PUSH0 CALLDATALOAD PUSH1 0xE0 SHR DUP1 PUSH4 0x13AF4035 EQ PUSH2 0x43 JUMPI DUP1 PUSH4 0x3CA6D100 EQ PUSH2 0x5F JUMPI DUP1 PUSH4 0xB3F98ADC EQ PUSH2 0x7B JUMPI JUMPDEST PUSH0 DUP1 REVERT JUMPDEST PUSH2 0x5D PUSH1 0x4 DUP1 CALLDATASIZE SUB DUP2 ADD SWAP1 PUSH2 0x58 SWAP2 SWAP1 PUSH2 0x8BD JUMP JUMPDEST PUSH2 0x97 JUMP JUMPDEST STOP JUMPDEST PUSH2 0x79 PUSH1 0x4 DUP1 CALLDATASIZE SUB DUP2 ADD SWAP1 PUSH2 0x74 SWAP2 SWAP1 PUSH2 0x97C JUMP JUMPDEST PUSH2 0x166 JUMP JUMPDEST STOP JUMPDEST PUSH2 0x95 PUSH1 0x4 DUP1 CALLDATASIZE SUB DUP2 ADD SWAP1 PUSH2 0x90 SWAP2 SWAP1 PUSH2 0xA43 JUMP JUMPDEST PUSH2 0x37E JUMP JUMPDEST STOP JUMPDEST PUSH0 DUP1 SLOAD SWAP1 PUSH2 0x100 EXP SWAP1 DIV PUSH20 0xFFFFFFFFFFFFFFFFFFFFFFFFFFFFFFFFFFFFFFFF AND PUSH20 0xFFFFFFFFFFFFFFFFFFFFFFFFFFFFFFFFFFFFFFFF AND CALLER PUSH20 0xFFFFFFFFFFFFFFFFFFFFFFFFFFFFFFFFFFFFFFFF AND EQ PUSH2 0x124 JUMPI PUSH1 0x40 MLOAD PUSH32 0x8C379A000000000000000000000000000000000000000000000000000000000 DUP2 MSTORE PUSH1 0x4 ADD PUSH2 0x11B SWAP1 PUSH2 0xAEE JUMP JUMPDEST PUSH1 0x40 MLOAD DUP1 SWAP2 SUB SWAP1 REVERT JUMPDEST DUP1 PUSH0 DUP1 PUSH2 0x100 EXP DUP2 SLOAD DUP2 PUSH20 0xFFFFFFFFFFFFFFFFFFFFFFFFFFFFFFFFFFFFFFFF MUL NOT AND SWAP1 DUP4 PUSH20 0xFFFFFFFFFFFFFFFFFFFFFFFFFFFFFFFFFFFFFFFF AND MUL OR SWAP1 SSTORE POP POP JUMP JUMPDEST PUSH0 DUP1 SLOAD SWAP1 PUSH2 0x100 EXP SWAP1 DIV PUSH20 0xFFFFFFFFFFFFFFFFFFFFFFFFFFFFFFFFFFFFFFFF AND PUSH20 0xFFFFFFFFFFFFFFFFFFFFFFFFFFFFFFFFFFFFFFFF AND CALLER PUSH20 0xFFFFFFFFFFFFFFFFFFFFFFFFFFFFFFFFFFFFFFFF AND EQ PUSH2 0x1F3 JUMPI PUSH1 0x40 MLOAD PUSH32 0x8C379A000000000000000000000000000000000000000000000000000000000 DUP2 MSTORE PUSH1 0x4 ADD PUSH2 0x1EA SWAP1 PUSH2 0xAEE JUMP JUMPDEST PUSH1 0x40 MLOAD DUP1 SWAP2 SUB SWAP1 REVERT JUMPDEST PUSH1 0x1 DUP1 PUSH0 DUP3 DUP3 SLOAD PUSH2 0x204 SWAP2 SWAP1 PUSH2 0xB39 JUMP JUMPDEST SWAP3 POP POP DUP2 SWAP1 SSTORE POP PUSH1 0x40 MLOAD DUP1 PUSH2 0x100 ADD PUSH1 0x40 MSTORE DUP1 DUP7 DUP7 DUP1 DUP1 PUSH1 0x1F ADD PUSH1 0x20 DUP1 SWAP2 DIV MUL PUSH1 0x20 ADD PUSH1 0x40 MLOAD SWAP1 DUP2 ADD PUSH1 0x40 MSTORE DUP1 SWAP4 SWAP3 SWAP2 SWAP1 DUP2 DUP2 MSTORE PUSH1 0x20 ADD DUP4 DUP4 DUP1 DUP3 DUP5 CALLDATACOPY PUSH0 DUP2 DUP5 ADD MSTORE PUSH1 0x1F NOT PUSH1 0x1F DUP3 ADD AND SWAP1 POP DUP1 DUP4 ADD SWAP3 POP POP POP POP POP POP POP DUP2 MSTORE PUSH1 0x20 ADD DUP5 DUP5 DUP1 DUP1 PUSH1 0x1F ADD PUSH1 0x20 DUP1 SWAP2 DIV MUL PUSH1 0x20 ADD PUSH1 0x40 MLOAD SWAP1 DUP2 ADD PUSH1 0x40 MSTORE DUP1 SWAP4 SWAP3 SWAP2 SWAP1 DUP2 DUP2 MSTORE PUSH1 0x20 ADD DUP4 DUP4 DUP1 DUP3 DUP5 CALLDATACOPY PUSH0 DUP2 DUP5 ADD MSTORE PUSH1 0x1F NOT PUSH1 0x1F DUP3 ADD AND SWAP1 POP DUP1 DUP4 ADD SWAP3 POP POP POP POP POP POP POP DUP2 MSTORE PUSH1 0x20 ADD PUSH0 DUP2 MSTORE PUSH1 0x20 ADD PUSH0 DUP2 MSTORE PUSH1 0x20 ADD PUSH0 DUP2 MSTORE PUSH1 0x20 ADD DUP3 DUP2 MSTORE PUSH1 0x20 ADD PUSH0 ISZERO ISZERO DUP2 MSTORE PUSH1 0x20 ADD PUSH1 0x1 ISZERO ISZERO DUP2 MSTORE POP PUSH1 0x2 PUSH0 PUSH1 0x1 SLOAD DUP2 MSTORE PUSH1 0x20 ADD SWAP1 DUP2 MSTORE PUSH1 0x20 ADD PUSH0 KECCAK256 PUSH0 DUP3 ADD MLOAD DUP2 PUSH0 ADD SWAP1 DUP2 PUSH2 0x2F6 SWAP2 SWAP1 PUSH2 0xD9D JUMP JUMPDEST POP PUSH1 0x20 DUP3 ADD MLOAD DUP2 PUSH1 0x1 ADD SWAP1 DUP2 PUSH2 0x30C SWAP2 SWAP1 PUSH2 0xD9D JUMP JUMPDEST POP PUSH1 0x40 DUP3 ADD MLOAD DUP2 PUSH1 0x2 ADD SSTORE PUSH1 0x60 DUP3 ADD MLOAD DUP2 PUSH1 0x3 ADD SSTORE PUSH1 0x80 DUP3 ADD MLOAD DUP2 PUSH1 0x4 ADD SSTORE PUSH1 0xA0 DUP3 ADD MLOAD DUP2 PUSH1 0x5 ADD SSTORE PUSH1 0xC0 DUP3 ADD MLOAD DUP2 PUSH1 0x6 ADD PUSH0 PUSH2 0x100 EXP DUP2 SLOAD DUP2 PUSH1 0xFF MUL NOT AND SWAP1 DUP4 ISZERO ISZERO MUL OR SWAP1 SSTORE POP PUSH1 0xE0 DUP3 ADD MLOAD DUP2 PUSH1 0x6 ADD PUSH1 0x1 PUSH2 0x100 EXP DUP2 SLOAD DUP2 PUSH1 0xFF MUL NOT AND SWAP1 DUP4 ISZERO ISZERO MUL OR SWAP1 SSTORE POP SWAP1 POP POP POP POP POP POP POP JUMP JUMPDEST PUSH1 0x1 ISZERO ISZERO PUSH1 0x2 PUSH0 PUSH1 0x1 SLOAD DUP2 MSTORE PUSH1 0x20 ADD SWAP1 DUP2 MSTORE PUSH1 0x20 ADD PUSH0 KECCAK256 PUSH1 0x6 ADD PUSH1 0x1 SWAP1 SLOAD SWAP1 PUSH2 0x100 EXP SWAP1 DIV PUSH1 0xFF AND ISZERO ISZERO EQ PUSH2 0x3E8 JUMPI PUSH1 0x40 MLOAD PUSH32 0x8C379A000000000000000000000000000000000000000000000000000000000 DUP2 MSTORE PUSH1 0x4 ADD PUSH2 0x3DF SWAP1 PUSH2 0xEB6 JUMP JUMPDEST PUSH1 0x40 MLOAD DUP1 SWAP2 SUB SWAP1 REVERT JUMPDEST CALLER PUSH2 0x3F2 DUP2 PUSH2 0x682 JUMP JUMPDEST ISZERO PUSH2 0x432 JUMPI PUSH1 0x40 MLOAD PUSH32 0x8C379A000000000000000000000000000000000000000000000000000000000 DUP2 MSTORE PUSH1 0x4 ADD PUSH2 0x429 SWAP1 PUSH2 0xF1E JUMP JUMPDEST PUSH1 0x40 MLOAD DUP1 SWAP2 SUB SWAP1 REVERT JUMPDEST PUSH0 PUSH1 0x2 PUSH0 PUSH1 0x1 SLOAD DUP2 MSTORE PUSH1 0x20 ADD SWAP1 DUP2 MSTORE PUSH1 0x20 ADD PUSH0 KECCAK256 SWAP1 POP PUSH0 DUP2 PUSH1 0x4 ADD SLOAD DUP3 PUSH1 0x3 ADD SLOAD DUP4 PUSH1 0x2 ADD SLOAD PUSH2 0x462 SWAP2 SWAP1 PUSH2 0xB39 JUMP JUMPDEST PUSH2 0x46C SWAP2 SWAP1 PUSH2 0xB39 JUMP JUMPDEST SWAP1 POP PUSH1 0x3 CALLER SWAP1 DUP1 PUSH1 0x1 DUP2 SLOAD ADD DUP1 DUP3 SSTORE DUP1 SWAP2 POP POP PUSH1 0x1 SWAP1 SUB SWAP1 PUSH0 MSTORE PUSH1 0x20 PUSH0 KECCAK256 ADD PUSH0 SWAP1 SWAP2 SWAP1 SWAP2 SWAP1 SWAP2 PUSH2 0x100 EXP DUP2 SLOAD DUP2 PUSH20 0xFFFFFFFFFFFFFFFFFFFFFFFFFFFFFFFFFFFFFFFF MUL NOT AND SWAP1 DUP4 PUSH20 0xFFFFFFFFFFFFFFFFFFFFFFFFFFFFFFFFFFFFFFFF AND MUL OR SWAP1 SSTORE POP PUSH1 0x1 DUP5 PUSH1 0xFF AND SUB PUSH2 0x51B JUMPI PUSH1 0x1 DUP3 PUSH1 0x2 ADD PUSH0 DUP3 DUP3 SLOAD PUSH2 0x4ED SWAP2 SWAP1 PUSH2 0xB39 JUMP JUMPDEST SWAP3 POP POP DUP2 SWAP1 SSTORE POP PUSH2 0x4FC PUSH2 0x724 JUMP JUMPDEST DUP3 PUSH1 0x6 ADD PUSH0 PUSH2 0x100 EXP DUP2 SLOAD DUP2 PUSH1 0xFF MUL NOT AND SWAP1 DUP4 ISZERO ISZERO MUL OR SWAP1 SSTORE POP PUSH2 0x5B2 JUMP JUMPDEST PUSH1 0x2 DUP5 PUSH1 0xFF AND SUB PUSH2 0x568 JUMPI PUSH1 0x1 DUP3 PUSH1 0x3 ADD PUSH0 DUP3 DUP3 SLOAD PUSH2 0x53A SWAP2 SWAP1 PUSH2 0xB39 JUMP JUMPDEST SWAP3 POP POP DUP2 SWAP1 SSTORE POP PUSH2 0x549 PUSH2 0x724 JUMP JUMPDEST DUP3 PUSH1 0x6 ADD PUSH0 PUSH2 0x100 EXP DUP2 SLOAD DUP2 PUSH1 0xFF MUL NOT AND SWAP1 DUP4 ISZERO ISZERO MUL OR SWAP1 SSTORE POP PUSH2 0x5B1 JUMP JUMPDEST PUSH0 DUP5 PUSH1 0xFF AND SUB PUSH2 0x5B0 JUMPI PUSH1 0x1 DUP3 PUSH1 0x4 ADD PUSH0 DUP3 DUP3 SLOAD PUSH2 0x586 SWAP2 SWAP1 PUSH2 0xB39 JUMP JUMPDEST SWAP3 POP POP DUP2 SWAP1 SSTORE POP PUSH2 0x595 PUSH2 0x724 JUMP JUMPDEST DUP3 PUSH1 0x6 ADD PUSH0 PUSH2 0x100 EXP DUP2 SLOAD DUP2 PUSH1 0xFF MUL NOT AND SWAP1 DUP4 ISZERO ISZERO MUL OR SWAP1 SSTORE POP JUMPDEST JUMPDEST JUMPDEST PUSH1 0x1 DUP2 DUP4 PUSH1 0x5 ADD SLOAD PUSH2 0x5C4 SWAP2 SWAP1 PUSH2 0xF3C JUMP JUMPDEST EQ DUP1 ISZERO PUSH2 0x5EF JUMPI POP PUSH1 0x1 DUP5 PUSH1 0xFF AND EQ DUP1 PUSH2 0x5E1 JUMPI POP PUSH1 0x2 DUP5 PUSH1 0xFF AND EQ JUMPDEST DUP1 PUSH2 0x5EE JUMPI POP PUSH0 DUP5 PUSH1 0xFF AND EQ JUMPDEST JUMPDEST ISZERO PUSH2 0x67C JUMPI PUSH0 DUP3 PUSH1 0x6 ADD PUSH1 0x1 PUSH2 0x100 EXP DUP2 SLOAD DUP2 PUSH1 0xFF MUL NOT AND SWAP1 DUP4 ISZERO ISZERO MUL OR SWAP1 SSTORE POP PUSH1 0x40 MLOAD DUP1 PUSH1 0x20 ADD PUSH1 0x40 MSTORE DUP1 PUSH0 DUP1 SLOAD SWAP1 PUSH2 0x100 EXP SWAP1 DIV PUSH20 0xFFFFFFFFFFFFFFFFFFFFFFFFFFFFFFFFFFFFFFFF AND PUSH20 0xFFFFFFFFFFFFFFFFFFFFFFFFFFFFFFFFFFFFFFFF AND PUSH20 0xFFFFFFFFFFFFFFFFFFFFFFFFFFFFFFFFFFFFFFFF AND DUP2 MSTORE POP PUSH1 0x3 SWAP1 PUSH1 0x1 PUSH2 0x67A SWAP3 SWAP2 SWAP1 PUSH2 0x7B9 JUMP JUMPDEST POP JUMPDEST POP POP POP POP JUMP JUMPDEST PUSH0 DUP1 PUSH0 SWAP1 POP JUMPDEST PUSH1 0x3 DUP1 SLOAD SWAP1 POP DUP2 LT ISZERO PUSH2 0x71A JUMPI DUP3 PUSH20 0xFFFFFFFFFFFFFFFFFFFFFFFFFFFFFFFFFFFFFFFF AND PUSH1 0x3 DUP3 DUP2 SLOAD DUP2 LT PUSH2 0x6C0 JUMPI PUSH2 0x6BF PUSH2 0xF6F JUMP JUMPDEST JUMPDEST SWAP1 PUSH0 MSTORE PUSH1 0x20 PUSH0 KECCAK256 ADD PUSH0 SWAP1 SLOAD SWAP1 PUSH2 0x100 EXP SWAP1 DIV PUSH20 0xFFFFFFFFFFFFFFFFFFFFFFFFFFFFFFFFFFFFFFFF AND PUSH20 0xFFFFFFFFFFFFFFFFFFFFFFFFFFFFFFFFFFFFFFFF AND SUB PUSH2 0x70D JUMPI PUSH1 0x1 SWAP2 POP POP PUSH2 0x71F JUMP JUMPDEST DUP1 DUP1 PUSH1 0x1 ADD SWAP2 POP POP PUSH2 0x688 JUMP JUMPDEST POP PUSH0 SWAP1 POP JUMPDEST SWAP2 SWAP1 POP JUMP JUMPDEST PUSH0 DUP1 PUSH1 0x2 PUSH0 PUSH1 0x1 SLOAD DUP2 MSTORE PUSH1 0x20 ADD SWAP1 DUP2 MSTORE PUSH1 0x20 ADD PUSH0 KECCAK256 SWAP1 POP PUSH0 DUP2 PUSH1 0x2 ADD SLOAD SWAP1 POP PUSH0 DUP3 PUSH1 0x3 ADD SLOAD SWAP1 POP PUSH0 DUP4 PUSH1 0x4 ADD SLOAD SWAP1 POP PUSH0 DUP2 DUP4 DUP6 PUSH2 0x761 SWAP2 SWAP1 PUSH2 0xB39 JUMP JUMPDEST PUSH2 0x76B SWAP2 SWAP1 PUSH2 0xB39 JUMP JUMPDEST SWAP1 POP PUSH0 PUSH1 0x64 PUSH1 0x3C DUP4 PUSH2 0x77D SWAP2 SWAP1 PUSH2 0xF9C JUMP JUMPDEST PUSH2 0x787 SWAP2 SWAP1 PUSH2 0x100A JUMP JUMPDEST SWAP1 POP DUP4 DUP6 GT DUP1 ISZERO PUSH2 0x798 JUMPI POP DUP1 DUP6 LT ISZERO JUMPDEST ISZERO PUSH2 0x7AC JUMPI PUSH1 0x1 SWAP7 POP POP POP POP POP POP POP PUSH2 0x7B6 JUMP JUMPDEST PUSH0 SWAP7 POP POP POP POP POP POP POP JUMPDEST SWAP1 JUMP JUMPDEST DUP3 DUP1 SLOAD DUP3 DUP3 SSTORE SWAP1 PUSH0 MSTORE PUSH1 0x20 PUSH0 KECCAK256 SWAP1 DUP2 ADD SWAP3 DUP3 ISZERO PUSH2 0x82F JUMPI SWAP2 PUSH1 0x20 MUL DUP3 ADD JUMPDEST DUP3 DUP2 GT ISZERO PUSH2 0x82E JUMPI DUP3 MLOAD DUP3 PUSH0 PUSH2 0x100 EXP DUP2 SLOAD DUP2 PUSH20 0xFFFFFFFFFFFFFFFFFFFFFFFFFFFFFFFFFFFFFFFF MUL NOT AND SWAP1 DUP4 PUSH20 0xFFFFFFFFFFFFFFFFFFFFFFFFFFFFFFFFFFFFFFFF AND MUL OR SWAP1 SSTORE POP SWAP2 PUSH1 0x20 ADD SWAP2 SWAP1 PUSH1 0x1 ADD SWAP1 PUSH2 0x7D7 JUMP JUMPDEST JUMPDEST POP SWAP1 POP PUSH2 0x83C SWAP2 SWAP1 PUSH2 0x840 JUMP JUMPDEST POP SWAP1 JUMP JUMPDEST JUMPDEST DUP1 DUP3 GT ISZERO PUSH2 0x857 JUMPI PUSH0 DUP2 PUSH0 SWAP1 SSTORE POP PUSH1 0x1 ADD PUSH2 0x841 JUMP JUMPDEST POP SWAP1 JUMP JUMPDEST PUSH0 DUP1 REVERT JUMPDEST PUSH0 DUP1 REVERT JUMPDEST PUSH0 PUSH20 0xFFFFFFFFFFFFFFFFFFFFFFFFFFFFFFFFFFFFFFFF DUP3 AND SWAP1 POP SWAP2 SWAP1 POP JUMP JUMPDEST PUSH0 PUSH2 0x88C DUP3 PUSH2 0x863 JUMP JUMPDEST SWAP1 POP SWAP2 SWAP1 POP JUMP JUMPDEST PUSH2 0x89C DUP2 PUSH2 0x882 JUMP JUMPDEST DUP2 EQ PUSH2 0x8A6 JUMPI PUSH0 DUP1 REVERT JUMPDEST POP JUMP JUMPDEST PUSH0 DUP2 CALLDATALOAD SWAP1 POP PUSH2 0x8B7 DUP2 PUSH2 0x893 JUMP JUMPDEST SWAP3 SWAP2 POP POP JUMP JUMPDEST PUSH0 PUSH1 0x20 DUP3 DUP5 SUB SLT ISZERO PUSH2 0x8D2 JUMPI PUSH2 0x8D1 PUSH2 0x85B JUMP JUMPDEST JUMPDEST PUSH0 PUSH2 0x8DF DUP5 DUP3 DUP6 ADD PUSH2 0x8A9 JUMP JUMPDEST SWAP2 POP POP SWAP3 SWAP2 POP POP JUMP JUMPDEST PUSH0 DUP1 REVERT JUMPDEST PUSH0 DUP1 REVERT JUMPDEST PUSH0 DUP1 REVERT JUMPDEST PUSH0 DUP1 DUP4 PUSH1 0x1F DUP5 ADD SLT PUSH2 0x909 JUMPI PUSH2 0x908 PUSH2 0x8E8 JUMP JUMPDEST JUMPDEST DUP3 CALLDATALOAD SWAP1 POP PUSH8 0xFFFFFFFFFFFFFFFF DUP2 GT ISZERO PUSH2 0x926 JUMPI PUSH2 0x925 PUSH2 0x8EC JUMP JUMPDEST JUMPDEST PUSH1 0x20 DUP4 ADD SWAP2 POP DUP4 PUSH1 0x1 DUP3 MUL DUP4 ADD GT ISZERO PUSH2 0x942 JUMPI PUSH2 0x941 PUSH2 0x8F0 JUMP JUMPDEST JUMPDEST SWAP3 POP SWAP3 SWAP1 POP JUMP JUMPDEST PUSH0 DUP2 SWAP1 POP SWAP2 SWAP1 POP JUMP JUMPDEST PUSH2 0x95B DUP2 PUSH2 0x949 JUMP JUMPDEST DUP2 EQ PUSH2 0x965 JUMPI PUSH0 DUP1 REVERT JUMPDEST POP JUMP JUMPDEST PUSH0 DUP2 CALLDATALOAD SWAP1 POP PUSH2 0x976 DUP2 PUSH2 0x952 JUMP JUMPDEST SWAP3 SWAP2 POP POP JUMP JUMPDEST PUSH0 DUP1 PUSH0 DUP1 PUSH0 PUSH1 0x60 DUP7 DUP9 SUB SLT ISZERO PUSH2 0x995 JUMPI PUSH2 0x994 PUSH2 0x85B JUMP JUMPDEST JUMPDEST PUSH0 DUP7 ADD CALLDATALOAD PUSH8 0xFFFFFFFFFFFFFFFF DUP2 GT ISZERO PUSH2 0x9B2 JUMPI PUSH2 0x9B1 PUSH2 0x85F JUMP JUMPDEST JUMPDEST PUSH2 0x9BE DUP9 DUP3 DUP10 ADD PUSH2 0x8F4 JUMP JUMPDEST SWAP6 POP SWAP6 POP POP PUSH1 0x20 DUP7 ADD CALLDATALOAD PUSH8 0xFFFFFFFFFFFFFFFF DUP2 GT ISZERO PUSH2 0x9E1 JUMPI PUSH2 0x9E0 PUSH2 0x85F JUMP JUMPDEST JUMPDEST PUSH2 0x9ED DUP9 DUP3 DUP10 ADD PUSH2 0x8F4 JUMP JUMPDEST SWAP4 POP SWAP4 POP POP PUSH1 0x40 PUSH2 0xA00 DUP9 DUP3 DUP10 ADD PUSH2 0x968 JUMP JUMPDEST SWAP2 POP POP SWAP3 SWAP6 POP SWAP3 SWAP6 SWAP1 SWAP4 POP JUMP JUMPDEST PUSH0 PUSH1 0xFF DUP3 AND SWAP1 POP SWAP2 SWAP1 POP JUMP JUMPDEST PUSH2 0xA22 DUP2 PUSH2 0xA0D JUMP JUMPDEST DUP2 EQ PUSH2 0xA2C JUMPI PUSH0 DUP1 REVERT JUMPDEST POP JUMP JUMPDEST PUSH0 DUP2 CALLDATALOAD SWAP1 POP PUSH2 0xA3D DUP2 PUSH2 0xA19 JUMP JUMPDEST SWAP3 SWAP2 POP POP JUMP JUMPDEST PUSH0 PUSH1 0x20 DUP3 DUP5 SUB SLT ISZERO PUSH2 0xA58 JUMPI PUSH2 0xA57 PUSH2 0x85B JUMP JUMPDEST JUMPDEST PUSH0 PUSH2 0xA65 DUP5 DUP3 DUP6 ADD PUSH2 0xA2F JUMP JUMPDEST SWAP2 POP POP SWAP3 SWAP2 POP POP JUMP JUMPDEST PUSH0 DUP3 DUP3 MSTORE PUSH1 0x20 DUP3 ADD SWAP1 POP SWAP3 SWAP2 POP POP JUMP JUMPDEST PUSH32 0x4F6E6C7920746865206F776E65722063616E2063616C6C20746869732066756E PUSH0 DUP3 ADD MSTORE PUSH32 0x6374696F6E000000000000000000000000000000000000000000000000000000 PUSH1 0x20 DUP3 ADD MSTORE POP JUMP JUMPDEST PUSH0 PUSH2 0xAD8 PUSH1 0x25 DUP4 PUSH2 0xA6E JUMP JUMPDEST SWAP2 POP PUSH2 0xAE3 DUP3 PUSH2 0xA7E JUMP JUMPDEST PUSH1 0x40 DUP3 ADD SWAP1 POP SWAP2 SWAP1 POP JUMP JUMPDEST PUSH0 PUSH1 0x20 DUP3 ADD SWAP1 POP DUP2 DUP2 SUB PUSH0 DUP4 ADD MSTORE PUSH2 0xB05 DUP2 PUSH2 0xACC JUMP JUMPDEST SWAP1 POP SWAP2 SWAP1 POP JUMP JUMPDEST PUSH32 0x4E487B7100000000000000000000000000000000000000000000000000000000 PUSH0 MSTORE PUSH1 0x11 PUSH1 0x4 MSTORE PUSH1 0x24 PUSH0 REVERT JUMPDEST PUSH0 PUSH2 0xB43 DUP3 PUSH2 0x949 JUMP JUMPDEST SWAP2 POP PUSH2 0xB4E DUP4 PUSH2 0x949 JUMP JUMPDEST SWAP3 POP DUP3 DUP3 ADD SWAP1 POP DUP1 DUP3 GT ISZERO PUSH2 0xB66 JUMPI PUSH2 0xB65 PUSH2 0xB0C JUMP JUMPDEST JUMPDEST SWAP3 SWAP2 POP POP JUMP JUMPDEST PUSH0 DUP2 MLOAD SWAP1 POP SWAP2 SWAP1 POP JUMP JUMPDEST PUSH32 0x4E487B7100000000000000000000000000000000000000000000000000000000 PUSH0 MSTORE PUSH1 0x41 PUSH1 0x4 MSTORE PUSH1 0x24 PUSH0 REVERT JUMPDEST PUSH32 0x4E487B7100000000000000000000000000000000000000000000000000000000 PUSH0 MSTORE PUSH1 0x22 PUSH1 0x4 MSTORE PUSH1 0x24 PUSH0 REVERT JUMPDEST PUSH0 PUSH1 0x2 DUP3 DIV SWAP1 POP PUSH1 0x1 DUP3 AND DUP1 PUSH2 0xBE7 JUMPI PUSH1 0x7F DUP3 AND SWAP2 POP JUMPDEST PUSH1 0x20 DUP3 LT DUP2 SUB PUSH2 0xBFA JUMPI PUSH2 0xBF9 PUSH2 0xBA3 JUMP JUMPDEST JUMPDEST POP SWAP2 SWAP1 POP JUMP JUMPDEST PUSH0 DUP2 SWAP1 POP DUP2 PUSH0 MSTORE PUSH1 0x20 PUSH0 KECCAK256 SWAP1 POP SWAP2 SWAP1 POP JUMP JUMPDEST PUSH0 PUSH1 0x20 PUSH1 0x1F DUP4 ADD DIV SWAP1 POP SWAP2 SWAP1 POP JUMP JUMPDEST PUSH0 DUP3 DUP3 SHL SWAP1 POP SWAP3 SWAP2 POP POP JUMP JUMPDEST PUSH0 PUSH1 0x8 DUP4 MUL PUSH2 0xC5C PUSH32 0xFFFFFFFFFFFFFFFFFFFFFFFFFFFFFFFFFFFFFFFFFFFFFFFFFFFFFFFFFFFFFFFF DUP3 PUSH2 0xC21 JUMP JUMPDEST PUSH2 0xC66 DUP7 DUP4 PUSH2 0xC21 JUMP JUMPDEST SWAP6 POP DUP1 NOT DUP5 AND SWAP4 POP DUP1 DUP7 AND DUP5 OR SWAP3 POP POP POP SWAP4 SWAP3 POP POP POP JUMP JUMPDEST PUSH0 DUP2 SWAP1 POP SWAP2 SWAP1 POP JUMP JUMPDEST PUSH0 PUSH2 0xCA1 PUSH2 0xC9C PUSH2 0xC97 DUP5 PUSH2 0x949 JUMP JUMPDEST PUSH2 0xC7E JUMP JUMPDEST PUSH2 0x949 JUMP JUMPDEST SWAP1 POP SWAP2 SWAP1 POP JUMP JUMPDEST PUSH0 DUP2 SWAP1 POP SWAP2 SWAP1 POP JUMP JUMPDEST PUSH2 0xCBA DUP4 PUSH2 0xC87 JUMP JUMPDEST PUSH2 0xCCE PUSH2 0xCC6 DUP3 PUSH2 0xCA8 JUMP JUMPDEST DUP5 DUP5 SLOAD PUSH2 0xC2D JUMP JUMPDEST DUP3 SSTORE POP POP POP POP JUMP JUMPDEST PUSH0 SWAP1 JUMP JUMPDEST PUSH2 0xCE2 PUSH2 0xCD6 JUMP JUMPDEST PUSH2 0xCED DUP2 DUP5 DUP5 PUSH2 0xCB1 JUMP JUMPDEST POP POP POP JUMP JUMPDEST JUMPDEST DUP2 DUP2 LT ISZERO PUSH2 0xD10 JUMPI PUSH2 0xD05 PUSH0 DUP3 PUSH2 0xCDA JUMP JUMPDEST PUSH1 0x1 DUP2 ADD SWAP1 POP PUSH2 0xCF3 JUMP JUMPDEST POP POP JUMP JUMPDEST PUSH1 0x1F DUP3 GT ISZERO PUSH2 0xD55 JUMPI PUSH2 0xD26 DUP2 PUSH2 0xC00 JUMP JUMPDEST PUSH2 0xD2F DUP5 PUSH2 0xC12 JUMP JUMPDEST DUP2 ADD PUSH1 0x20 DUP6 LT ISZERO PUSH2 0xD3E JUMPI DUP2 SWAP1 POP JUMPDEST PUSH2 0xD52 PUSH2 0xD4A DUP6 PUSH2 0xC12 JUMP JUMPDEST DUP4 ADD DUP3 PUSH2 0xCF2 JUMP JUMPDEST POP POP JUMPDEST POP POP POP JUMP JUMPDEST PUSH0 DUP3 DUP3 SHR SWAP1 POP SWAP3 SWAP2 POP POP JUMP JUMPDEST PUSH0 PUSH2 0xD75 PUSH0 NOT DUP5 PUSH1 0x8 MUL PUSH2 0xD5A JUMP JUMPDEST NOT DUP1 DUP4 AND SWAP2 POP POP SWAP3 SWAP2 POP POP JUMP JUMPDEST PUSH0 PUSH2 0xD8D DUP4 DUP4 PUSH2 0xD66 JUMP JUMPDEST SWAP2 POP DUP3 PUSH1 0x2 MUL DUP3 OR SWAP1 POP SWAP3 SWAP2 POP POP JUMP JUMPDEST PUSH2 0xDA6 DUP3 PUSH2 0xB6C JUMP JUMPDEST PUSH8 0xFFFFFFFFFFFFFFFF DUP2 GT ISZERO PUSH2 0xDBF JUMPI PUSH2 0xDBE PUSH2 0xB76 JUMP JUMPDEST JUMPDEST PUSH2 0xDC9 DUP3 SLOAD PUSH2 0xBD0 JUMP JUMPDEST PUSH2 0xDD4 DUP3 DUP3 DUP6 PUSH2 0xD14 JUMP JUMPDEST PUSH0 PUSH1 0x20 SWAP1 POP PUSH1 0x1F DUP4 GT PUSH1 0x1 DUP2 EQ PUSH2 0xE05 JUMPI PUSH0 DUP5 ISZERO PUSH2 0xDF3 JUMPI DUP3 DUP8 ADD MLOAD SWAP1 POP JUMPDEST PUSH2 0xDFD DUP6 DUP3 PUSH2 0xD82 JUMP JUMPDEST DUP7 SSTORE POP PUSH2 0xE64 JUMP JUMPDEST PUSH1 0x1F NOT DUP5 AND PUSH2 0xE13 DUP7 PUSH2 0xC00 JUMP JUMPDEST PUSH0 JUMPDEST DUP3 DUP2 LT ISZERO PUSH2 0xE3A JUMPI DUP5 DUP10 ADD MLOAD DUP3 SSTORE PUSH1 0x1 DUP3 ADD SWAP2 POP PUSH1 0x20 DUP6 ADD SWAP5 POP PUSH1 0x20 DUP2 ADD SWAP1 POP PUSH2 0xE15 JUMP JUMPDEST DUP7 DUP4 LT ISZERO PUSH2 0xE57 JUMPI DUP5 DUP10 ADD MLOAD PUSH2 0xE53 PUSH1 0x1F DUP10 AND DUP3 PUSH2 0xD66 JUMP JUMPDEST DUP4 SSTORE POP JUMPDEST PUSH1 0x1 PUSH1 0x2 DUP9 MUL ADD DUP9 SSTORE POP POP POP JUMPDEST POP POP POP POP POP POP JUMP JUMPDEST PUSH32 0x5468652070726F706F73616C206973206E6F7420616374697665000000000000 PUSH0 DUP3 ADD MSTORE POP JUMP JUMPDEST PUSH0 PUSH2 0xEA0 PUSH1 0x1A DUP4 PUSH2 0xA6E JUMP JUMPDEST SWAP2 POP PUSH2 0xEAB DUP3 PUSH2 0xE6C JUMP JUMPDEST PUSH1 0x20 DUP3 ADD SWAP1 POP SWAP2 SWAP1 POP JUMP JUMPDEST PUSH0 PUSH1 0x20 DUP3 ADD SWAP1 POP DUP2 DUP2 SUB PUSH0 DUP4 ADD MSTORE PUSH2 0xECD DUP2 PUSH2 0xE94 JUMP JUMPDEST SWAP1 POP SWAP2 SWAP1 POP JUMP JUMPDEST PUSH32 0x416464726573732068617320616C726561647920766F74656400000000000000 PUSH0 DUP3 ADD MSTORE POP JUMP JUMPDEST PUSH0 PUSH2 0xF08 PUSH1 0x19 DUP4 PUSH2 0xA6E JUMP JUMPDEST SWAP2 POP PUSH2 0xF13 DUP3 PUSH2 0xED4 JUMP JUMPDEST PUSH1 0x20 DUP3 ADD SWAP1 POP SWAP2 SWAP1 POP JUMP JUMPDEST PUSH0 PUSH1 0x20 DUP3 ADD SWAP1 POP DUP2 DUP2 SUB PUSH0 DUP4 ADD MSTORE PUSH2 0xF35 DUP2 PUSH2 0xEFC JUMP JUMPDEST SWAP1 POP SWAP2 SWAP1 POP JUMP JUMPDEST PUSH0 PUSH2 0xF46 DUP3 PUSH2 0x949 JUMP JUMPDEST SWAP2 POP PUSH2 0xF51 DUP4 PUSH2 0x949 JUMP JUMPDEST SWAP3 POP DUP3 DUP3 SUB SWAP1 POP DUP2 DUP2 GT ISZERO PUSH2 0xF69 JUMPI PUSH2 0xF68 PUSH2 0xB0C JUMP JUMPDEST JUMPDEST SWAP3 SWAP2 POP POP JUMP JUMPDEST PUSH32 0x4E487B7100000000000000000000000000000000000000000000000000000000 PUSH0 MSTORE PUSH1 0x32 PUSH1 0x4 MSTORE PUSH1 0x24 PUSH0 REVERT JUMPDEST PUSH0 PUSH2 0xFA6 DUP3 PUSH2 0x949 JUMP JUMPDEST SWAP2 POP PUSH2 0xFB1 DUP4 PUSH2 0x949 JUMP JUMPDEST SWAP3 POP DUP3 DUP3 MUL PUSH2 0xFBF DUP2 PUSH2 0x949 JUMP JUMPDEST SWAP2 POP DUP3 DUP3 DIV DUP5 EQ DUP4 ISZERO OR PUSH2 0xFD6 JUMPI PUSH2 0xFD5 PUSH2 0xB0C JUMP JUMPDEST JUMPDEST POP SWAP3 SWAP2 POP POP JUMP JUMPDEST PUSH32 0x4E487B7100000000000000000000000000000000000000000000000000000000 PUSH0 MSTORE PUSH1 0x12 PUSH1 0x4 MSTORE PUSH1 0x24 PUSH0 REVERT JUMPDEST PUSH0 PUSH2 0x1014 DUP3 PUSH2 0x949 JUMP JUMPDEST SWAP2 POP PUSH2 0x101F DUP4 PUSH2 0x949 JUMP JUMPDEST SWAP3 POP DUP3 PUSH2 0x102F JUMPI PUSH2 0x102E PUSH2 0xFDD JUMP JUMPDEST JUMPDEST DUP3 DUP3 DIV SWAP1 POP SWAP3 SWAP2 POP POP JUMP INVALID LOG2 PUSH5 0x6970667358 0x22 SLT KECCAK256 LOG3 0x2C 0x4F LOG0 PUSH17 0x7724424B9D688DF68CE5FDABC6CE2BC300 SWAP9 PREVRANDAO 0xF SHL DIV SUB REVERT 0xF8 0xEE DUP9 PUSH5 0x736F6C6343 STOP ADDMOD BYTE STOP CALLER "
				},
				"gasEstimates": {
					"creation": {
						"codeDepositCost": "841600",
						"executionCost": "73715",
						"totalCost": "915315"
					},
					"external": {
						"create(string,string,uint256)": "infinite",
						"setOwner(address)": "26859",
						"vote(uint8)": "infinite"
					},
					"internal": {
						"calculateCurrentState()": "infinite",
						"isVoted(address)": "infinite"
					}
				},
				"methodIdentifiers": {
					"create(string,string,uint256)": "3ca6d100",
					"setOwner(address)": "13af4035",
					"vote(uint8)": "b3f98adc"
				}
			},
			"storageLayout": {
				"storage": [
					{
						"astId": 3,
						"contract": "contracts/ProposalContractFourthHomework.sol:ProposalContract",
						"label": "owner",
						"offset": 0,
						"slot": "0",
						"type": "t_address"
					},
					{
						"astId": 5,
						"contract": "contracts/ProposalContractFourthHomework.sol:ProposalContract",
						"label": "counter",
						"offset": 0,
						"slot": "1",
						"type": "t_uint256"
					},
					{
						"astId": 27,
						"contract": "contracts/ProposalContractFourthHomework.sol:ProposalContract",
						"label": "proposal_history",
						"offset": 0,
						"slot": "2",
						"type": "t_mapping(t_uint256,t_struct(Proposal)22_storage)"
					},
					{
						"astId": 30,
						"contract": "contracts/ProposalContractFourthHomework.sol:ProposalContract",
						"label": "voted_addresses",
						"offset": 0,
						"slot": "3",
						"type": "t_array(t_address)dyn_storage"
					}
				],
				"types": {
					"t_address": {
						"encoding": "inplace",
						"label": "address",
						"numberOfBytes": "20"
					},
					"t_array(t_address)dyn_storage": {
						"base": "t_address",
						"encoding": "dynamic_array",
						"label": "address[]",
						"numberOfBytes": "32"
					},
					"t_bool": {
						"encoding": "inplace",
						"label": "bool",
						"numberOfBytes": "1"
					},
					"t_mapping(t_uint256,t_struct(Proposal)22_storage)": {
						"encoding": "mapping",
						"key": "t_uint256",
						"label": "mapping(uint256 => struct ProposalContract.Proposal)",
						"numberOfBytes": "32",
						"value": "t_struct(Proposal)22_storage"
					},
					"t_string_storage": {
						"encoding": "bytes",
						"label": "string",
						"numberOfBytes": "32"
					},
					"t_struct(Proposal)22_storage": {
						"encoding": "inplace",
						"label": "struct ProposalContract.Proposal",
						"members": [
							{
								"astId": 7,
								"contract": "contracts/ProposalContractFourthHomework.sol:ProposalContract",
								"label": "title",
								"offset": 0,
								"slot": "0",
								"type": "t_string_storage"
							},
							{
								"astId": 9,
								"contract": "contracts/ProposalContractFourthHomework.sol:ProposalContract",
								"label": "description",
								"offset": 0,
								"slot": "1",
								"type": "t_string_storage"
							},
							{
								"astId": 11,
								"contract": "contracts/ProposalContractFourthHomework.sol:ProposalContract",
								"label": "approve",
								"offset": 0,
								"slot": "2",
								"type": "t_uint256"
							},
							{
								"astId": 13,
								"contract": "contracts/ProposalContractFourthHomework.sol:ProposalContract",
								"label": "reject",
								"offset": 0,
								"slot": "3",
								"type": "t_uint256"
							},
							{
								"astId": 15,
								"contract": "contracts/ProposalContractFourthHomework.sol:ProposalContract",
								"label": "pass",
								"offset": 0,
								"slot": "4",
								"type": "t_uint256"
							},
							{
								"astId": 17,
								"contract": "contracts/ProposalContractFourthHomework.sol:ProposalContract",
								"label": "total_vote_to_end",
								"offset": 0,
								"slot": "5",
								"type": "t_uint256"
							},
							{
								"astId": 19,
								"contract": "contracts/ProposalContractFourthHomework.sol:ProposalContract",
								"label": "current_state",
								"offset": 0,
								"slot": "6",
								"type": "t_bool"
							},
							{
								"astId": 21,
								"contract": "contracts/ProposalContractFourthHomework.sol:ProposalContract",
								"label": "is_active",
								"offset": 1,
								"slot": "6",
								"type": "t_bool"
							}
						],
						"numberOfBytes": "224"
					},
					"t_uint256": {
						"encoding": "inplace",
						"label": "uint256",
						"numberOfBytes": "32"
					}
				}
			},
			"userdoc": {
				"kind": "user",
				"methods": {},
				"version": 1
			}
		}
	}
}