{
	"contracts/ProposalContractThirdHomework.sol": {
		"ProposalContract": {
			"abi": [
				{
					"inputs": [],
					"stateMutability": "nonpayable",
					"type": "constructor"
				},
				{
					"inputs": [
						{
							"internalType": "string",
							"name": "_title",
							"type": "string"
						},
						{
							"internalType": "string",
							"name": "_description",
							"type": "string"
						},
						{
							"internalType": "uint256",
							"name": "_total_vote_to_end",
							"type": "uint256"
						}
					],
					"name": "create",
					"outputs": [],
					"stateMutability": "nonpayable",
					"type": "function"
				},
				{
					"inputs": [],
					"name": "owner",
					"outputs": [
						{
							"internalType": "address",
							"name": "",
							"type": "address"
						}
					],
					"stateMutability": "view",
					"type": "function"
				},
				{
					"inputs": [
						{
							"internalType": "uint256",
							"name": "",
							"type": "uint256"
						}
					],
					"name": "proposal_history",
					"outputs": [
						{
							"internalType": "string",
							"name": "title",
							"type": "string"
						},
						{
							"internalType": "string",
							"name": "description",
							"type": "string"
						},
						{
							"internalType": "uint256",
							"name": "approve",
							"type": "uint256"
						},
						{
							"internalType": "uint256",
							"name": "reject",
							"type": "uint256"
						},
						{
							"internalType": "uint256",
							"name": "pass",
							"type": "uint256"
						},
						{
							"internalType": "uint256",
							"name": "total_vote_to_end",
							"type": "uint256"
						},
						{
							"internalType": "bool",
							"name": "current_state",
							"type": "bool"
						},
						{
							"internalType": "bool",
							"name": "is_active",
							"type": "bool"
						}
					],
					"stateMutability": "view",
					"type": "function"
				}
			],
			"devdoc": {
				"kind": "dev",
				"methods": {},
				"version": 1
			},
			"evm": {
				"assembly": "    /* \"contracts/ProposalContractThirdHomework.sol\":61:1687  contract ProposalContract {... */\n  mstore(0x40, 0x80)\n    /* \"contracts/ProposalContractThirdHomework.sol\":1006:1079  constructor() {... */\n  callvalue\n  dup1\n  iszero\n  tag_1\n  jumpi\n  0x00\n  dup1\n  revert\ntag_1:\n  pop\n    /* \"contracts/ProposalContractThirdHomework.sol\":1039:1049  msg.sender */\n  caller\n    /* \"contracts/ProposalContractThirdHomework.sol\":1031:1036  owner */\n  0x01\n  0x00\n    /* \"contracts/ProposalContractThirdHomework.sol\":1031:1049  owner = msg.sender */\n  0x0100\n  exp\n  dup2\n  sload\n  dup2\n  0xffffffffffffffffffffffffffffffffffffffff\n  mul\n  not\n  and\n  swap1\n  dup4\n  0xffffffffffffffffffffffffffffffffffffffff\n  and\n  mul\n  or\n  swap1\n  sstore\n  pop\n    /* \"contracts/ProposalContractThirdHomework.sol\":1070:1071  0 */\n  0x00\n    /* \"contracts/ProposalContractThirdHomework.sol\":1060:1067  counter */\n  dup1\n    /* \"contracts/ProposalContractThirdHomework.sol\":1060:1071  counter = 0 */\n  dup2\n  swap1\n  sstore\n  pop\n    /* \"contracts/ProposalContractThirdHomework.sol\":61:1687  contract ProposalContract {... */\n  dataSize(sub_0)\n  dup1\n  dataOffset(sub_0)\n  0x00\n  codecopy\n  0x00\n  return\nstop\n\nsub_0: assembly {\n        /* \"contracts/ProposalContractThirdHomework.sol\":61:1687  contract ProposalContract {... */\n      mstore(0x40, 0x80)\n      callvalue\n      dup1\n      iszero\n      tag_1\n      jumpi\n      0x00\n      dup1\n      revert\n    tag_1:\n      pop\n      jumpi(tag_2, lt(calldatasize, 0x04))\n      shr(0xe0, calldataload(0x00))\n      dup1\n      0x350f0d8c\n      eq\n      tag_3\n      jumpi\n      dup1\n      0x3ca6d100\n      eq\n      tag_4\n      jumpi\n      dup1\n      0x8da5cb5b\n      eq\n      tag_5\n      jumpi\n    tag_2:\n      0x00\n      dup1\n      revert\n        /* \"contracts/ProposalContractThirdHomework.sol\":782:834  mapping(uint256 => Proposal) public proposal_history */\n    tag_3:\n      tag_6\n      0x04\n      dup1\n      calldatasize\n      sub\n      dup2\n      add\n      swap1\n      tag_7\n      swap2\n      swap1\n      tag_8\n      jump\t// in\n    tag_7:\n      tag_9\n      jump\t// in\n    tag_6:\n      mload(0x40)\n      tag_10\n      swap9\n      swap8\n      swap7\n      swap6\n      swap5\n      swap4\n      swap3\n      swap2\n      swap1\n      tag_11\n      jump\t// in\n    tag_10:\n      mload(0x40)\n      dup1\n      swap2\n      sub\n      swap1\n      return\n        /* \"contracts/ProposalContractThirdHomework.sol\":1136:1600  function create(string calldata _title, string calldata _description, uint256 _total_vote_to_end) external onlyOwner {... */\n    tag_4:\n      tag_12\n      0x04\n      dup1\n      calldatasize\n      sub\n      dup2\n      add\n      swap1\n      tag_13\n      swap2\n      swap1\n      tag_14\n      jump\t// in\n    tag_13:\n      tag_15\n      jump\t// in\n    tag_12:\n      stop\n        /* \"contracts/ProposalContractThirdHomework.sol\":165:185  address public owner */\n    tag_5:\n      tag_16\n      tag_17\n      jump\t// in\n    tag_16:\n      mload(0x40)\n      tag_18\n      swap2\n      swap1\n      tag_19\n      jump\t// in\n    tag_18:\n      mload(0x40)\n      dup1\n      swap2\n      sub\n      swap1\n      return\n        /* \"contracts/ProposalContractThirdHomework.sol\":782:834  mapping(uint256 => Proposal) public proposal_history */\n    tag_9:\n      mstore(0x20, 0x02)\n      dup1\n      0x00\n      mstore\n      keccak256(0x00, 0x40)\n      0x00\n      swap2\n      pop\n      swap1\n      pop\n      dup1\n      0x00\n      add\n      dup1\n      sload\n      tag_20\n      swap1\n      tag_21\n      jump\t// in\n    tag_20:\n      dup1\n      0x1f\n      add\n      0x20\n      dup1\n      swap2\n      div\n      mul\n      0x20\n      add\n      mload(0x40)\n      swap1\n      dup2\n      add\n      0x40\n      mstore\n      dup1\n      swap3\n      swap2\n      swap1\n      dup2\n      dup2\n      mstore\n      0x20\n      add\n      dup3\n      dup1\n      sload\n      tag_22\n      swap1\n      tag_21\n      jump\t// in\n    tag_22:\n      dup1\n      iszero\n      tag_23\n      jumpi\n      dup1\n      0x1f\n      lt\n      tag_24\n      jumpi\n      0x0100\n      dup1\n      dup4\n      sload\n      div\n      mul\n      dup4\n      mstore\n      swap2\n      0x20\n      add\n      swap2\n      jump(tag_23)\n    tag_24:\n      dup3\n      add\n      swap2\n      swap1\n      0x00\n      mstore\n      keccak256(0x00, 0x20)\n      swap1\n    tag_25:\n      dup2\n      sload\n      dup2\n      mstore\n      swap1\n      0x01\n      add\n      swap1\n      0x20\n      add\n      dup1\n      dup4\n      gt\n      tag_25\n      jumpi\n      dup3\n      swap1\n      sub\n      0x1f\n      and\n      dup3\n      add\n      swap2\n    tag_23:\n      pop\n      pop\n      pop\n      pop\n      pop\n      swap1\n      dup1\n      0x01\n      add\n      dup1\n      sload\n      tag_26\n      swap1\n      tag_21\n      jump\t// in\n    tag_26:\n      dup1\n      0x1f\n      add\n      0x20\n      dup1\n      swap2\n      div\n      mul\n      0x20\n      add\n      mload(0x40)\n      swap1\n      dup2\n      add\n      0x40\n      mstore\n      dup1\n      swap3\n      swap2\n      swap1\n      dup2\n      dup2\n      mstore\n      0x20\n      add\n      dup3\n      dup1\n      sload\n      tag_27\n      swap1\n      tag_21\n      jump\t// in\n    tag_27:\n      dup1\n      iszero\n      tag_28\n      jumpi\n      dup1\n      0x1f\n      lt\n      tag_29\n      jumpi\n      0x0100\n      dup1\n      dup4\n      sload\n      div\n      mul\n      dup4\n      mstore\n      swap2\n      0x20\n      add\n      swap2\n      jump(tag_28)\n    tag_29:\n      dup3\n      add\n      swap2\n      swap1\n      0x00\n      mstore\n      keccak256(0x00, 0x20)\n      swap1\n    tag_30:\n      dup2\n      sload\n      dup2\n      mstore\n      swap1\n      0x01\n      add\n      swap1\n      0x20\n      add\n      dup1\n      dup4\n      gt\n      tag_30\n      jumpi\n      dup3\n      swap1\n      sub\n      0x1f\n      and\n      dup3\n      add\n      swap2\n    tag_28:\n      pop\n      pop\n      pop\n      pop\n      pop\n      swap1\n      dup1\n      0x02\n      add\n      sload\n      swap1\n      dup1\n      0x03\n      add\n      sload\n      swap1\n      dup1\n      0x04\n      add\n      sload\n      swap1\n      dup1\n      0x05\n      add\n      sload\n      swap1\n      dup1\n      0x06\n      add\n      0x00\n      swap1\n      sload\n      swap1\n      0x0100\n      exp\n      swap1\n      div\n      0xff\n      and\n      swap1\n      dup1\n      0x06\n      add\n      0x01\n      swap1\n      sload\n      swap1\n      0x0100\n      exp\n      swap1\n      div\n      0xff\n      and\n      swap1\n      pop\n      dup9\n      jump\t// out\n        /* \"contracts/ProposalContractThirdHomework.sol\":1136:1600  function create(string calldata _title, string calldata _description, uint256 _total_vote_to_end) external onlyOwner {... */\n    tag_15:\n        /* \"contracts/ProposalContractThirdHomework.sol\":933:938  owner */\n      0x01\n      0x00\n      swap1\n      sload\n      swap1\n      0x0100\n      exp\n      swap1\n      div\n      0xffffffffffffffffffffffffffffffffffffffff\n      and\n        /* \"contracts/ProposalContractThirdHomework.sol\":919:938  msg.sender == owner */\n      0xffffffffffffffffffffffffffffffffffffffff\n      and\n        /* \"contracts/ProposalContractThirdHomework.sol\":919:929  msg.sender */\n      caller\n        /* \"contracts/ProposalContractThirdHomework.sol\":919:938  msg.sender == owner */\n      0xffffffffffffffffffffffffffffffffffffffff\n      and\n      eq\n        /* \"contracts/ProposalContractThirdHomework.sol\":911:978  require(msg.sender == owner, \"Only the owner can create proposals\") */\n      tag_32\n      jumpi\n      mload(0x40)\n      0x08c379a000000000000000000000000000000000000000000000000000000000\n      dup2\n      mstore\n      0x04\n      add\n      tag_33\n      swap1\n      tag_34\n      jump\t// in\n    tag_33:\n      mload(0x40)\n      dup1\n      swap2\n      sub\n      swap1\n      revert\n    tag_32:\n        /* \"contracts/ProposalContractThirdHomework.sol\":1275:1276  1 */\n      0x01\n        /* \"contracts/ProposalContractThirdHomework.sol\":1264:1271  counter */\n      0x00\n      dup1\n        /* \"contracts/ProposalContractThirdHomework.sol\":1264:1276  counter += 1 */\n      dup3\n      dup3\n      sload\n      tag_36\n      swap2\n      swap1\n      tag_37\n      jump\t// in\n    tag_36:\n      swap3\n      pop\n      pop\n      dup2\n      swap1\n      sstore\n      pop\n        /* \"contracts/ProposalContractThirdHomework.sol\":1315:1592  Proposal({... */\n      mload(0x40)\n      dup1\n      0x0100\n      add\n      0x40\n      mstore\n      dup1\n        /* \"contracts/ProposalContractThirdHomework.sol\":1346:1352  _title */\n      dup7\n      dup7\n        /* \"contracts/ProposalContractThirdHomework.sol\":1315:1592  Proposal({... */\n      dup1\n      dup1\n      0x1f\n      add\n      0x20\n      dup1\n      swap2\n      div\n      mul\n      0x20\n      add\n      mload(0x40)\n      swap1\n      dup2\n      add\n      0x40\n      mstore\n      dup1\n      swap4\n      swap3\n      swap2\n      swap1\n      dup2\n      dup2\n      mstore\n      0x20\n      add\n      dup4\n      dup4\n      dup1\n      dup3\n      dup5\n      calldatacopy\n      0x00\n      dup2\n      dup5\n      add\n      mstore\n      not(0x1f)\n      0x1f\n      dup3\n      add\n      and\n      swap1\n      pop\n      dup1\n      dup4\n      add\n      swap3\n      pop\n      pop\n      pop\n      pop\n      pop\n      pop\n      pop\n      dup2\n      mstore\n      0x20\n      add\n        /* \"contracts/ProposalContractThirdHomework.sol\":1380:1392  _description */\n      dup5\n      dup5\n        /* \"contracts/ProposalContractThirdHomework.sol\":1315:1592  Proposal({... */\n      dup1\n      dup1\n      0x1f\n      add\n      0x20\n      dup1\n      swap2\n      div\n      mul\n      0x20\n      add\n      mload(0x40)\n      swap1\n      dup2\n      add\n      0x40\n      mstore\n      dup1\n      swap4\n      swap3\n      swap2\n      swap1\n      dup2\n      dup2\n      mstore\n      0x20\n      add\n      dup4\n      dup4\n      dup1\n      dup3\n      dup5\n      calldatacopy\n      0x00\n      dup2\n      dup5\n      add\n      mstore\n      not(0x1f)\n      0x1f\n      dup3\n      add\n      and\n      swap1\n      pop\n      dup1\n      dup4\n      add\n      swap3\n      pop\n      pop\n      pop\n      pop\n      pop\n      pop\n      pop\n      dup2\n      mstore\n      0x20\n      add\n        /* \"contracts/ProposalContractThirdHomework.sol\":1416:1417  0 */\n      0x00\n        /* \"contracts/ProposalContractThirdHomework.sol\":1315:1592  Proposal({... */\n      dup2\n      mstore\n      0x20\n      add\n        /* \"contracts/ProposalContractThirdHomework.sol\":1440:1441  0 */\n      0x00\n        /* \"contracts/ProposalContractThirdHomework.sol\":1315:1592  Proposal({... */\n      dup2\n      mstore\n      0x20\n      add\n        /* \"contracts/ProposalContractThirdHomework.sol\":1462:1463  0 */\n      0x00\n        /* \"contracts/ProposalContractThirdHomework.sol\":1315:1592  Proposal({... */\n      dup2\n      mstore\n      0x20\n      add\n        /* \"contracts/ProposalContractThirdHomework.sol\":1497:1515  _total_vote_to_end */\n      dup3\n        /* \"contracts/ProposalContractThirdHomework.sol\":1315:1592  Proposal({... */\n      dup2\n      mstore\n      0x20\n      add\n        /* \"contracts/ProposalContractThirdHomework.sol\":1545:1550  false */\n      0x00\n        /* \"contracts/ProposalContractThirdHomework.sol\":1315:1592  Proposal({... */\n      iszero\n      iszero\n      dup2\n      mstore\n      0x20\n      add\n        /* \"contracts/ProposalContractThirdHomework.sol\":1576:1580  true */\n      0x01\n        /* \"contracts/ProposalContractThirdHomework.sol\":1315:1592  Proposal({... */\n      iszero\n      iszero\n      dup2\n      mstore\n      pop\n        /* \"contracts/ProposalContractThirdHomework.sol\":1287:1303  proposal_history */\n      0x02\n        /* \"contracts/ProposalContractThirdHomework.sol\":1287:1312  proposal_history[counter] */\n      0x00\n        /* \"contracts/ProposalContractThirdHomework.sol\":1304:1311  counter */\n      dup1\n      sload\n        /* \"contracts/ProposalContractThirdHomework.sol\":1287:1312  proposal_history[counter] */\n      dup2\n      mstore\n      0x20\n      add\n      swap1\n      dup2\n      mstore\n      0x20\n      add\n      0x00\n      keccak256\n        /* \"contracts/ProposalContractThirdHomework.sol\":1287:1592  proposal_history[counter] = Proposal({... */\n      0x00\n      dup3\n      add\n      mload\n      dup2\n      0x00\n      add\n      swap1\n      dup2\n      tag_38\n      swap2\n      swap1\n      tag_39\n      jump\t// in\n    tag_38:\n      pop\n      0x20\n      dup3\n      add\n      mload\n      dup2\n      0x01\n      add\n      swap1\n      dup2\n      tag_40\n      swap2\n      swap1\n      tag_39\n      jump\t// in\n    tag_40:\n      pop\n      0x40\n      dup3\n      add\n      mload\n      dup2\n      0x02\n      add\n      sstore\n      0x60\n      dup3\n      add\n      mload\n      dup2\n      0x03\n      add\n      sstore\n      0x80\n      dup3\n      add\n      mload\n      dup2\n      0x04\n      add\n      sstore\n      0xa0\n      dup3\n      add\n      mload\n      dup2\n      0x05\n      add\n      sstore\n      0xc0\n      dup3\n      add\n      mload\n      dup2\n      0x06\n      add\n      exp(0x0100, 0x00)\n      dup2\n      sload\n      dup2\n      0xff\n      mul\n      not\n      and\n      swap1\n      dup4\n      iszero\n      iszero\n      mul\n      or\n      swap1\n      sstore\n      pop\n      0xe0\n      dup3\n      add\n      mload\n      dup2\n      0x06\n      add\n      exp(0x0100, 0x01)\n      dup2\n      sload\n      dup2\n      0xff\n      mul\n      not\n      and\n      swap1\n      dup4\n      iszero\n      iszero\n      mul\n      or\n      swap1\n      sstore\n      pop\n      swap1\n      pop\n      pop\n        /* \"contracts/ProposalContractThirdHomework.sol\":1136:1600  function create(string calldata _title, string calldata _description, uint256 _total_vote_to_end) external onlyOwner {... */\n      pop\n      pop\n      pop\n      pop\n      pop\n      jump\t// out\n        /* \"contracts/ProposalContractThirdHomework.sol\":165:185  address public owner */\n    tag_17:\n      0x01\n      0x00\n      swap1\n      sload\n      swap1\n      0x0100\n      exp\n      swap1\n      div\n      0xffffffffffffffffffffffffffffffffffffffff\n      and\n      dup2\n      jump\t// out\n        /* \"#utility.yul\":88:205   */\n    tag_42:\n        /* \"#utility.yul\":197:198   */\n      0x00\n        /* \"#utility.yul\":194:195   */\n      dup1\n        /* \"#utility.yul\":187:199   */\n      revert\n        /* \"#utility.yul\":211:328   */\n    tag_43:\n        /* \"#utility.yul\":320:321   */\n      0x00\n        /* \"#utility.yul\":317:318   */\n      dup1\n        /* \"#utility.yul\":310:322   */\n      revert\n        /* \"#utility.yul\":334:411   */\n    tag_44:\n        /* \"#utility.yul\":371:378   */\n      0x00\n        /* \"#utility.yul\":400:405   */\n      dup2\n        /* \"#utility.yul\":389:405   */\n      swap1\n      pop\n        /* \"#utility.yul\":334:411   */\n      swap2\n      swap1\n      pop\n      jump\t// out\n        /* \"#utility.yul\":417:539   */\n    tag_45:\n        /* \"#utility.yul\":490:514   */\n      tag_88\n        /* \"#utility.yul\":508:513   */\n      dup2\n        /* \"#utility.yul\":490:514   */\n      tag_44\n      jump\t// in\n    tag_88:\n        /* \"#utility.yul\":483:488   */\n      dup2\n        /* \"#utility.yul\":480:515   */\n      eq\n        /* \"#utility.yul\":470:533   */\n      tag_89\n      jumpi\n        /* \"#utility.yul\":529:530   */\n      0x00\n        /* \"#utility.yul\":526:527   */\n      dup1\n        /* \"#utility.yul\":519:531   */\n      revert\n        /* \"#utility.yul\":470:533   */\n    tag_89:\n        /* \"#utility.yul\":417:539   */\n      pop\n      jump\t// out\n        /* \"#utility.yul\":545:684   */\n    tag_46:\n        /* \"#utility.yul\":591:596   */\n      0x00\n        /* \"#utility.yul\":629:635   */\n      dup2\n        /* \"#utility.yul\":616:636   */\n      calldataload\n        /* \"#utility.yul\":607:636   */\n      swap1\n      pop\n        /* \"#utility.yul\":645:678   */\n      tag_91\n        /* \"#utility.yul\":672:677   */\n      dup2\n        /* \"#utility.yul\":645:678   */\n      tag_45\n      jump\t// in\n    tag_91:\n        /* \"#utility.yul\":545:684   */\n      swap3\n      swap2\n      pop\n      pop\n      jump\t// out\n        /* \"#utility.yul\":690:1019   */\n    tag_8:\n        /* \"#utility.yul\":749:755   */\n      0x00\n        /* \"#utility.yul\":798:800   */\n      0x20\n        /* \"#utility.yul\":786:795   */\n      dup3\n        /* \"#utility.yul\":777:784   */\n      dup5\n        /* \"#utility.yul\":773:796   */\n      sub\n        /* \"#utility.yul\":769:801   */\n      slt\n        /* \"#utility.yul\":766:885   */\n      iszero\n      tag_93\n      jumpi\n        /* \"#utility.yul\":804:883   */\n      tag_94\n      tag_42\n      jump\t// in\n    tag_94:\n        /* \"#utility.yul\":766:885   */\n    tag_93:\n        /* \"#utility.yul\":924:925   */\n      0x00\n        /* \"#utility.yul\":949:1002   */\n      tag_95\n        /* \"#utility.yul\":994:1001   */\n      dup5\n        /* \"#utility.yul\":985:991   */\n      dup3\n        /* \"#utility.yul\":974:983   */\n      dup6\n        /* \"#utility.yul\":970:992   */\n      add\n        /* \"#utility.yul\":949:1002   */\n      tag_46\n      jump\t// in\n    tag_95:\n        /* \"#utility.yul\":939:1002   */\n      swap2\n      pop\n        /* \"#utility.yul\":895:1012   */\n      pop\n        /* \"#utility.yul\":690:1019   */\n      swap3\n      swap2\n      pop\n      pop\n      jump\t// out\n        /* \"#utility.yul\":1025:1124   */\n    tag_47:\n        /* \"#utility.yul\":1077:1083   */\n      0x00\n        /* \"#utility.yul\":1111:1116   */\n      dup2\n        /* \"#utility.yul\":1105:1117   */\n      mload\n        /* \"#utility.yul\":1095:1117   */\n      swap1\n      pop\n        /* \"#utility.yul\":1025:1124   */\n      swap2\n      swap1\n      pop\n      jump\t// out\n        /* \"#utility.yul\":1130:1299   */\n    tag_48:\n        /* \"#utility.yul\":1214:1225   */\n      0x00\n        /* \"#utility.yul\":1248:1254   */\n      dup3\n        /* \"#utility.yul\":1243:1246   */\n      dup3\n        /* \"#utility.yul\":1236:1255   */\n      mstore\n        /* \"#utility.yul\":1288:1292   */\n      0x20\n        /* \"#utility.yul\":1283:1286   */\n      dup3\n        /* \"#utility.yul\":1279:1293   */\n      add\n        /* \"#utility.yul\":1264:1293   */\n      swap1\n      pop\n        /* \"#utility.yul\":1130:1299   */\n      swap3\n      swap2\n      pop\n      pop\n      jump\t// out\n        /* \"#utility.yul\":1305:1444   */\n    tag_49:\n        /* \"#utility.yul\":1394:1400   */\n      dup3\n        /* \"#utility.yul\":1389:1392   */\n      dup2\n        /* \"#utility.yul\":1384:1387   */\n      dup4\n        /* \"#utility.yul\":1378:1401   */\n      mcopy\n        /* \"#utility.yul\":1435:1436   */\n      0x00\n        /* \"#utility.yul\":1426:1432   */\n      dup4\n        /* \"#utility.yul\":1421:1424   */\n      dup4\n        /* \"#utility.yul\":1417:1433   */\n      add\n        /* \"#utility.yul\":1410:1437   */\n      mstore\n        /* \"#utility.yul\":1305:1444   */\n      pop\n      pop\n      pop\n      jump\t// out\n        /* \"#utility.yul\":1450:1552   */\n    tag_50:\n        /* \"#utility.yul\":1491:1497   */\n      0x00\n        /* \"#utility.yul\":1542:1544   */\n      0x1f\n        /* \"#utility.yul\":1538:1545   */\n      not\n        /* \"#utility.yul\":1533:1535   */\n      0x1f\n        /* \"#utility.yul\":1526:1531   */\n      dup4\n        /* \"#utility.yul\":1522:1536   */\n      add\n        /* \"#utility.yul\":1518:1546   */\n      and\n        /* \"#utility.yul\":1508:1546   */\n      swap1\n      pop\n        /* \"#utility.yul\":1450:1552   */\n      swap2\n      swap1\n      pop\n      jump\t// out\n        /* \"#utility.yul\":1558:1935   */\n    tag_51:\n        /* \"#utility.yul\":1646:1649   */\n      0x00\n        /* \"#utility.yul\":1674:1713   */\n      tag_101\n        /* \"#utility.yul\":1707:1712   */\n      dup3\n        /* \"#utility.yul\":1674:1713   */\n      tag_47\n      jump\t// in\n    tag_101:\n        /* \"#utility.yul\":1729:1800   */\n      tag_102\n        /* \"#utility.yul\":1793:1799   */\n      dup2\n        /* \"#utility.yul\":1788:1791   */\n      dup6\n        /* \"#utility.yul\":1729:1800   */\n      tag_48\n      jump\t// in\n    tag_102:\n        /* \"#utility.yul\":1722:1800   */\n      swap4\n      pop\n        /* \"#utility.yul\":1809:1874   */\n      tag_103\n        /* \"#utility.yul\":1867:1873   */\n      dup2\n        /* \"#utility.yul\":1862:1865   */\n      dup6\n        /* \"#utility.yul\":1855:1859   */\n      0x20\n        /* \"#utility.yul\":1848:1853   */\n      dup7\n        /* \"#utility.yul\":1844:1860   */\n      add\n        /* \"#utility.yul\":1809:1874   */\n      tag_49\n      jump\t// in\n    tag_103:\n        /* \"#utility.yul\":1899:1928   */\n      tag_104\n        /* \"#utility.yul\":1921:1927   */\n      dup2\n        /* \"#utility.yul\":1899:1928   */\n      tag_50\n      jump\t// in\n    tag_104:\n        /* \"#utility.yul\":1894:1897   */\n      dup5\n        /* \"#utility.yul\":1890:1929   */\n      add\n        /* \"#utility.yul\":1883:1929   */\n      swap2\n      pop\n        /* \"#utility.yul\":1650:1935   */\n      pop\n        /* \"#utility.yul\":1558:1935   */\n      swap3\n      swap2\n      pop\n      pop\n      jump\t// out\n        /* \"#utility.yul\":1941:2059   */\n    tag_52:\n        /* \"#utility.yul\":2028:2052   */\n      tag_106\n        /* \"#utility.yul\":2046:2051   */\n      dup2\n        /* \"#utility.yul\":2028:2052   */\n      tag_44\n      jump\t// in\n    tag_106:\n        /* \"#utility.yul\":2023:2026   */\n      dup3\n        /* \"#utility.yul\":2016:2053   */\n      mstore\n        /* \"#utility.yul\":1941:2059   */\n      pop\n      pop\n      jump\t// out\n        /* \"#utility.yul\":2065:2155   */\n    tag_53:\n        /* \"#utility.yul\":2099:2106   */\n      0x00\n        /* \"#utility.yul\":2142:2147   */\n      dup2\n        /* \"#utility.yul\":2135:2148   */\n      iszero\n        /* \"#utility.yul\":2128:2149   */\n      iszero\n        /* \"#utility.yul\":2117:2149   */\n      swap1\n      pop\n        /* \"#utility.yul\":2065:2155   */\n      swap2\n      swap1\n      pop\n      jump\t// out\n        /* \"#utility.yul\":2161:2270   */\n    tag_54:\n        /* \"#utility.yul\":2242:2263   */\n      tag_109\n        /* \"#utility.yul\":2257:2262   */\n      dup2\n        /* \"#utility.yul\":2242:2263   */\n      tag_53\n      jump\t// in\n    tag_109:\n        /* \"#utility.yul\":2237:2240   */\n      dup3\n        /* \"#utility.yul\":2230:2264   */\n      mstore\n        /* \"#utility.yul\":2161:2270   */\n      pop\n      pop\n      jump\t// out\n        /* \"#utility.yul\":2276:3431   */\n    tag_11:\n        /* \"#utility.yul\":2593:2597   */\n      0x00\n        /* \"#utility.yul\":2631:2634   */\n      0x0100\n        /* \"#utility.yul\":2620:2629   */\n      dup3\n        /* \"#utility.yul\":2616:2635   */\n      add\n        /* \"#utility.yul\":2608:2635   */\n      swap1\n      pop\n        /* \"#utility.yul\":2681:2690   */\n      dup2\n        /* \"#utility.yul\":2675:2679   */\n      dup2\n        /* \"#utility.yul\":2671:2691   */\n      sub\n        /* \"#utility.yul\":2667:2668   */\n      0x00\n        /* \"#utility.yul\":2656:2665   */\n      dup4\n        /* \"#utility.yul\":2652:2669   */\n      add\n        /* \"#utility.yul\":2645:2692   */\n      mstore\n        /* \"#utility.yul\":2709:2787   */\n      tag_111\n        /* \"#utility.yul\":2782:2786   */\n      dup2\n        /* \"#utility.yul\":2773:2779   */\n      dup12\n        /* \"#utility.yul\":2709:2787   */\n      tag_51\n      jump\t// in\n    tag_111:\n        /* \"#utility.yul\":2701:2787   */\n      swap1\n      pop\n        /* \"#utility.yul\":2834:2843   */\n      dup2\n        /* \"#utility.yul\":2828:2832   */\n      dup2\n        /* \"#utility.yul\":2824:2844   */\n      sub\n        /* \"#utility.yul\":2819:2821   */\n      0x20\n        /* \"#utility.yul\":2808:2817   */\n      dup4\n        /* \"#utility.yul\":2804:2822   */\n      add\n        /* \"#utility.yul\":2797:2845   */\n      mstore\n        /* \"#utility.yul\":2862:2940   */\n      tag_112\n        /* \"#utility.yul\":2935:2939   */\n      dup2\n        /* \"#utility.yul\":2926:2932   */\n      dup11\n        /* \"#utility.yul\":2862:2940   */\n      tag_51\n      jump\t// in\n    tag_112:\n        /* \"#utility.yul\":2854:2940   */\n      swap1\n      pop\n        /* \"#utility.yul\":2950:3022   */\n      tag_113\n        /* \"#utility.yul\":3018:3020   */\n      0x40\n        /* \"#utility.yul\":3007:3016   */\n      dup4\n        /* \"#utility.yul\":3003:3021   */\n      add\n        /* \"#utility.yul\":2994:3000   */\n      dup10\n        /* \"#utility.yul\":2950:3022   */\n      tag_52\n      jump\t// in\n    tag_113:\n        /* \"#utility.yul\":3032:3104   */\n      tag_114\n        /* \"#utility.yul\":3100:3102   */\n      0x60\n        /* \"#utility.yul\":3089:3098   */\n      dup4\n        /* \"#utility.yul\":3085:3103   */\n      add\n        /* \"#utility.yul\":3076:3082   */\n      dup9\n        /* \"#utility.yul\":3032:3104   */\n      tag_52\n      jump\t// in\n    tag_114:\n        /* \"#utility.yul\":3114:3187   */\n      tag_115\n        /* \"#utility.yul\":3182:3185   */\n      0x80\n        /* \"#utility.yul\":3171:3180   */\n      dup4\n        /* \"#utility.yul\":3167:3186   */\n      add\n        /* \"#utility.yul\":3158:3164   */\n      dup8\n        /* \"#utility.yul\":3114:3187   */\n      tag_52\n      jump\t// in\n    tag_115:\n        /* \"#utility.yul\":3197:3270   */\n      tag_116\n        /* \"#utility.yul\":3265:3268   */\n      0xa0\n        /* \"#utility.yul\":3254:3263   */\n      dup4\n        /* \"#utility.yul\":3250:3269   */\n      add\n        /* \"#utility.yul\":3241:3247   */\n      dup7\n        /* \"#utility.yul\":3197:3270   */\n      tag_52\n      jump\t// in\n    tag_116:\n        /* \"#utility.yul\":3280:3347   */\n      tag_117\n        /* \"#utility.yul\":3342:3345   */\n      0xc0\n        /* \"#utility.yul\":3331:3340   */\n      dup4\n        /* \"#utility.yul\":3327:3346   */\n      add\n        /* \"#utility.yul\":3318:3324   */\n      dup6\n        /* \"#utility.yul\":3280:3347   */\n      tag_54\n      jump\t// in\n    tag_117:\n        /* \"#utility.yul\":3357:3424   */\n      tag_118\n        /* \"#utility.yul\":3419:3422   */\n      0xe0\n        /* \"#utility.yul\":3408:3417   */\n      dup4\n        /* \"#utility.yul\":3404:3423   */\n      add\n        /* \"#utility.yul\":3395:3401   */\n      dup5\n        /* \"#utility.yul\":3357:3424   */\n      tag_54\n      jump\t// in\n    tag_118:\n        /* \"#utility.yul\":2276:3431   */\n      swap10\n      swap9\n      pop\n      pop\n      pop\n      pop\n      pop\n      pop\n      pop\n      pop\n      pop\n      jump\t// out\n        /* \"#utility.yul\":3437:3554   */\n    tag_55:\n        /* \"#utility.yul\":3546:3547   */\n      0x00\n        /* \"#utility.yul\":3543:3544   */\n      dup1\n        /* \"#utility.yul\":3536:3548   */\n      revert\n        /* \"#utility.yul\":3560:3677   */\n    tag_56:\n        /* \"#utility.yul\":3669:3670   */\n      0x00\n        /* \"#utility.yul\":3666:3667   */\n      dup1\n        /* \"#utility.yul\":3659:3671   */\n      revert\n        /* \"#utility.yul\":3683:3800   */\n    tag_57:\n        /* \"#utility.yul\":3792:3793   */\n      0x00\n        /* \"#utility.yul\":3789:3790   */\n      dup1\n        /* \"#utility.yul\":3782:3794   */\n      revert\n        /* \"#utility.yul\":3820:4373   */\n    tag_58:\n        /* \"#utility.yul\":3878:3886   */\n      0x00\n        /* \"#utility.yul\":3888:3894   */\n      dup1\n        /* \"#utility.yul\":3938:3941   */\n      dup4\n        /* \"#utility.yul\":3931:3935   */\n      0x1f\n        /* \"#utility.yul\":3923:3929   */\n      dup5\n        /* \"#utility.yul\":3919:3936   */\n      add\n        /* \"#utility.yul\":3915:3942   */\n      slt\n        /* \"#utility.yul\":3905:4027   */\n      tag_123\n      jumpi\n        /* \"#utility.yul\":3946:4025   */\n      tag_124\n      tag_55\n      jump\t// in\n    tag_124:\n        /* \"#utility.yul\":3905:4027   */\n    tag_123:\n        /* \"#utility.yul\":4059:4065   */\n      dup3\n        /* \"#utility.yul\":4046:4066   */\n      calldataload\n        /* \"#utility.yul\":4036:4066   */\n      swap1\n      pop\n        /* \"#utility.yul\":4089:4107   */\n      0xffffffffffffffff\n        /* \"#utility.yul\":4081:4087   */\n      dup2\n        /* \"#utility.yul\":4078:4108   */\n      gt\n        /* \"#utility.yul\":4075:4192   */\n      iszero\n      tag_125\n      jumpi\n        /* \"#utility.yul\":4111:4190   */\n      tag_126\n      tag_56\n      jump\t// in\n    tag_126:\n        /* \"#utility.yul\":4075:4192   */\n    tag_125:\n        /* \"#utility.yul\":4225:4229   */\n      0x20\n        /* \"#utility.yul\":4217:4223   */\n      dup4\n        /* \"#utility.yul\":4213:4230   */\n      add\n        /* \"#utility.yul\":4201:4230   */\n      swap2\n      pop\n        /* \"#utility.yul\":4279:4282   */\n      dup4\n        /* \"#utility.yul\":4271:4275   */\n      0x01\n        /* \"#utility.yul\":4263:4269   */\n      dup3\n        /* \"#utility.yul\":4259:4276   */\n      mul\n        /* \"#utility.yul\":4249:4257   */\n      dup4\n        /* \"#utility.yul\":4245:4277   */\n      add\n        /* \"#utility.yul\":4242:4283   */\n      gt\n        /* \"#utility.yul\":4239:4367   */\n      iszero\n      tag_127\n      jumpi\n        /* \"#utility.yul\":4286:4365   */\n      tag_128\n      tag_57\n      jump\t// in\n    tag_128:\n        /* \"#utility.yul\":4239:4367   */\n    tag_127:\n        /* \"#utility.yul\":3820:4373   */\n      swap3\n      pop\n      swap3\n      swap1\n      pop\n      jump\t// out\n        /* \"#utility.yul\":4379:5398   */\n    tag_14:\n        /* \"#utility.yul\":4480:4486   */\n      0x00\n        /* \"#utility.yul\":4488:4494   */\n      dup1\n        /* \"#utility.yul\":4496:4502   */\n      0x00\n        /* \"#utility.yul\":4504:4510   */\n      dup1\n        /* \"#utility.yul\":4512:4518   */\n      0x00\n        /* \"#utility.yul\":4561:4563   */\n      0x60\n        /* \"#utility.yul\":4549:4558   */\n      dup7\n        /* \"#utility.yul\":4540:4547   */\n      dup9\n        /* \"#utility.yul\":4536:4559   */\n      sub\n        /* \"#utility.yul\":4532:4564   */\n      slt\n        /* \"#utility.yul\":4529:4648   */\n      iszero\n      tag_130\n      jumpi\n        /* \"#utility.yul\":4567:4646   */\n      tag_131\n      tag_42\n      jump\t// in\n    tag_131:\n        /* \"#utility.yul\":4529:4648   */\n    tag_130:\n        /* \"#utility.yul\":4715:4716   */\n      0x00\n        /* \"#utility.yul\":4704:4713   */\n      dup7\n        /* \"#utility.yul\":4700:4717   */\n      add\n        /* \"#utility.yul\":4687:4718   */\n      calldataload\n        /* \"#utility.yul\":4745:4763   */\n      0xffffffffffffffff\n        /* \"#utility.yul\":4737:4743   */\n      dup2\n        /* \"#utility.yul\":4734:4764   */\n      gt\n        /* \"#utility.yul\":4731:4848   */\n      iszero\n      tag_132\n      jumpi\n        /* \"#utility.yul\":4767:4846   */\n      tag_133\n      tag_43\n      jump\t// in\n    tag_133:\n        /* \"#utility.yul\":4731:4848   */\n    tag_132:\n        /* \"#utility.yul\":4880:4945   */\n      tag_134\n        /* \"#utility.yul\":4937:4944   */\n      dup9\n        /* \"#utility.yul\":4928:4934   */\n      dup3\n        /* \"#utility.yul\":4917:4926   */\n      dup10\n        /* \"#utility.yul\":4913:4935   */\n      add\n        /* \"#utility.yul\":4880:4945   */\n      tag_58\n      jump\t// in\n    tag_134:\n        /* \"#utility.yul\":4862:4945   */\n      swap6\n      pop\n      swap6\n      pop\n        /* \"#utility.yul\":4658:4955   */\n      pop\n        /* \"#utility.yul\":5022:5024   */\n      0x20\n        /* \"#utility.yul\":5011:5020   */\n      dup7\n        /* \"#utility.yul\":5007:5025   */\n      add\n        /* \"#utility.yul\":4994:5026   */\n      calldataload\n        /* \"#utility.yul\":5053:5071   */\n      0xffffffffffffffff\n        /* \"#utility.yul\":5045:5051   */\n      dup2\n        /* \"#utility.yul\":5042:5072   */\n      gt\n        /* \"#utility.yul\":5039:5156   */\n      iszero\n      tag_135\n      jumpi\n        /* \"#utility.yul\":5075:5154   */\n      tag_136\n      tag_43\n      jump\t// in\n    tag_136:\n        /* \"#utility.yul\":5039:5156   */\n    tag_135:\n        /* \"#utility.yul\":5188:5253   */\n      tag_137\n        /* \"#utility.yul\":5245:5252   */\n      dup9\n        /* \"#utility.yul\":5236:5242   */\n      dup3\n        /* \"#utility.yul\":5225:5234   */\n      dup10\n        /* \"#utility.yul\":5221:5243   */\n      add\n        /* \"#utility.yul\":5188:5253   */\n      tag_58\n      jump\t// in\n    tag_137:\n        /* \"#utility.yul\":5170:5253   */\n      swap4\n      pop\n      swap4\n      pop\n        /* \"#utility.yul\":4965:5263   */\n      pop\n        /* \"#utility.yul\":5302:5304   */\n      0x40\n        /* \"#utility.yul\":5328:5381   */\n      tag_138\n        /* \"#utility.yul\":5373:5380   */\n      dup9\n        /* \"#utility.yul\":5364:5370   */\n      dup3\n        /* \"#utility.yul\":5353:5362   */\n      dup10\n        /* \"#utility.yul\":5349:5371   */\n      add\n        /* \"#utility.yul\":5328:5381   */\n      tag_46\n      jump\t// in\n    tag_138:\n        /* \"#utility.yul\":5318:5381   */\n      swap2\n      pop\n        /* \"#utility.yul\":5273:5391   */\n      pop\n        /* \"#utility.yul\":4379:5398   */\n      swap3\n      swap6\n      pop\n      swap3\n      swap6\n      swap1\n      swap4\n      pop\n      jump\t// out\n        /* \"#utility.yul\":5404:5530   */\n    tag_59:\n        /* \"#utility.yul\":5441:5448   */\n      0x00\n        /* \"#utility.yul\":5481:5523   */\n      0xffffffffffffffffffffffffffffffffffffffff\n        /* \"#utility.yul\":5474:5479   */\n      dup3\n        /* \"#utility.yul\":5470:5524   */\n      and\n        /* \"#utility.yul\":5459:5524   */\n      swap1\n      pop\n        /* \"#utility.yul\":5404:5530   */\n      swap2\n      swap1\n      pop\n      jump\t// out\n        /* \"#utility.yul\":5536:5632   */\n    tag_60:\n        /* \"#utility.yul\":5573:5580   */\n      0x00\n        /* \"#utility.yul\":5602:5626   */\n      tag_141\n        /* \"#utility.yul\":5620:5625   */\n      dup3\n        /* \"#utility.yul\":5602:5626   */\n      tag_59\n      jump\t// in\n    tag_141:\n        /* \"#utility.yul\":5591:5626   */\n      swap1\n      pop\n        /* \"#utility.yul\":5536:5632   */\n      swap2\n      swap1\n      pop\n      jump\t// out\n        /* \"#utility.yul\":5638:5756   */\n    tag_61:\n        /* \"#utility.yul\":5725:5749   */\n      tag_143\n        /* \"#utility.yul\":5743:5748   */\n      dup2\n        /* \"#utility.yul\":5725:5749   */\n      tag_60\n      jump\t// in\n    tag_143:\n        /* \"#utility.yul\":5720:5723   */\n      dup3\n        /* \"#utility.yul\":5713:5750   */\n      mstore\n        /* \"#utility.yul\":5638:5756   */\n      pop\n      pop\n      jump\t// out\n        /* \"#utility.yul\":5762:5984   */\n    tag_19:\n        /* \"#utility.yul\":5855:5859   */\n      0x00\n        /* \"#utility.yul\":5893:5895   */\n      0x20\n        /* \"#utility.yul\":5882:5891   */\n      dup3\n        /* \"#utility.yul\":5878:5896   */\n      add\n        /* \"#utility.yul\":5870:5896   */\n      swap1\n      pop\n        /* \"#utility.yul\":5906:5977   */\n      tag_145\n        /* \"#utility.yul\":5974:5975   */\n      0x00\n        /* \"#utility.yul\":5963:5972   */\n      dup4\n        /* \"#utility.yul\":5959:5976   */\n      add\n        /* \"#utility.yul\":5950:5956   */\n      dup5\n        /* \"#utility.yul\":5906:5977   */\n      tag_61\n      jump\t// in\n    tag_145:\n        /* \"#utility.yul\":5762:5984   */\n      swap3\n      swap2\n      pop\n      pop\n      jump\t// out\n        /* \"#utility.yul\":5990:6170   */\n    tag_62:\n        /* \"#utility.yul\":6038:6115   */\n      0x4e487b7100000000000000000000000000000000000000000000000000000000\n        /* \"#utility.yul\":6035:6036   */\n      0x00\n        /* \"#utility.yul\":6028:6116   */\n      mstore\n        /* \"#utility.yul\":6135:6139   */\n      0x22\n        /* \"#utility.yul\":6132:6133   */\n      0x04\n        /* \"#utility.yul\":6125:6140   */\n      mstore\n        /* \"#utility.yul\":6159:6163   */\n      0x24\n        /* \"#utility.yul\":6156:6157   */\n      0x00\n        /* \"#utility.yul\":6149:6164   */\n      revert\n        /* \"#utility.yul\":6176:6496   */\n    tag_21:\n        /* \"#utility.yul\":6220:6226   */\n      0x00\n        /* \"#utility.yul\":6257:6258   */\n      0x02\n        /* \"#utility.yul\":6251:6255   */\n      dup3\n        /* \"#utility.yul\":6247:6259   */\n      div\n        /* \"#utility.yul\":6237:6259   */\n      swap1\n      pop\n        /* \"#utility.yul\":6304:6305   */\n      0x01\n        /* \"#utility.yul\":6298:6302   */\n      dup3\n        /* \"#utility.yul\":6294:6306   */\n      and\n        /* \"#utility.yul\":6325:6343   */\n      dup1\n        /* \"#utility.yul\":6315:6396   */\n      tag_148\n      jumpi\n        /* \"#utility.yul\":6381:6385   */\n      0x7f\n        /* \"#utility.yul\":6373:6379   */\n      dup3\n        /* \"#utility.yul\":6369:6386   */\n      and\n        /* \"#utility.yul\":6359:6386   */\n      swap2\n      pop\n        /* \"#utility.yul\":6315:6396   */\n    tag_148:\n        /* \"#utility.yul\":6443:6445   */\n      0x20\n        /* \"#utility.yul\":6435:6441   */\n      dup3\n        /* \"#utility.yul\":6432:6446   */\n      lt\n        /* \"#utility.yul\":6412:6430   */\n      dup2\n        /* \"#utility.yul\":6409:6447   */\n      sub\n        /* \"#utility.yul\":6406:6490   */\n      tag_149\n      jumpi\n        /* \"#utility.yul\":6462:6480   */\n      tag_150\n      tag_62\n      jump\t// in\n    tag_150:\n        /* \"#utility.yul\":6406:6490   */\n    tag_149:\n        /* \"#utility.yul\":6227:6496   */\n      pop\n        /* \"#utility.yul\":6176:6496   */\n      swap2\n      swap1\n      pop\n      jump\t// out\n        /* \"#utility.yul\":6502:6724   */\n    tag_63:\n        /* \"#utility.yul\":6642:6676   */\n      0x4f6e6c7920746865206f776e65722063616e206372656174652070726f706f73\n        /* \"#utility.yul\":6638:6639   */\n      0x00\n        /* \"#utility.yul\":6630:6636   */\n      dup3\n        /* \"#utility.yul\":6626:6640   */\n      add\n        /* \"#utility.yul\":6619:6677   */\n      mstore\n        /* \"#utility.yul\":6711:6716   */\n      0x616c730000000000000000000000000000000000000000000000000000000000\n        /* \"#utility.yul\":6706:6708   */\n      0x20\n        /* \"#utility.yul\":6698:6704   */\n      dup3\n        /* \"#utility.yul\":6694:6709   */\n      add\n        /* \"#utility.yul\":6687:6717   */\n      mstore\n        /* \"#utility.yul\":6502:6724   */\n      pop\n      jump\t// out\n        /* \"#utility.yul\":6730:7096   */\n    tag_64:\n        /* \"#utility.yul\":6872:6875   */\n      0x00\n        /* \"#utility.yul\":6893:6960   */\n      tag_153\n        /* \"#utility.yul\":6957:6959   */\n      0x23\n        /* \"#utility.yul\":6952:6955   */\n      dup4\n        /* \"#utility.yul\":6893:6960   */\n      tag_48\n      jump\t// in\n    tag_153:\n        /* \"#utility.yul\":6886:6960   */\n      swap2\n      pop\n        /* \"#utility.yul\":6969:7062   */\n      tag_154\n        /* \"#utility.yul\":7058:7061   */\n      dup3\n        /* \"#utility.yul\":6969:7062   */\n      tag_63\n      jump\t// in\n    tag_154:\n        /* \"#utility.yul\":7087:7089   */\n      0x40\n        /* \"#utility.yul\":7082:7085   */\n      dup3\n        /* \"#utility.yul\":7078:7090   */\n      add\n        /* \"#utility.yul\":7071:7090   */\n      swap1\n      pop\n        /* \"#utility.yul\":6730:7096   */\n      swap2\n      swap1\n      pop\n      jump\t// out\n        /* \"#utility.yul\":7102:7521   */\n    tag_34:\n        /* \"#utility.yul\":7268:7272   */\n      0x00\n        /* \"#utility.yul\":7306:7308   */\n      0x20\n        /* \"#utility.yul\":7295:7304   */\n      dup3\n        /* \"#utility.yul\":7291:7309   */\n      add\n        /* \"#utility.yul\":7283:7309   */\n      swap1\n      pop\n        /* \"#utility.yul\":7355:7364   */\n      dup2\n        /* \"#utility.yul\":7349:7353   */\n      dup2\n        /* \"#utility.yul\":7345:7365   */\n      sub\n        /* \"#utility.yul\":7341:7342   */\n      0x00\n        /* \"#utility.yul\":7330:7339   */\n      dup4\n        /* \"#utility.yul\":7326:7343   */\n      add\n        /* \"#utility.yul\":7319:7366   */\n      mstore\n        /* \"#utility.yul\":7383:7514   */\n      tag_156\n        /* \"#utility.yul\":7509:7513   */\n      dup2\n        /* \"#utility.yul\":7383:7514   */\n      tag_64\n      jump\t// in\n    tag_156:\n        /* \"#utility.yul\":7375:7514   */\n      swap1\n      pop\n        /* \"#utility.yul\":7102:7521   */\n      swap2\n      swap1\n      pop\n      jump\t// out\n        /* \"#utility.yul\":7527:7707   */\n    tag_65:\n        /* \"#utility.yul\":7575:7652   */\n      0x4e487b7100000000000000000000000000000000000000000000000000000000\n        /* \"#utility.yul\":7572:7573   */\n      0x00\n        /* \"#utility.yul\":7565:7653   */\n      mstore\n        /* \"#utility.yul\":7672:7676   */\n      0x11\n        /* \"#utility.yul\":7669:7670   */\n      0x04\n        /* \"#utility.yul\":7662:7677   */\n      mstore\n        /* \"#utility.yul\":7696:7700   */\n      0x24\n        /* \"#utility.yul\":7693:7694   */\n      0x00\n        /* \"#utility.yul\":7686:7701   */\n      revert\n        /* \"#utility.yul\":7713:7904   */\n    tag_37:\n        /* \"#utility.yul\":7753:7756   */\n      0x00\n        /* \"#utility.yul\":7772:7792   */\n      tag_159\n        /* \"#utility.yul\":7790:7791   */\n      dup3\n        /* \"#utility.yul\":7772:7792   */\n      tag_44\n      jump\t// in\n    tag_159:\n        /* \"#utility.yul\":7767:7792   */\n      swap2\n      pop\n        /* \"#utility.yul\":7806:7826   */\n      tag_160\n        /* \"#utility.yul\":7824:7825   */\n      dup4\n        /* \"#utility.yul\":7806:7826   */\n      tag_44\n      jump\t// in\n    tag_160:\n        /* \"#utility.yul\":7801:7826   */\n      swap3\n      pop\n        /* \"#utility.yul\":7849:7850   */\n      dup3\n        /* \"#utility.yul\":7846:7847   */\n      dup3\n        /* \"#utility.yul\":7842:7851   */\n      add\n        /* \"#utility.yul\":7835:7851   */\n      swap1\n      pop\n        /* \"#utility.yul\":7870:7873   */\n      dup1\n        /* \"#utility.yul\":7867:7868   */\n      dup3\n        /* \"#utility.yul\":7864:7874   */\n      gt\n        /* \"#utility.yul\":7861:7897   */\n      iszero\n      tag_161\n      jumpi\n        /* \"#utility.yul\":7877:7895   */\n      tag_162\n      tag_65\n      jump\t// in\n    tag_162:\n        /* \"#utility.yul\":7861:7897   */\n    tag_161:\n        /* \"#utility.yul\":7713:7904   */\n      swap3\n      swap2\n      pop\n      pop\n      jump\t// out\n        /* \"#utility.yul\":7910:8090   */\n    tag_66:\n        /* \"#utility.yul\":7958:8035   */\n      0x4e487b7100000000000000000000000000000000000000000000000000000000\n        /* \"#utility.yul\":7955:7956   */\n      0x00\n        /* \"#utility.yul\":7948:8036   */\n      mstore\n        /* \"#utility.yul\":8055:8059   */\n      0x41\n        /* \"#utility.yul\":8052:8053   */\n      0x04\n        /* \"#utility.yul\":8045:8060   */\n      mstore\n        /* \"#utility.yul\":8079:8083   */\n      0x24\n        /* \"#utility.yul\":8076:8077   */\n      0x00\n        /* \"#utility.yul\":8069:8084   */\n      revert\n        /* \"#utility.yul\":8096:8237   */\n    tag_67:\n        /* \"#utility.yul\":8145:8149   */\n      0x00\n        /* \"#utility.yul\":8168:8171   */\n      dup2\n        /* \"#utility.yul\":8160:8171   */\n      swap1\n      pop\n        /* \"#utility.yul\":8191:8194   */\n      dup2\n        /* \"#utility.yul\":8188:8189   */\n      0x00\n        /* \"#utility.yul\":8181:8195   */\n      mstore\n        /* \"#utility.yul\":8225:8229   */\n      0x20\n        /* \"#utility.yul\":8222:8223   */\n      0x00\n        /* \"#utility.yul\":8212:8230   */\n      keccak256\n        /* \"#utility.yul\":8204:8230   */\n      swap1\n      pop\n        /* \"#utility.yul\":8096:8237   */\n      swap2\n      swap1\n      pop\n      jump\t// out\n        /* \"#utility.yul\":8243:8336   */\n    tag_68:\n        /* \"#utility.yul\":8280:8286   */\n      0x00\n        /* \"#utility.yul\":8327:8329   */\n      0x20\n        /* \"#utility.yul\":8322:8324   */\n      0x1f\n        /* \"#utility.yul\":8315:8320   */\n      dup4\n        /* \"#utility.yul\":8311:8325   */\n      add\n        /* \"#utility.yul\":8307:8330   */\n      div\n        /* \"#utility.yul\":8297:8330   */\n      swap1\n      pop\n        /* \"#utility.yul\":8243:8336   */\n      swap2\n      swap1\n      pop\n      jump\t// out\n        /* \"#utility.yul\":8342:8449   */\n    tag_69:\n        /* \"#utility.yul\":8386:8394   */\n      0x00\n        /* \"#utility.yul\":8436:8441   */\n      dup3\n        /* \"#utility.yul\":8430:8434   */\n      dup3\n        /* \"#utility.yul\":8426:8442   */\n      shl\n        /* \"#utility.yul\":8405:8442   */\n      swap1\n      pop\n        /* \"#utility.yul\":8342:8449   */\n      swap3\n      swap2\n      pop\n      pop\n      jump\t// out\n        /* \"#utility.yul\":8455:8848   */\n    tag_70:\n        /* \"#utility.yul\":8524:8530   */\n      0x00\n        /* \"#utility.yul\":8574:8575   */\n      0x08\n        /* \"#utility.yul\":8562:8572   */\n      dup4\n        /* \"#utility.yul\":8558:8576   */\n      mul\n        /* \"#utility.yul\":8597:8694   */\n      tag_168\n        /* \"#utility.yul\":8627:8693   */\n      0xffffffffffffffffffffffffffffffffffffffffffffffffffffffffffffffff\n        /* \"#utility.yul\":8616:8625   */\n      dup3\n        /* \"#utility.yul\":8597:8694   */\n      tag_69\n      jump\t// in\n    tag_168:\n        /* \"#utility.yul\":8715:8754   */\n      tag_169\n        /* \"#utility.yul\":8745:8753   */\n      dup7\n        /* \"#utility.yul\":8734:8743   */\n      dup4\n        /* \"#utility.yul\":8715:8754   */\n      tag_69\n      jump\t// in\n    tag_169:\n        /* \"#utility.yul\":8703:8754   */\n      swap6\n      pop\n        /* \"#utility.yul\":8787:8791   */\n      dup1\n        /* \"#utility.yul\":8783:8792   */\n      not\n        /* \"#utility.yul\":8776:8781   */\n      dup5\n        /* \"#utility.yul\":8772:8793   */\n      and\n        /* \"#utility.yul\":8763:8793   */\n      swap4\n      pop\n        /* \"#utility.yul\":8836:8840   */\n      dup1\n        /* \"#utility.yul\":8826:8834   */\n      dup7\n        /* \"#utility.yul\":8822:8841   */\n      and\n        /* \"#utility.yul\":8815:8820   */\n      dup5\n        /* \"#utility.yul\":8812:8842   */\n      or\n        /* \"#utility.yul\":8802:8842   */\n      swap3\n      pop\n        /* \"#utility.yul\":8531:8848   */\n      pop\n      pop\n        /* \"#utility.yul\":8455:8848   */\n      swap4\n      swap3\n      pop\n      pop\n      pop\n      jump\t// out\n        /* \"#utility.yul\":8854:8914   */\n    tag_71:\n        /* \"#utility.yul\":8882:8885   */\n      0x00\n        /* \"#utility.yul\":8903:8908   */\n      dup2\n        /* \"#utility.yul\":8896:8908   */\n      swap1\n      pop\n        /* \"#utility.yul\":8854:8914   */\n      swap2\n      swap1\n      pop\n      jump\t// out\n        /* \"#utility.yul\":8920:9062   */\n    tag_72:\n        /* \"#utility.yul\":8970:8979   */\n      0x00\n        /* \"#utility.yul\":9003:9056   */\n      tag_172\n        /* \"#utility.yul\":9021:9055   */\n      tag_173\n        /* \"#utility.yul\":9030:9054   */\n      tag_174\n        /* \"#utility.yul\":9048:9053   */\n      dup5\n        /* \"#utility.yul\":9030:9054   */\n      tag_44\n      jump\t// in\n    tag_174:\n        /* \"#utility.yul\":9021:9055   */\n      tag_71\n      jump\t// in\n    tag_173:\n        /* \"#utility.yul\":9003:9056   */\n      tag_44\n      jump\t// in\n    tag_172:\n        /* \"#utility.yul\":8990:9056   */\n      swap1\n      pop\n        /* \"#utility.yul\":8920:9062   */\n      swap2\n      swap1\n      pop\n      jump\t// out\n        /* \"#utility.yul\":9068:9143   */\n    tag_73:\n        /* \"#utility.yul\":9111:9114   */\n      0x00\n        /* \"#utility.yul\":9132:9137   */\n      dup2\n        /* \"#utility.yul\":9125:9137   */\n      swap1\n      pop\n        /* \"#utility.yul\":9068:9143   */\n      swap2\n      swap1\n      pop\n      jump\t// out\n        /* \"#utility.yul\":9149:9418   */\n    tag_74:\n        /* \"#utility.yul\":9259:9298   */\n      tag_177\n        /* \"#utility.yul\":9290:9297   */\n      dup4\n        /* \"#utility.yul\":9259:9298   */\n      tag_72\n      jump\t// in\n    tag_177:\n        /* \"#utility.yul\":9320:9411   */\n      tag_178\n        /* \"#utility.yul\":9369:9410   */\n      tag_179\n        /* \"#utility.yul\":9393:9409   */\n      dup3\n        /* \"#utility.yul\":9369:9410   */\n      tag_73\n      jump\t// in\n    tag_179:\n        /* \"#utility.yul\":9361:9367   */\n      dup5\n        /* \"#utility.yul\":9354:9358   */\n      dup5\n        /* \"#utility.yul\":9348:9359   */\n      sload\n        /* \"#utility.yul\":9320:9411   */\n      tag_70\n      jump\t// in\n    tag_178:\n        /* \"#utility.yul\":9314:9318   */\n      dup3\n        /* \"#utility.yul\":9307:9412   */\n      sstore\n        /* \"#utility.yul\":9225:9418   */\n      pop\n        /* \"#utility.yul\":9149:9418   */\n      pop\n      pop\n      pop\n      jump\t// out\n        /* \"#utility.yul\":9424:9497   */\n    tag_75:\n        /* \"#utility.yul\":9469:9472   */\n      0x00\n        /* \"#utility.yul\":9424:9497   */\n      swap1\n      jump\t// out\n        /* \"#utility.yul\":9503:9692   */\n    tag_76:\n        /* \"#utility.yul\":9580:9612   */\n      tag_182\n      tag_75\n      jump\t// in\n    tag_182:\n        /* \"#utility.yul\":9621:9686   */\n      tag_183\n        /* \"#utility.yul\":9679:9685   */\n      dup2\n        /* \"#utility.yul\":9671:9677   */\n      dup5\n        /* \"#utility.yul\":9665:9669   */\n      dup5\n        /* \"#utility.yul\":9621:9686   */\n      tag_74\n      jump\t// in\n    tag_183:\n        /* \"#utility.yul\":9556:9692   */\n      pop\n        /* \"#utility.yul\":9503:9692   */\n      pop\n      pop\n      jump\t// out\n        /* \"#utility.yul\":9698:9884   */\n    tag_77:\n        /* \"#utility.yul\":9758:9878   */\n    tag_185:\n        /* \"#utility.yul\":9775:9778   */\n      dup2\n        /* \"#utility.yul\":9768:9773   */\n      dup2\n        /* \"#utility.yul\":9765:9779   */\n      lt\n        /* \"#utility.yul\":9758:9878   */\n      iszero\n      tag_187\n      jumpi\n        /* \"#utility.yul\":9829:9868   */\n      tag_188\n        /* \"#utility.yul\":9866:9867   */\n      0x00\n        /* \"#utility.yul\":9859:9864   */\n      dup3\n        /* \"#utility.yul\":9829:9868   */\n      tag_76\n      jump\t// in\n    tag_188:\n        /* \"#utility.yul\":9802:9803   */\n      0x01\n        /* \"#utility.yul\":9795:9800   */\n      dup2\n        /* \"#utility.yul\":9791:9804   */\n      add\n        /* \"#utility.yul\":9782:9804   */\n      swap1\n      pop\n        /* \"#utility.yul\":9758:9878   */\n      jump(tag_185)\n    tag_187:\n        /* \"#utility.yul\":9698:9884   */\n      pop\n      pop\n      jump\t// out\n        /* \"#utility.yul\":9890:10433   */\n    tag_78:\n        /* \"#utility.yul\":9991:9993   */\n      0x1f\n        /* \"#utility.yul\":9986:9989   */\n      dup3\n        /* \"#utility.yul\":9983:9994   */\n      gt\n        /* \"#utility.yul\":9980:10426   */\n      iszero\n      tag_190\n      jumpi\n        /* \"#utility.yul\":10025:10063   */\n      tag_191\n        /* \"#utility.yul\":10057:10062   */\n      dup2\n        /* \"#utility.yul\":10025:10063   */\n      tag_67\n      jump\t// in\n    tag_191:\n        /* \"#utility.yul\":10109:10138   */\n      tag_192\n        /* \"#utility.yul\":10127:10137   */\n      dup5\n        /* \"#utility.yul\":10109:10138   */\n      tag_68\n      jump\t// in\n    tag_192:\n        /* \"#utility.yul\":10099:10107   */\n      dup2\n        /* \"#utility.yul\":10095:10139   */\n      add\n        /* \"#utility.yul\":10292:10294   */\n      0x20\n        /* \"#utility.yul\":10280:10290   */\n      dup6\n        /* \"#utility.yul\":10277:10295   */\n      lt\n        /* \"#utility.yul\":10274:10323   */\n      iszero\n      tag_193\n      jumpi\n        /* \"#utility.yul\":10313:10321   */\n      dup2\n        /* \"#utility.yul\":10298:10321   */\n      swap1\n      pop\n        /* \"#utility.yul\":10274:10323   */\n    tag_193:\n        /* \"#utility.yul\":10336:10416   */\n      tag_194\n        /* \"#utility.yul\":10392:10414   */\n      tag_195\n        /* \"#utility.yul\":10410:10413   */\n      dup6\n        /* \"#utility.yul\":10392:10414   */\n      tag_68\n      jump\t// in\n    tag_195:\n        /* \"#utility.yul\":10382:10390   */\n      dup4\n        /* \"#utility.yul\":10378:10415   */\n      add\n        /* \"#utility.yul\":10365:10376   */\n      dup3\n        /* \"#utility.yul\":10336:10416   */\n      tag_77\n      jump\t// in\n    tag_194:\n        /* \"#utility.yul\":9995:10426   */\n      pop\n      pop\n        /* \"#utility.yul\":9980:10426   */\n    tag_190:\n        /* \"#utility.yul\":9890:10433   */\n      pop\n      pop\n      pop\n      jump\t// out\n        /* \"#utility.yul\":10439:10556   */\n    tag_79:\n        /* \"#utility.yul\":10493:10501   */\n      0x00\n        /* \"#utility.yul\":10543:10548   */\n      dup3\n        /* \"#utility.yul\":10537:10541   */\n      dup3\n        /* \"#utility.yul\":10533:10549   */\n      shr\n        /* \"#utility.yul\":10512:10549   */\n      swap1\n      pop\n        /* \"#utility.yul\":10439:10556   */\n      swap3\n      swap2\n      pop\n      pop\n      jump\t// out\n        /* \"#utility.yul\":10562:10731   */\n    tag_80:\n        /* \"#utility.yul\":10606:10612   */\n      0x00\n        /* \"#utility.yul\":10639:10690   */\n      tag_198\n        /* \"#utility.yul\":10687:10688   */\n      0x00\n        /* \"#utility.yul\":10683:10689   */\n      not\n        /* \"#utility.yul\":10675:10680   */\n      dup5\n        /* \"#utility.yul\":10672:10673   */\n      0x08\n        /* \"#utility.yul\":10668:10681   */\n      mul\n        /* \"#utility.yul\":10639:10690   */\n      tag_79\n      jump\t// in\n    tag_198:\n        /* \"#utility.yul\":10635:10691   */\n      not\n        /* \"#utility.yul\":10720:10724   */\n      dup1\n        /* \"#utility.yul\":10714:10718   */\n      dup4\n        /* \"#utility.yul\":10710:10725   */\n      and\n        /* \"#utility.yul\":10700:10725   */\n      swap2\n      pop\n        /* \"#utility.yul\":10613:10731   */\n      pop\n        /* \"#utility.yul\":10562:10731   */\n      swap3\n      swap2\n      pop\n      pop\n      jump\t// out\n        /* \"#utility.yul\":10736:11031   */\n    tag_81:\n        /* \"#utility.yul\":10812:10816   */\n      0x00\n        /* \"#utility.yul\":10958:10987   */\n      tag_200\n        /* \"#utility.yul\":10983:10986   */\n      dup4\n        /* \"#utility.yul\":10977:10981   */\n      dup4\n        /* \"#utility.yul\":10958:10987   */\n      tag_80\n      jump\t// in\n    tag_200:\n        /* \"#utility.yul\":10950:10987   */\n      swap2\n      pop\n        /* \"#utility.yul\":11020:11023   */\n      dup3\n        /* \"#utility.yul\":11017:11018   */\n      0x02\n        /* \"#utility.yul\":11013:11024   */\n      mul\n        /* \"#utility.yul\":11007:11011   */\n      dup3\n        /* \"#utility.yul\":11004:11025   */\n      or\n        /* \"#utility.yul\":10996:11025   */\n      swap1\n      pop\n        /* \"#utility.yul\":10736:11031   */\n      swap3\n      swap2\n      pop\n      pop\n      jump\t// out\n        /* \"#utility.yul\":11036:12431   */\n    tag_39:\n        /* \"#utility.yul\":11153:11190   */\n      tag_202\n        /* \"#utility.yul\":11186:11189   */\n      dup3\n        /* \"#utility.yul\":11153:11190   */\n      tag_47\n      jump\t// in\n    tag_202:\n        /* \"#utility.yul\":11255:11273   */\n      0xffffffffffffffff\n        /* \"#utility.yul\":11247:11253   */\n      dup2\n        /* \"#utility.yul\":11244:11274   */\n      gt\n        /* \"#utility.yul\":11241:11297   */\n      iszero\n      tag_203\n      jumpi\n        /* \"#utility.yul\":11277:11295   */\n      tag_204\n      tag_66\n      jump\t// in\n    tag_204:\n        /* \"#utility.yul\":11241:11297   */\n    tag_203:\n        /* \"#utility.yul\":11321:11359   */\n      tag_205\n        /* \"#utility.yul\":11353:11357   */\n      dup3\n        /* \"#utility.yul\":11347:11358   */\n      sload\n        /* \"#utility.yul\":11321:11359   */\n      tag_21\n      jump\t// in\n    tag_205:\n        /* \"#utility.yul\":11406:11473   */\n      tag_206\n        /* \"#utility.yul\":11466:11472   */\n      dup3\n        /* \"#utility.yul\":11458:11464   */\n      dup3\n        /* \"#utility.yul\":11452:11456   */\n      dup6\n        /* \"#utility.yul\":11406:11473   */\n      tag_78\n      jump\t// in\n    tag_206:\n        /* \"#utility.yul\":11500:11501   */\n      0x00\n        /* \"#utility.yul\":11524:11528   */\n      0x20\n        /* \"#utility.yul\":11511:11528   */\n      swap1\n      pop\n        /* \"#utility.yul\":11556:11558   */\n      0x1f\n        /* \"#utility.yul\":11548:11554   */\n      dup4\n        /* \"#utility.yul\":11545:11559   */\n      gt\n        /* \"#utility.yul\":11573:11574   */\n      0x01\n        /* \"#utility.yul\":11568:12186   */\n      dup2\n      eq\n      tag_208\n      jumpi\n        /* \"#utility.yul\":12230:12231   */\n      0x00\n        /* \"#utility.yul\":12247:12253   */\n      dup5\n        /* \"#utility.yul\":12244:12321   */\n      iszero\n      tag_209\n      jumpi\n        /* \"#utility.yul\":12296:12305   */\n      dup3\n        /* \"#utility.yul\":12291:12294   */\n      dup8\n        /* \"#utility.yul\":12287:12306   */\n      add\n        /* \"#utility.yul\":12281:12307   */\n      mload\n        /* \"#utility.yul\":12272:12307   */\n      swap1\n      pop\n        /* \"#utility.yul\":12244:12321   */\n    tag_209:\n        /* \"#utility.yul\":12347:12414   */\n      tag_210\n        /* \"#utility.yul\":12407:12413   */\n      dup6\n        /* \"#utility.yul\":12400:12405   */\n      dup3\n        /* \"#utility.yul\":12347:12414   */\n      tag_81\n      jump\t// in\n    tag_210:\n        /* \"#utility.yul\":12341:12345   */\n      dup7\n        /* \"#utility.yul\":12334:12415   */\n      sstore\n        /* \"#utility.yul\":12203:12425   */\n      pop\n        /* \"#utility.yul\":11538:12425   */\n      jump(tag_207)\n        /* \"#utility.yul\":11568:12186   */\n    tag_208:\n        /* \"#utility.yul\":11620:11624   */\n      0x1f\n        /* \"#utility.yul\":11616:11625   */\n      not\n        /* \"#utility.yul\":11608:11614   */\n      dup5\n        /* \"#utility.yul\":11604:11626   */\n      and\n        /* \"#utility.yul\":11654:11691   */\n      tag_211\n        /* \"#utility.yul\":11686:11690   */\n      dup7\n        /* \"#utility.yul\":11654:11691   */\n      tag_67\n      jump\t// in\n    tag_211:\n        /* \"#utility.yul\":11713:11714   */\n      0x00\n        /* \"#utility.yul\":11727:11935   */\n    tag_212:\n        /* \"#utility.yul\":11741:11748   */\n      dup3\n        /* \"#utility.yul\":11738:11739   */\n      dup2\n        /* \"#utility.yul\":11735:11749   */\n      lt\n        /* \"#utility.yul\":11727:11935   */\n      iszero\n      tag_214\n      jumpi\n        /* \"#utility.yul\":11820:11829   */\n      dup5\n        /* \"#utility.yul\":11815:11818   */\n      dup10\n        /* \"#utility.yul\":11811:11830   */\n      add\n        /* \"#utility.yul\":11805:11831   */\n      mload\n        /* \"#utility.yul\":11797:11803   */\n      dup3\n        /* \"#utility.yul\":11790:11832   */\n      sstore\n        /* \"#utility.yul\":11871:11872   */\n      0x01\n        /* \"#utility.yul\":11863:11869   */\n      dup3\n        /* \"#utility.yul\":11859:11873   */\n      add\n        /* \"#utility.yul\":11849:11873   */\n      swap2\n      pop\n        /* \"#utility.yul\":11918:11920   */\n      0x20\n        /* \"#utility.yul\":11907:11916   */\n      dup6\n        /* \"#utility.yul\":11903:11921   */\n      add\n        /* \"#utility.yul\":11890:11921   */\n      swap5\n      pop\n        /* \"#utility.yul\":11764:11768   */\n      0x20\n        /* \"#utility.yul\":11761:11762   */\n      dup2\n        /* \"#utility.yul\":11757:11769   */\n      add\n        /* \"#utility.yul\":11752:11769   */\n      swap1\n      pop\n        /* \"#utility.yul\":11727:11935   */\n      jump(tag_212)\n    tag_214:\n        /* \"#utility.yul\":11963:11969   */\n      dup7\n        /* \"#utility.yul\":11954:11961   */\n      dup4\n        /* \"#utility.yul\":11951:11970   */\n      lt\n        /* \"#utility.yul\":11948:12127   */\n      iszero\n      tag_215\n      jumpi\n        /* \"#utility.yul\":12021:12030   */\n      dup5\n        /* \"#utility.yul\":12016:12019   */\n      dup10\n        /* \"#utility.yul\":12012:12031   */\n      add\n        /* \"#utility.yul\":12006:12032   */\n      mload\n        /* \"#utility.yul\":12064:12112   */\n      tag_216\n        /* \"#utility.yul\":12106:12110   */\n      0x1f\n        /* \"#utility.yul\":12098:12104   */\n      dup10\n        /* \"#utility.yul\":12094:12111   */\n      and\n        /* \"#utility.yul\":12083:12092   */\n      dup3\n        /* \"#utility.yul\":12064:12112   */\n      tag_80\n      jump\t// in\n    tag_216:\n        /* \"#utility.yul\":12056:12062   */\n      dup4\n        /* \"#utility.yul\":12049:12113   */\n      sstore\n        /* \"#utility.yul\":11971:12127   */\n      pop\n        /* \"#utility.yul\":11948:12127   */\n    tag_215:\n        /* \"#utility.yul\":12173:12174   */\n      0x01\n        /* \"#utility.yul\":12169:12170   */\n      0x02\n        /* \"#utility.yul\":12161:12167   */\n      dup9\n        /* \"#utility.yul\":12157:12171   */\n      mul\n        /* \"#utility.yul\":12153:12175   */\n      add\n        /* \"#utility.yul\":12147:12151   */\n      dup9\n        /* \"#utility.yul\":12140:12176   */\n      sstore\n        /* \"#utility.yul\":11575:12186   */\n      pop\n      pop\n      pop\n        /* \"#utility.yul\":11538:12425   */\n    tag_207:\n      pop\n        /* \"#utility.yul\":11128:12431   */\n      pop\n      pop\n      pop\n        /* \"#utility.yul\":11036:12431   */\n      pop\n      pop\n      jump\t// out\n\n    auxdata: 0xa2646970667358221220340c018cc234b102d91ecb707b91d6e609f685e9d4b8163dee1c913310f8f6f764736f6c634300081a0033\n}\n",
				"bytecode": {
					"linkReferences": {},
					"object": "6080604052348015600e575f80fd5b503360015f6101000a81548173ffffffffffffffffffffffffffffffffffffffff021916908373ffffffffffffffffffffffffffffffffffffffff1602179055505f8081905550610b48806100625f395ff3fe608060405234801561000f575f80fd5b506004361061003f575f3560e01c8063350f0d8c146100435780633ca6d1001461007a5780638da5cb5b14610096575b5f80fd5b61005d60048036038101906100589190610496565b6100b4565b60405161007198979695949392919061055a565b60405180910390f35b610094600480360381019061008f9190610645565b61021d565b005b61009e610436565b6040516100ab9190610715565b60405180910390f35b6002602052805f5260405f205f91509050805f0180546100d39061075b565b80601f01602080910402602001604051908101604052809291908181526020018280546100ff9061075b565b801561014a5780601f106101215761010080835404028352916020019161014a565b820191905f5260205f20905b81548152906001019060200180831161012d57829003601f168201915b50505050509080600101805461015f9061075b565b80601f016020809104026020016040519081016040528092919081815260200182805461018b9061075b565b80156101d65780601f106101ad576101008083540402835291602001916101d6565b820191905f5260205f20905b8154815290600101906020018083116101b957829003601f168201915b505050505090806002015490806003015490806004015490806005015490806006015f9054906101000a900460ff16908060060160019054906101000a900460ff16905088565b60015f9054906101000a900473ffffffffffffffffffffffffffffffffffffffff1673ffffffffffffffffffffffffffffffffffffffff163373ffffffffffffffffffffffffffffffffffffffff16146102ac576040517f08c379a00000000000000000000000000000000000000000000000000000000081526004016102a3906107fb565b60405180910390fd5b60015f808282546102bd9190610846565b9250508190555060405180610100016040528086868080601f0160208091040260200160405190810160405280939291908181526020018383808284375f81840152601f19601f82011690508083019250505050505050815260200184848080601f0160208091040260200160405190810160405280939291908181526020018383808284375f81840152601f19601f8201169050808301925050505050505081526020015f81526020015f81526020015f81526020018281526020015f151581526020016001151581525060025f805481526020019081526020015f205f820151815f0190816103ae9190610a43565b5060208201518160010190816103c49190610a43565b5060408201518160020155606082015181600301556080820151816004015560a0820151816005015560c0820151816006015f6101000a81548160ff02191690831515021790555060e08201518160060160016101000a81548160ff0219169083151502179055509050505050505050565b60015f9054906101000a900473ffffffffffffffffffffffffffffffffffffffff1681565b5f80fd5b5f80fd5b5f819050919050565b61047581610463565b811461047f575f80fd5b50565b5f813590506104908161046c565b92915050565b5f602082840312156104ab576104aa61045b565b5b5f6104b884828501610482565b91505092915050565b5f81519050919050565b5f82825260208201905092915050565b8281835e5f83830152505050565b5f601f19601f8301169050919050565b5f610503826104c1565b61050d81856104cb565b935061051d8185602086016104db565b610526816104e9565b840191505092915050565b61053a81610463565b82525050565b5f8115159050919050565b61055481610540565b82525050565b5f610100820190508181035f830152610573818b6104f9565b90508181036020830152610587818a6104f9565b90506105966040830189610531565b6105a36060830188610531565b6105b06080830187610531565b6105bd60a0830186610531565b6105ca60c083018561054b565b6105d760e083018461054b565b9998505050505050505050565b5f80fd5b5f80fd5b5f80fd5b5f8083601f840112610605576106046105e4565b5b8235905067ffffffffffffffff811115610622576106216105e8565b5b60208301915083600182028301111561063e5761063d6105ec565b5b9250929050565b5f805f805f6060868803121561065e5761065d61045b565b5b5f86013567ffffffffffffffff81111561067b5761067a61045f565b5b610687888289016105f0565b9550955050602086013567ffffffffffffffff8111156106aa576106a961045f565b5b6106b6888289016105f0565b935093505060406106c988828901610482565b9150509295509295909350565b5f73ffffffffffffffffffffffffffffffffffffffff82169050919050565b5f6106ff826106d6565b9050919050565b61070f816106f5565b82525050565b5f6020820190506107285f830184610706565b92915050565b7f4e487b71000000000000000000000000000000000000000000000000000000005f52602260045260245ffd5b5f600282049050600182168061077257607f821691505b6020821081036107855761078461072e565b5b50919050565b7f4f6e6c7920746865206f776e65722063616e206372656174652070726f706f735f8201527f616c730000000000000000000000000000000000000000000000000000000000602082015250565b5f6107e56023836104cb565b91506107f08261078b565b604082019050919050565b5f6020820190508181035f830152610812816107d9565b9050919050565b7f4e487b71000000000000000000000000000000000000000000000000000000005f52601160045260245ffd5b5f61085082610463565b915061085b83610463565b925082820190508082111561087357610872610819565b5b92915050565b7f4e487b71000000000000000000000000000000000000000000000000000000005f52604160045260245ffd5b5f819050815f5260205f209050919050565b5f6020601f8301049050919050565b5f82821b905092915050565b5f600883026109027fffffffffffffffffffffffffffffffffffffffffffffffffffffffffffffffff826108c7565b61090c86836108c7565b95508019841693508086168417925050509392505050565b5f819050919050565b5f61094761094261093d84610463565b610924565b610463565b9050919050565b5f819050919050565b6109608361092d565b61097461096c8261094e565b8484546108d3565b825550505050565b5f90565b61098861097c565b610993818484610957565b505050565b5b818110156109b6576109ab5f82610980565b600181019050610999565b5050565b601f8211156109fb576109cc816108a6565b6109d5846108b8565b810160208510156109e4578190505b6109f86109f0856108b8565b830182610998565b50505b505050565b5f82821c905092915050565b5f610a1b5f1984600802610a00565b1980831691505092915050565b5f610a338383610a0c565b9150826002028217905092915050565b610a4c826104c1565b67ffffffffffffffff811115610a6557610a64610879565b5b610a6f825461075b565b610a7a8282856109ba565b5f60209050601f831160018114610aab575f8415610a99578287015190505b610aa38582610a28565b865550610b0a565b601f198416610ab9866108a6565b5f5b82811015610ae057848901518255600182019150602085019450602081019050610abb565b86831015610afd5784890151610af9601f891682610a0c565b8355505b6001600288020188555050505b50505050505056fea2646970667358221220340c018cc234b102d91ecb707b91d6e609f685e9d4b8163dee1c913310f8f6f764736f6c634300081a0033",
					"opcodes": "PUSH1 0x80 PUSH1 0x40 MSTORE CALLVALUE DUP1 ISZERO PUSH1 0xE JUMPI PUSH0 DUP1 REVERT JUMPDEST POP CALLER PUSH1 0x1 PUSH0 PUSH2 0x100 EXP DUP2 SLOAD DUP2 PUSH20 0xFFFFFFFFFFFFFFFFFFFFFFFFFFFFFFFFFFFFFFFF MUL NOT AND SWAP1 DUP4 PUSH20 0xFFFFFFFFFFFFFFFFFFFFFFFFFFFFFFFFFFFFFFFF AND MUL OR SWAP1 SSTORE POP PUSH0 DUP1 DUP2 SWAP1 SSTORE POP PUSH2 0xB48 DUP1 PUSH2 0x62 PUSH0 CODECOPY PUSH0 RETURN INVALID PUSH1 0x80 PUSH1 0x40 MSTORE CALLVALUE DUP1 ISZERO PUSH2 0xF JUMPI PUSH0 DUP1 REVERT JUMPDEST POP PUSH1 0x4 CALLDATASIZE LT PUSH2 0x3F JUMPI PUSH0 CALLDATALOAD PUSH1 0xE0 SHR DUP1 PUSH4 0x350F0D8C EQ PUSH2 0x43 JUMPI DUP1 PUSH4 0x3CA6D100 EQ PUSH2 0x7A JUMPI DUP1 PUSH4 0x8DA5CB5B EQ PUSH2 0x96 JUMPI JUMPDEST PUSH0 DUP1 REVERT JUMPDEST PUSH2 0x5D PUSH1 0x4 DUP1 CALLDATASIZE SUB DUP2 ADD SWAP1 PUSH2 0x58 SWAP2 SWAP1 PUSH2 0x496 JUMP JUMPDEST PUSH2 0xB4 JUMP JUMPDEST PUSH1 0x40 MLOAD PUSH2 0x71 SWAP9 SWAP8 SWAP7 SWAP6 SWAP5 SWAP4 SWAP3 SWAP2 SWAP1 PUSH2 0x55A JUMP JUMPDEST PUSH1 0x40 MLOAD DUP1 SWAP2 SUB SWAP1 RETURN JUMPDEST PUSH2 0x94 PUSH1 0x4 DUP1 CALLDATASIZE SUB DUP2 ADD SWAP1 PUSH2 0x8F SWAP2 SWAP1 PUSH2 0x645 JUMP JUMPDEST PUSH2 0x21D JUMP JUMPDEST STOP JUMPDEST PUSH2 0x9E PUSH2 0x436 JUMP JUMPDEST PUSH1 0x40 MLOAD PUSH2 0xAB SWAP2 SWAP1 PUSH2 0x715 JUMP JUMPDEST PUSH1 0x40 MLOAD DUP1 SWAP2 SUB SWAP1 RETURN JUMPDEST PUSH1 0x2 PUSH1 0x20 MSTORE DUP1 PUSH0 MSTORE PUSH1 0x40 PUSH0 KECCAK256 PUSH0 SWAP2 POP SWAP1 POP DUP1 PUSH0 ADD DUP1 SLOAD PUSH2 0xD3 SWAP1 PUSH2 0x75B JUMP JUMPDEST DUP1 PUSH1 0x1F ADD PUSH1 0x20 DUP1 SWAP2 DIV MUL PUSH1 0x20 ADD PUSH1 0x40 MLOAD SWAP1 DUP2 ADD PUSH1 0x40 MSTORE DUP1 SWAP3 SWAP2 SWAP1 DUP2 DUP2 MSTORE PUSH1 0x20 ADD DUP3 DUP1 SLOAD PUSH2 0xFF SWAP1 PUSH2 0x75B JUMP JUMPDEST DUP1 ISZERO PUSH2 0x14A JUMPI DUP1 PUSH1 0x1F LT PUSH2 0x121 JUMPI PUSH2 0x100 DUP1 DUP4 SLOAD DIV MUL DUP4 MSTORE SWAP2 PUSH1 0x20 ADD SWAP2 PUSH2 0x14A JUMP JUMPDEST DUP3 ADD SWAP2 SWAP1 PUSH0 MSTORE PUSH1 0x20 PUSH0 KECCAK256 SWAP1 JUMPDEST DUP2 SLOAD DUP2 MSTORE SWAP1 PUSH1 0x1 ADD SWAP1 PUSH1 0x20 ADD DUP1 DUP4 GT PUSH2 0x12D JUMPI DUP3 SWAP1 SUB PUSH1 0x1F AND DUP3 ADD SWAP2 JUMPDEST POP POP POP POP POP SWAP1 DUP1 PUSH1 0x1 ADD DUP1 SLOAD PUSH2 0x15F SWAP1 PUSH2 0x75B JUMP JUMPDEST DUP1 PUSH1 0x1F ADD PUSH1 0x20 DUP1 SWAP2 DIV MUL PUSH1 0x20 ADD PUSH1 0x40 MLOAD SWAP1 DUP2 ADD PUSH1 0x40 MSTORE DUP1 SWAP3 SWAP2 SWAP1 DUP2 DUP2 MSTORE PUSH1 0x20 ADD DUP3 DUP1 SLOAD PUSH2 0x18B SWAP1 PUSH2 0x75B JUMP JUMPDEST DUP1 ISZERO PUSH2 0x1D6 JUMPI DUP1 PUSH1 0x1F LT PUSH2 0x1AD JUMPI PUSH2 0x100 DUP1 DUP4 SLOAD DIV MUL DUP4 MSTORE SWAP2 PUSH1 0x20 ADD SWAP2 PUSH2 0x1D6 JUMP JUMPDEST DUP3 ADD SWAP2 SWAP1 PUSH0 MSTORE PUSH1 0x20 PUSH0 KECCAK256 SWAP1 JUMPDEST DUP2 SLOAD DUP2 MSTORE SWAP1 PUSH1 0x1 ADD SWAP1 PUSH1 0x20 ADD DUP1 DUP4 GT PUSH2 0x1B9 JUMPI DUP3 SWAP1 SUB PUSH1 0x1F AND DUP3 ADD SWAP2 JUMPDEST POP POP POP POP POP SWAP1 DUP1 PUSH1 0x2 ADD SLOAD SWAP1 DUP1 PUSH1 0x3 ADD SLOAD SWAP1 DUP1 PUSH1 0x4 ADD SLOAD SWAP1 DUP1 PUSH1 0x5 ADD SLOAD SWAP1 DUP1 PUSH1 0x6 ADD PUSH0 SWAP1 SLOAD SWAP1 PUSH2 0x100 EXP SWAP1 DIV PUSH1 0xFF AND SWAP1 DUP1 PUSH1 0x6 ADD PUSH1 0x1 SWAP1 SLOAD SWAP1 PUSH2 0x100 EXP SWAP1 DIV PUSH1 0xFF AND SWAP1 POP DUP9 JUMP JUMPDEST PUSH1 0x1 PUSH0 SWAP1 SLOAD SWAP1 PUSH2 0x100 EXP SWAP1 DIV PUSH20 0xFFFFFFFFFFFFFFFFFFFFFFFFFFFFFFFFFFFFFFFF AND PUSH20 0xFFFFFFFFFFFFFFFFFFFFFFFFFFFFFFFFFFFFFFFF AND CALLER PUSH20 0xFFFFFFFFFFFFFFFFFFFFFFFFFFFFFFFFFFFFFFFF AND EQ PUSH2 0x2AC JUMPI PUSH1 0x40 MLOAD PUSH32 0x8C379A000000000000000000000000000000000000000000000000000000000 DUP2 MSTORE PUSH1 0x4 ADD PUSH2 0x2A3 SWAP1 PUSH2 0x7FB JUMP JUMPDEST PUSH1 0x40 MLOAD DUP1 SWAP2 SUB SWAP1 REVERT JUMPDEST PUSH1 0x1 PUSH0 DUP1 DUP3 DUP3 SLOAD PUSH2 0x2BD SWAP2 SWAP1 PUSH2 0x846 JUMP JUMPDEST SWAP3 POP POP DUP2 SWAP1 SSTORE POP PUSH1 0x40 MLOAD DUP1 PUSH2 0x100 ADD PUSH1 0x40 MSTORE DUP1 DUP7 DUP7 DUP1 DUP1 PUSH1 0x1F ADD PUSH1 0x20 DUP1 SWAP2 DIV MUL PUSH1 0x20 ADD PUSH1 0x40 MLOAD SWAP1 DUP2 ADD PUSH1 0x40 MSTORE DUP1 SWAP4 SWAP3 SWAP2 SWAP1 DUP2 DUP2 MSTORE PUSH1 0x20 ADD DUP4 DUP4 DUP1 DUP3 DUP5 CALLDATACOPY PUSH0 DUP2 DUP5 ADD MSTORE PUSH1 0x1F NOT PUSH1 0x1F DUP3 ADD AND SWAP1 POP DUP1 DUP4 ADD SWAP3 POP POP POP POP POP POP POP DUP2 MSTORE PUSH1 0x20 ADD DUP5 DUP5 DUP1 DUP1 PUSH1 0x1F ADD PUSH1 0x20 DUP1 SWAP2 DIV MUL PUSH1 0x20 ADD PUSH1 0x40 MLOAD SWAP1 DUP2 ADD PUSH1 0x40 MSTORE DUP1 SWAP4 SWAP3 SWAP2 SWAP1 DUP2 DUP2 MSTORE PUSH1 0x20 ADD DUP4 DUP4 DUP1 DUP3 DUP5 CALLDATACOPY PUSH0 DUP2 DUP5 ADD MSTORE PUSH1 0x1F NOT PUSH1 0x1F DUP3 ADD AND SWAP1 POP DUP1 DUP4 ADD SWAP3 POP POP POP POP POP POP POP DUP2 MSTORE PUSH1 0x20 ADD PUSH0 DUP2 MSTORE PUSH1 0x20 ADD PUSH0 DUP2 MSTORE PUSH1 0x20 ADD PUSH0 DUP2 MSTORE PUSH1 0x20 ADD DUP3 DUP2 MSTORE PUSH1 0x20 ADD PUSH0 ISZERO ISZERO DUP2 MSTORE PUSH1 0x20 ADD PUSH1 0x1 ISZERO ISZERO DUP2 MSTORE POP PUSH1 0x2 PUSH0 DUP1 SLOAD DUP2 MSTORE PUSH1 0x20 ADD SWAP1 DUP2 MSTORE PUSH1 0x20 ADD PUSH0 KECCAK256 PUSH0 DUP3 ADD MLOAD DUP2 PUSH0 ADD SWAP1 DUP2 PUSH2 0x3AE SWAP2 SWAP1 PUSH2 0xA43 JUMP JUMPDEST POP PUSH1 0x20 DUP3 ADD MLOAD DUP2 PUSH1 0x1 ADD SWAP1 DUP2 PUSH2 0x3C4 SWAP2 SWAP1 PUSH2 0xA43 JUMP JUMPDEST POP PUSH1 0x40 DUP3 ADD MLOAD DUP2 PUSH1 0x2 ADD SSTORE PUSH1 0x60 DUP3 ADD MLOAD DUP2 PUSH1 0x3 ADD SSTORE PUSH1 0x80 DUP3 ADD MLOAD DUP2 PUSH1 0x4 ADD SSTORE PUSH1 0xA0 DUP3 ADD MLOAD DUP2 PUSH1 0x5 ADD SSTORE PUSH1 0xC0 DUP3 ADD MLOAD DUP2 PUSH1 0x6 ADD PUSH0 PUSH2 0x100 EXP DUP2 SLOAD DUP2 PUSH1 0xFF MUL NOT AND SWAP1 DUP4 ISZERO ISZERO MUL OR SWAP1 SSTORE POP PUSH1 0xE0 DUP3 ADD MLOAD DUP2 PUSH1 0x6 ADD PUSH1 0x1 PUSH2 0x100 EXP DUP2 SLOAD DUP2 PUSH1 0xFF MUL NOT AND SWAP1 DUP4 ISZERO ISZERO MUL OR SWAP1 SSTORE POP SWAP1 POP POP POP POP POP POP POP JUMP JUMPDEST PUSH1 0x1 PUSH0 SWAP1 SLOAD SWAP1 PUSH2 0x100 EXP SWAP1 DIV PUSH20 0xFFFFFFFFFFFFFFFFFFFFFFFFFFFFFFFFFFFFFFFF AND DUP2 JUMP JUMPDEST PUSH0 DUP1 REVERT JUMPDEST PUSH0 DUP1 REVERT JUMPDEST PUSH0 DUP2 SWAP1 POP SWAP2 SWAP1 POP JUMP JUMPDEST PUSH2 0x475 DUP2 PUSH2 0x463 JUMP JUMPDEST DUP2 EQ PUSH2 0x47F JUMPI PUSH0 DUP1 REVERT JUMPDEST POP JUMP JUMPDEST PUSH0 DUP2 CALLDATALOAD SWAP1 POP PUSH2 0x490 DUP2 PUSH2 0x46C JUMP JUMPDEST SWAP3 SWAP2 POP POP JUMP JUMPDEST PUSH0 PUSH1 0x20 DUP3 DUP5 SUB SLT ISZERO PUSH2 0x4AB JUMPI PUSH2 0x4AA PUSH2 0x45B JUMP JUMPDEST JUMPDEST PUSH0 PUSH2 0x4B8 DUP5 DUP3 DUP6 ADD PUSH2 0x482 JUMP JUMPDEST SWAP2 POP POP SWAP3 SWAP2 POP POP JUMP JUMPDEST PUSH0 DUP2 MLOAD SWAP1 POP SWAP2 SWAP1 POP JUMP JUMPDEST PUSH0 DUP3 DUP3 MSTORE PUSH1 0x20 DUP3 ADD SWAP1 POP SWAP3 SWAP2 POP POP JUMP JUMPDEST DUP3 DUP2 DUP4 MCOPY PUSH0 DUP4 DUP4 ADD MSTORE POP POP POP JUMP JUMPDEST PUSH0 PUSH1 0x1F NOT PUSH1 0x1F DUP4 ADD AND SWAP1 POP SWAP2 SWAP1 POP JUMP JUMPDEST PUSH0 PUSH2 0x503 DUP3 PUSH2 0x4C1 JUMP JUMPDEST PUSH2 0x50D DUP2 DUP6 PUSH2 0x4CB JUMP JUMPDEST SWAP4 POP PUSH2 0x51D DUP2 DUP6 PUSH1 0x20 DUP7 ADD PUSH2 0x4DB JUMP JUMPDEST PUSH2 0x526 DUP2 PUSH2 0x4E9 JUMP JUMPDEST DUP5 ADD SWAP2 POP POP SWAP3 SWAP2 POP POP JUMP JUMPDEST PUSH2 0x53A DUP2 PUSH2 0x463 JUMP JUMPDEST DUP3 MSTORE POP POP JUMP JUMPDEST PUSH0 DUP2 ISZERO ISZERO SWAP1 POP SWAP2 SWAP1 POP JUMP JUMPDEST PUSH2 0x554 DUP2 PUSH2 0x540 JUMP JUMPDEST DUP3 MSTORE POP POP JUMP JUMPDEST PUSH0 PUSH2 0x100 DUP3 ADD SWAP1 POP DUP2 DUP2 SUB PUSH0 DUP4 ADD MSTORE PUSH2 0x573 DUP2 DUP12 PUSH2 0x4F9 JUMP JUMPDEST SWAP1 POP DUP2 DUP2 SUB PUSH1 0x20 DUP4 ADD MSTORE PUSH2 0x587 DUP2 DUP11 PUSH2 0x4F9 JUMP JUMPDEST SWAP1 POP PUSH2 0x596 PUSH1 0x40 DUP4 ADD DUP10 PUSH2 0x531 JUMP JUMPDEST PUSH2 0x5A3 PUSH1 0x60 DUP4 ADD DUP9 PUSH2 0x531 JUMP JUMPDEST PUSH2 0x5B0 PUSH1 0x80 DUP4 ADD DUP8 PUSH2 0x531 JUMP JUMPDEST PUSH2 0x5BD PUSH1 0xA0 DUP4 ADD DUP7 PUSH2 0x531 JUMP JUMPDEST PUSH2 0x5CA PUSH1 0xC0 DUP4 ADD DUP6 PUSH2 0x54B JUMP JUMPDEST PUSH2 0x5D7 PUSH1 0xE0 DUP4 ADD DUP5 PUSH2 0x54B JUMP JUMPDEST SWAP10 SWAP9 POP POP POP POP POP POP POP POP POP JUMP JUMPDEST PUSH0 DUP1 REVERT JUMPDEST PUSH0 DUP1 REVERT JUMPDEST PUSH0 DUP1 REVERT JUMPDEST PUSH0 DUP1 DUP4 PUSH1 0x1F DUP5 ADD SLT PUSH2 0x605 JUMPI PUSH2 0x604 PUSH2 0x5E4 JUMP JUMPDEST JUMPDEST DUP3 CALLDATALOAD SWAP1 POP PUSH8 0xFFFFFFFFFFFFFFFF DUP2 GT ISZERO PUSH2 0x622 JUMPI PUSH2 0x621 PUSH2 0x5E8 JUMP JUMPDEST JUMPDEST PUSH1 0x20 DUP4 ADD SWAP2 POP DUP4 PUSH1 0x1 DUP3 MUL DUP4 ADD GT ISZERO PUSH2 0x63E JUMPI PUSH2 0x63D PUSH2 0x5EC JUMP JUMPDEST JUMPDEST SWAP3 POP SWAP3 SWAP1 POP JUMP JUMPDEST PUSH0 DUP1 PUSH0 DUP1 PUSH0 PUSH1 0x60 DUP7 DUP9 SUB SLT ISZERO PUSH2 0x65E JUMPI PUSH2 0x65D PUSH2 0x45B JUMP JUMPDEST JUMPDEST PUSH0 DUP7 ADD CALLDATALOAD PUSH8 0xFFFFFFFFFFFFFFFF DUP2 GT ISZERO PUSH2 0x67B JUMPI PUSH2 0x67A PUSH2 0x45F JUMP JUMPDEST JUMPDEST PUSH2 0x687 DUP9 DUP3 DUP10 ADD PUSH2 0x5F0 JUMP JUMPDEST SWAP6 POP SWAP6 POP POP PUSH1 0x20 DUP7 ADD CALLDATALOAD PUSH8 0xFFFFFFFFFFFFFFFF DUP2 GT ISZERO PUSH2 0x6AA JUMPI PUSH2 0x6A9 PUSH2 0x45F JUMP JUMPDEST JUMPDEST PUSH2 0x6B6 DUP9 DUP3 DUP10 ADD PUSH2 0x5F0 JUMP JUMPDEST SWAP4 POP SWAP4 POP POP PUSH1 0x40 PUSH2 0x6C9 DUP9 DUP3 DUP10 ADD PUSH2 0x482 JUMP JUMPDEST SWAP2 POP POP SWAP3 SWAP6 POP SWAP3 SWAP6 SWAP1 SWAP4 POP JUMP JUMPDEST PUSH0 PUSH20 0xFFFFFFFFFFFFFFFFFFFFFFFFFFFFFFFFFFFFFFFF DUP3 AND SWAP1 POP SWAP2 SWAP1 POP JUMP JUMPDEST PUSH0 PUSH2 0x6FF DUP3 PUSH2 0x6D6 JUMP JUMPDEST SWAP1 POP SWAP2 SWAP1 POP JUMP JUMPDEST PUSH2 0x70F DUP2 PUSH2 0x6F5 JUMP JUMPDEST DUP3 MSTORE POP POP JUMP JUMPDEST PUSH0 PUSH1 0x20 DUP3 ADD SWAP1 POP PUSH2 0x728 PUSH0 DUP4 ADD DUP5 PUSH2 0x706 JUMP JUMPDEST SWAP3 SWAP2 POP POP JUMP JUMPDEST PUSH32 0x4E487B7100000000000000000000000000000000000000000000000000000000 PUSH0 MSTORE PUSH1 0x22 PUSH1 0x4 MSTORE PUSH1 0x24 PUSH0 REVERT JUMPDEST PUSH0 PUSH1 0x2 DUP3 DIV SWAP1 POP PUSH1 0x1 DUP3 AND DUP1 PUSH2 0x772 JUMPI PUSH1 0x7F DUP3 AND SWAP2 POP JUMPDEST PUSH1 0x20 DUP3 LT DUP2 SUB PUSH2 0x785 JUMPI PUSH2 0x784 PUSH2 0x72E JUMP JUMPDEST JUMPDEST POP SWAP2 SWAP1 POP JUMP JUMPDEST PUSH32 0x4F6E6C7920746865206F776E65722063616E206372656174652070726F706F73 PUSH0 DUP3 ADD MSTORE PUSH32 0x616C730000000000000000000000000000000000000000000000000000000000 PUSH1 0x20 DUP3 ADD MSTORE POP JUMP JUMPDEST PUSH0 PUSH2 0x7E5 PUSH1 0x23 DUP4 PUSH2 0x4CB JUMP JUMPDEST SWAP2 POP PUSH2 0x7F0 DUP3 PUSH2 0x78B JUMP JUMPDEST PUSH1 0x40 DUP3 ADD SWAP1 POP SWAP2 SWAP1 POP JUMP JUMPDEST PUSH0 PUSH1 0x20 DUP3 ADD SWAP1 POP DUP2 DUP2 SUB PUSH0 DUP4 ADD MSTORE PUSH2 0x812 DUP2 PUSH2 0x7D9 JUMP JUMPDEST SWAP1 POP SWAP2 SWAP1 POP JUMP JUMPDEST PUSH32 0x4E487B7100000000000000000000000000000000000000000000000000000000 PUSH0 MSTORE PUSH1 0x11 PUSH1 0x4 MSTORE PUSH1 0x24 PUSH0 REVERT JUMPDEST PUSH0 PUSH2 0x850 DUP3 PUSH2 0x463 JUMP JUMPDEST SWAP2 POP PUSH2 0x85B DUP4 PUSH2 0x463 JUMP JUMPDEST SWAP3 POP DUP3 DUP3 ADD SWAP1 POP DUP1 DUP3 GT ISZERO PUSH2 0x873 JUMPI PUSH2 0x872 PUSH2 0x819 JUMP JUMPDEST JUMPDEST SWAP3 SWAP2 POP POP JUMP JUMPDEST PUSH32 0x4E487B7100000000000000000000000000000000000000000000000000000000 PUSH0 MSTORE PUSH1 0x41 PUSH1 0x4 MSTORE PUSH1 0x24 PUSH0 REVERT JUMPDEST PUSH0 DUP2 SWAP1 POP DUP2 PUSH0 MSTORE PUSH1 0x20 PUSH0 KECCAK256 SWAP1 POP SWAP2 SWAP1 POP JUMP JUMPDEST PUSH0 PUSH1 0x20 PUSH1 0x1F DUP4 ADD DIV SWAP1 POP SWAP2 SWAP1 POP JUMP JUMPDEST PUSH0 DUP3 DUP3 SHL SWAP1 POP SWAP3 SWAP2 POP POP JUMP JUMPDEST PUSH0 PUSH1 0x8 DUP4 MUL PUSH2 0x902 PUSH32 0xFFFFFFFFFFFFFFFFFFFFFFFFFFFFFFFFFFFFFFFFFFFFFFFFFFFFFFFFFFFFFFFF DUP3 PUSH2 0x8C7 JUMP JUMPDEST PUSH2 0x90C DUP7 DUP4 PUSH2 0x8C7 JUMP JUMPDEST SWAP6 POP DUP1 NOT DUP5 AND SWAP4 POP DUP1 DUP7 AND DUP5 OR SWAP3 POP POP POP SWAP4 SWAP3 POP POP POP JUMP JUMPDEST PUSH0 DUP2 SWAP1 POP SWAP2 SWAP1 POP JUMP JUMPDEST PUSH0 PUSH2 0x947 PUSH2 0x942 PUSH2 0x93D DUP5 PUSH2 0x463 JUMP JUMPDEST PUSH2 0x924 JUMP JUMPDEST PUSH2 0x463 JUMP JUMPDEST SWAP1 POP SWAP2 SWAP1 POP JUMP JUMPDEST PUSH0 DUP2 SWAP1 POP SWAP2 SWAP1 POP JUMP JUMPDEST PUSH2 0x960 DUP4 PUSH2 0x92D JUMP JUMPDEST PUSH2 0x974 PUSH2 0x96C DUP3 PUSH2 0x94E JUMP JUMPDEST DUP5 DUP5 SLOAD PUSH2 0x8D3 JUMP JUMPDEST DUP3 SSTORE POP POP POP POP JUMP JUMPDEST PUSH0 SWAP1 JUMP JUMPDEST PUSH2 0x988 PUSH2 0x97C JUMP JUMPDEST PUSH2 0x993 DUP2 DUP5 DUP5 PUSH2 0x957 JUMP JUMPDEST POP POP POP JUMP JUMPDEST JUMPDEST DUP2 DUP2 LT ISZERO PUSH2 0x9B6 JUMPI PUSH2 0x9AB PUSH0 DUP3 PUSH2 0x980 JUMP JUMPDEST PUSH1 0x1 DUP2 ADD SWAP1 POP PUSH2 0x999 JUMP JUMPDEST POP POP JUMP JUMPDEST PUSH1 0x1F DUP3 GT ISZERO PUSH2 0x9FB JUMPI PUSH2 0x9CC DUP2 PUSH2 0x8A6 JUMP JUMPDEST PUSH2 0x9D5 DUP5 PUSH2 0x8B8 JUMP JUMPDEST DUP2 ADD PUSH1 0x20 DUP6 LT ISZERO PUSH2 0x9E4 JUMPI DUP2 SWAP1 POP JUMPDEST PUSH2 0x9F8 PUSH2 0x9F0 DUP6 PUSH2 0x8B8 JUMP JUMPDEST DUP4 ADD DUP3 PUSH2 0x998 JUMP JUMPDEST POP POP JUMPDEST POP POP POP JUMP JUMPDEST PUSH0 DUP3 DUP3 SHR SWAP1 POP SWAP3 SWAP2 POP POP JUMP JUMPDEST PUSH0 PUSH2 0xA1B PUSH0 NOT DUP5 PUSH1 0x8 MUL PUSH2 0xA00 JUMP JUMPDEST NOT DUP1 DUP4 AND SWAP2 POP POP SWAP3 SWAP2 POP POP JUMP JUMPDEST PUSH0 PUSH2 0xA33 DUP4 DUP4 PUSH2 0xA0C JUMP JUMPDEST SWAP2 POP DUP3 PUSH1 0x2 MUL DUP3 OR SWAP1 POP SWAP3 SWAP2 POP POP JUMP JUMPDEST PUSH2 0xA4C DUP3 PUSH2 0x4C1 JUMP JUMPDEST PUSH8 0xFFFFFFFFFFFFFFFF DUP2 GT ISZERO PUSH2 0xA65 JUMPI PUSH2 0xA64 PUSH2 0x879 JUMP JUMPDEST JUMPDEST PUSH2 0xA6F DUP3 SLOAD PUSH2 0x75B JUMP JUMPDEST PUSH2 0xA7A DUP3 DUP3 DUP6 PUSH2 0x9BA JUMP JUMPDEST PUSH0 PUSH1 0x20 SWAP1 POP PUSH1 0x1F DUP4 GT PUSH1 0x1 DUP2 EQ PUSH2 0xAAB JUMPI PUSH0 DUP5 ISZERO PUSH2 0xA99 JUMPI DUP3 DUP8 ADD MLOAD SWAP1 POP JUMPDEST PUSH2 0xAA3 DUP6 DUP3 PUSH2 0xA28 JUMP JUMPDEST DUP7 SSTORE POP PUSH2 0xB0A JUMP JUMPDEST PUSH1 0x1F NOT DUP5 AND PUSH2 0xAB9 DUP7 PUSH2 0x8A6 JUMP JUMPDEST PUSH0 JUMPDEST DUP3 DUP2 LT ISZERO PUSH2 0xAE0 JUMPI DUP5 DUP10 ADD MLOAD DUP3 SSTORE PUSH1 0x1 DUP3 ADD SWAP2 POP PUSH1 0x20 DUP6 ADD SWAP5 POP PUSH1 0x20 DUP2 ADD SWAP1 POP PUSH2 0xABB JUMP JUMPDEST DUP7 DUP4 LT ISZERO PUSH2 0xAFD JUMPI DUP5 DUP10 ADD MLOAD PUSH2 0xAF9 PUSH1 0x1F DUP10 AND DUP3 PUSH2 0xA0C JUMP JUMPDEST DUP4 SSTORE POP JUMPDEST PUSH1 0x1 PUSH1 0x2 DUP9 MUL ADD DUP9 SSTORE POP POP POP JUMPDEST POP POP POP POP POP POP JUMP INVALID LOG2 PUSH5 0x6970667358 0x22 SLT KECCAK256 CALLVALUE 0xC ADD DUP13 0xC2 CALLVALUE 0xB1 MUL 0xD9 0x1E 0xCB PUSH17 0x7B91D6E609F685E9D4B8163DEE1C913310 0xF8 0xF6 0xF7 PUSH5 0x736F6C6343 STOP ADDMOD BYTE STOP CALLER "
				},
				"gasEstimates": {
					"creation": {
						"codeDepositCost": "577600",
						"executionCost": "29889",
						"totalCost": "607489"
					},
					"external": {
						"create(string,string,uint256)": "infinite",
						"owner()": "2530",
						"proposal_history(uint256)": "infinite"
					}
				},
				"methodIdentifiers": {
					"create(string,string,uint256)": "3ca6d100",
					"owner()": "8da5cb5b",
					"proposal_history(uint256)": "350f0d8c"
				}
			},
			"storageLayout": {
				"storage": [
					{
						"astId": 3,
						"contract": "contracts/ProposalContractThirdHomework.sol:ProposalContract",
						"label": "counter",
						"offset": 0,
						"slot": "0",
						"type": "t_uint256"
					},
					{
						"astId": 5,
						"contract": "contracts/ProposalContractThirdHomework.sol:ProposalContract",
						"label": "owner",
						"offset": 0,
						"slot": "1",
						"type": "t_address"
					},
					{
						"astId": 27,
						"contract": "contracts/ProposalContractThirdHomework.sol:ProposalContract",
						"label": "proposal_history",
						"offset": 0,
						"slot": "2",
						"type": "t_mapping(t_uint256,t_struct(Proposal)22_storage)"
					}
				],
				"types": {
					"t_address": {
						"encoding": "inplace",
						"label": "address",
						"numberOfBytes": "20"
					},
					"t_bool": {
						"encoding": "inplace",
						"label": "bool",
						"numberOfBytes": "1"
					},
					"t_mapping(t_uint256,t_struct(Proposal)22_storage)": {
						"encoding": "mapping",
						"key": "t_uint256",
						"label": "mapping(uint256 => struct ProposalContract.Proposal)",
						"numberOfBytes": "32",
						"value": "t_struct(Proposal)22_storage"
					},
					"t_string_storage": {
						"encoding": "bytes",
						"label": "string",
						"numberOfBytes": "32"
					},
					"t_struct(Proposal)22_storage": {
						"encoding": "inplace",
						"label": "struct ProposalContract.Proposal",
						"members": [
							{
								"astId": 7,
								"contract": "contracts/ProposalContractThirdHomework.sol:ProposalContract",
								"label": "title",
								"offset": 0,
								"slot": "0",
								"type": "t_string_storage"
							},
							{
								"astId": 9,
								"contract": "contracts/ProposalContractThirdHomework.sol:ProposalContract",
								"label": "description",
								"offset": 0,
								"slot": "1",
								"type": "t_string_storage"
							},
							{
								"astId": 11,
								"contract": "contracts/ProposalContractThirdHomework.sol:ProposalContract",
								"label": "approve",
								"offset": 0,
								"slot": "2",
								"type": "t_uint256"
							},
							{
								"astId": 13,
								"contract": "contracts/ProposalContractThirdHomework.sol:ProposalContract",
								"label": "reject",
								"offset": 0,
								"slot": "3",
								"type": "t_uint256"
							},
							{
								"astId": 15,
								"contract": "contracts/ProposalContractThirdHomework.sol:ProposalContract",
								"label": "pass",
								"offset": 0,
								"slot": "4",
								"type": "t_uint256"
							},
							{
								"astId": 17,
								"contract": "contracts/ProposalContractThirdHomework.sol:ProposalContract",
								"label": "total_vote_to_end",
								"offset": 0,
								"slot": "5",
								"type": "t_uint256"
							},
							{
								"astId": 19,
								"contract": "contracts/ProposalContractThirdHomework.sol:ProposalContract",
								"label": "current_state",
								"offset": 0,
								"slot": "6",
								"type": "t_bool"
							},
							{
								"astId": 21,
								"contract": "contracts/ProposalContractThirdHomework.sol:ProposalContract",
								"label": "is_active",
								"offset": 1,
								"slot": "6",
								"type": "t_bool"
							}
						],
						"numberOfBytes": "224"
					},
					"t_uint256": {
						"encoding": "inplace",
						"label": "uint256",
						"numberOfBytes": "32"
					}
				}
			},
			"userdoc": {
				"kind": "user",
				"methods": {},
				"version": 1
			}
		}
	}
}