{
	"data": {
		"bytecode": {
			"linkReferences": {},
			"object": "6080604052348015600e575f80fd5b50335f806101000a81548173ffffffffffffffffffffffffffffffffffffffff021916908373ffffffffffffffffffffffffffffffffffffffff1602179055505f600181905550611164806100625f395ff3fe608060405234801561000f575f80fd5b5060043610610086575f3560e01c8063d78c20ff11610059578063d78c20ff14610131578063da35c6641461014d578063ef19d1b51461016b578063fedf94621461018757610086565b80630ce0ebf41461008a578063350f0d8c146100a65780638da5cb5b146100dd578063c7f758a8146100fb575b5f80fd5b6100a4600480360381019061009f9190610a16565b6101a3565b005b6100c060048036038101906100bb9190610a9e565b610332565b6040516100d4989796959493929190610b52565b60405180910390f35b6100e561049b565b6040516100f29190610c1b565b60405180910390f35b61011560048036038101906101109190610a9e565b6104be565b6040516101289796959493929190610c34565b60405180910390f35b61014b60048036038101906101469190610a9e565b610641565b005b6101556106d9565b6040516101629190610caf565b60405180910390f35b61018560048036038101906101809190610a9e565b6106df565b005b6101a1600480360381019061019c9190610a9e565b610777565b005b5f8054906101000a900473ffffffffffffffffffffffffffffffffffffffff1673ffffffffffffffffffffffffffffffffffffffff163373ffffffffffffffffffffffffffffffffffffffff1614610230576040517f08c379a000000000000000000000000000000000000000000000000000000000815260040161022790610d38565b60405180910390fd5b6040518061010001604052808481526020018381526020015f81526020015f81526020015f81526020018281526020015f151581526020016001151581525060025f60015481526020019081526020015f205f820151815f0190816102959190610f50565b5060208201518160010190816102ab9190610f50565b5060408201518160020155606082015181600301556080820151816004015560a0820151816005015560c0820151816006015f6101000a81548160ff02191690831515021790555060e08201518160060160016101000a81548160ff02191690831515021790555090505060015f8154809291906103289061104c565b9190505550505050565b6002602052805f5260405f205f91509050805f01805461035190610d83565b80601f016020809104026020016040519081016040528092919081815260200182805461037d90610d83565b80156103c85780601f1061039f576101008083540402835291602001916103c8565b820191905f5260205f20905b8154815290600101906020018083116103ab57829003601f168201915b5050505050908060010180546103dd90610d83565b80601f016020809104026020016040519081016040528092919081815260200182805461040990610d83565b80156104545780601f1061042b57610100808354040283529160200191610454565b820191905f5260205f20905b81548152906001019060200180831161043757829003601f168201915b505050505090806002015490806003015490806004015490806005015490806006015f9054906101000a900460ff16908060060160019054906101000a900460ff16905088565b5f8054906101000a900473ffffffffffffffffffffffffffffffffffffffff1681565b6060805f805f805f8060025f8a81526020019081526020015f209050805f0181600101826002015483600301548460040154856006015f9054906101000a900460ff168660060160019054906101000a900460ff1686805461051f90610d83565b80601f016020809104026020016040519081016040528092919081815260200182805461054b90610d83565b80156105965780601f1061056d57610100808354040283529160200191610596565b820191905f5260205f20905b81548152906001019060200180831161057957829003601f168201915b505050505096508580546105a990610d83565b80601f01602080910402602001604051908101604052809291908181526020018280546105d590610d83565b80156106205780601f106105f757610100808354040283529160200191610620565b820191905f5260205f20905b81548152906001019060200180831161060357829003601f168201915b50505050509550975097509750975097509750975050919395979092949650565b8060025f8281526020019081526020015f2060060160019054906101000a900460ff166106a3576040517f08c379a000000000000000000000000000000000000000000000000000000000815260040161069a906110dd565b60405180910390fd5b60025f8381526020019081526020015f206002015f8154809291906106c79061104c565b91905055506106d58261080f565b5050565b60015481565b8060025f8281526020019081526020015f2060060160019054906101000a900460ff16610741576040517f08c379a0000000000000000000000000000000000000000000000000000000008152600401610738906110dd565b60405180910390fd5b60025f8381526020019081526020015f206004015f8154809291906107659061104c565b91905055506107738261080f565b5050565b8060025f8281526020019081526020015f2060060160019054906101000a900460ff166107d9576040517f08c379a00000000000000000000000000000000000000000000000000000000081526004016107d0906110dd565b60405180910390fd5b60025f8381526020019081526020015f206003015f8154809291906107fd9061104c565b919050555061080b8261080f565b5050565b5f60025f8381526020019081526020015f209050806005015481600401548260030154836002015461084191906110fb565b61084b91906110fb565b10610892575f8160060160016101000a81548160ff0219169083151502179055508060030154816002015411816006015f6101000a81548160ff0219169083151502179055505b5050565b5f604051905090565b5f80fd5b5f80fd5b5f80fd5b5f80fd5b5f601f19601f8301169050919050565b7f4e487b71000000000000000000000000000000000000000000000000000000005f52604160045260245ffd5b6108f5826108af565b810181811067ffffffffffffffff82111715610914576109136108bf565b5b80604052505050565b5f610926610896565b905061093282826108ec565b919050565b5f67ffffffffffffffff821115610951576109506108bf565b5b61095a826108af565b9050602081019050919050565b828183375f83830152505050565b5f61098761098284610937565b61091d565b9050828152602081018484840111156109a3576109a26108ab565b5b6109ae848285610967565b509392505050565b5f82601f8301126109ca576109c96108a7565b5b81356109da848260208601610975565b91505092915050565b5f819050919050565b6109f5816109e3565b81146109ff575f80fd5b50565b5f81359050610a10816109ec565b92915050565b5f805f60608486031215610a2d57610a2c61089f565b5b5f84013567ffffffffffffffff811115610a4a57610a496108a3565b5b610a56868287016109b6565b935050602084013567ffffffffffffffff811115610a7757610a766108a3565b5b610a83868287016109b6565b9250506040610a9486828701610a02565b9150509250925092565b5f60208284031215610ab357610ab261089f565b5b5f610ac084828501610a02565b91505092915050565b5f81519050919050565b5f82825260208201905092915050565b8281835e5f83830152505050565b5f610afb82610ac9565b610b058185610ad3565b9350610b15818560208601610ae3565b610b1e816108af565b840191505092915050565b610b32816109e3565b82525050565b5f8115159050919050565b610b4c81610b38565b82525050565b5f610100820190508181035f830152610b6b818b610af1565b90508181036020830152610b7f818a610af1565b9050610b8e6040830189610b29565b610b9b6060830188610b29565b610ba86080830187610b29565b610bb560a0830186610b29565b610bc260c0830185610b43565b610bcf60e0830184610b43565b9998505050505050505050565b5f73ffffffffffffffffffffffffffffffffffffffff82169050919050565b5f610c0582610bdc565b9050919050565b610c1581610bfb565b82525050565b5f602082019050610c2e5f830184610c0c565b92915050565b5f60e0820190508181035f830152610c4c818a610af1565b90508181036020830152610c608189610af1565b9050610c6f6040830188610b29565b610c7c6060830187610b29565b610c896080830186610b29565b610c9660a0830185610b43565b610ca360c0830184610b43565b98975050505050505050565b5f602082019050610cc25f830184610b29565b92915050565b7f4f6e6c7920746865206f776e65722063616e206372656174652070726f706f735f8201527f616c730000000000000000000000000000000000000000000000000000000000602082015250565b5f610d22602383610ad3565b9150610d2d82610cc8565b604082019050919050565b5f6020820190508181035f830152610d4f81610d16565b9050919050565b7f4e487b71000000000000000000000000000000000000000000000000000000005f52602260045260245ffd5b5f6002820490506001821680610d9a57607f821691505b602082108103610dad57610dac610d56565b5b50919050565b5f819050815f5260205f209050919050565b5f6020601f8301049050919050565b5f82821b905092915050565b5f60088302610e0f7fffffffffffffffffffffffffffffffffffffffffffffffffffffffffffffffff82610dd4565b610e198683610dd4565b95508019841693508086168417925050509392505050565b5f819050919050565b5f610e54610e4f610e4a846109e3565b610e31565b6109e3565b9050919050565b5f819050919050565b610e6d83610e3a565b610e81610e7982610e5b565b848454610de0565b825550505050565b5f90565b610e95610e89565b610ea0818484610e64565b505050565b5b81811015610ec357610eb85f82610e8d565b600181019050610ea6565b5050565b601f821115610f0857610ed981610db3565b610ee284610dc5565b81016020851015610ef1578190505b610f05610efd85610dc5565b830182610ea5565b50505b505050565b5f82821c905092915050565b5f610f285f1984600802610f0d565b1980831691505092915050565b5f610f408383610f19565b9150826002028217905092915050565b610f5982610ac9565b67ffffffffffffffff811115610f7257610f716108bf565b5b610f7c8254610d83565b610f87828285610ec7565b5f60209050601f831160018114610fb8575f8415610fa6578287015190505b610fb08582610f35565b865550611017565b601f198416610fc686610db3565b5f5b82811015610fed57848901518255600182019150602085019450602081019050610fc8565b8683101561100a5784890151611006601f891682610f19565b8355505b6001600288020188555050505b505050505050565b7f4e487b71000000000000000000000000000000000000000000000000000000005f52601160045260245ffd5b5f611056826109e3565b91507fffffffffffffffffffffffffffffffffffffffffffffffffffffffffffffffff82036110885761108761101f565b5b600182019050919050565b7f50726f706f73616c206973206e6f7420616374697665000000000000000000005f82015250565b5f6110c7601683610ad3565b91506110d282611093565b602082019050919050565b5f6020820190508181035f8301526110f4816110bb565b9050919050565b5f611105826109e3565b9150611110836109e3565b92508282019050808211156111285761112761101f565b5b9291505056fea2646970667358221220b94b05a9063648662f2bc01e56c3aba995b7e6c7260be3b6ee4964bdff853ba764736f6c634300081a0033",
			"opcodes": "PUSH1 0x80 PUSH1 0x40 MSTORE CALLVALUE DUP1 ISZERO PUSH1 0xE JUMPI PUSH0 DUP1 REVERT JUMPDEST POP CALLER PUSH0 DUP1 PUSH2 0x100 EXP DUP2 SLOAD DUP2 PUSH20 0xFFFFFFFFFFFFFFFFFFFFFFFFFFFFFFFFFFFFFFFF MUL NOT AND SWAP1 DUP4 PUSH20 0xFFFFFFFFFFFFFFFFFFFFFFFFFFFFFFFFFFFFFFFF AND MUL OR SWAP1 SSTORE POP PUSH0 PUSH1 0x1 DUP2 SWAP1 SSTORE POP PUSH2 0x1164 DUP1 PUSH2 0x62 PUSH0 CODECOPY PUSH0 RETURN INVALID PUSH1 0x80 PUSH1 0x40 MSTORE CALLVALUE DUP1 ISZERO PUSH2 0xF JUMPI PUSH0 DUP1 REVERT JUMPDEST POP PUSH1 0x4 CALLDATASIZE LT PUSH2 0x86 JUMPI PUSH0 CALLDATALOAD PUSH1 0xE0 SHR DUP1 PUSH4 0xD78C20FF GT PUSH2 0x59 JUMPI DUP1 PUSH4 0xD78C20FF EQ PUSH2 0x131 JUMPI DUP1 PUSH4 0xDA35C664 EQ PUSH2 0x14D JUMPI DUP1 PUSH4 0xEF19D1B5 EQ PUSH2 0x16B JUMPI DUP1 PUSH4 0xFEDF9462 EQ PUSH2 0x187 JUMPI PUSH2 0x86 JUMP JUMPDEST DUP1 PUSH4 0xCE0EBF4 EQ PUSH2 0x8A JUMPI DUP1 PUSH4 0x350F0D8C EQ PUSH2 0xA6 JUMPI DUP1 PUSH4 0x8DA5CB5B EQ PUSH2 0xDD JUMPI DUP1 PUSH4 0xC7F758A8 EQ PUSH2 0xFB JUMPI JUMPDEST PUSH0 DUP1 REVERT JUMPDEST PUSH2 0xA4 PUSH1 0x4 DUP1 CALLDATASIZE SUB DUP2 ADD SWAP1 PUSH2 0x9F SWAP2 SWAP1 PUSH2 0xA16 JUMP JUMPDEST PUSH2 0x1A3 JUMP JUMPDEST STOP JUMPDEST PUSH2 0xC0 PUSH1 0x4 DUP1 CALLDATASIZE SUB DUP2 ADD SWAP1 PUSH2 0xBB SWAP2 SWAP1 PUSH2 0xA9E JUMP JUMPDEST PUSH2 0x332 JUMP JUMPDEST PUSH1 0x40 MLOAD PUSH2 0xD4 SWAP9 SWAP8 SWAP7 SWAP6 SWAP5 SWAP4 SWAP3 SWAP2 SWAP1 PUSH2 0xB52 JUMP JUMPDEST PUSH1 0x40 MLOAD DUP1 SWAP2 SUB SWAP1 RETURN JUMPDEST PUSH2 0xE5 PUSH2 0x49B JUMP JUMPDEST PUSH1 0x40 MLOAD PUSH2 0xF2 SWAP2 SWAP1 PUSH2 0xC1B JUMP JUMPDEST PUSH1 0x40 MLOAD DUP1 SWAP2 SUB SWAP1 RETURN JUMPDEST PUSH2 0x115 PUSH1 0x4 DUP1 CALLDATASIZE SUB DUP2 ADD SWAP1 PUSH2 0x110 SWAP2 SWAP1 PUSH2 0xA9E JUMP JUMPDEST PUSH2 0x4BE JUMP JUMPDEST PUSH1 0x40 MLOAD PUSH2 0x128 SWAP8 SWAP7 SWAP6 SWAP5 SWAP4 SWAP3 SWAP2 SWAP1 PUSH2 0xC34 JUMP JUMPDEST PUSH1 0x40 MLOAD DUP1 SWAP2 SUB SWAP1 RETURN JUMPDEST PUSH2 0x14B PUSH1 0x4 DUP1 CALLDATASIZE SUB DUP2 ADD SWAP1 PUSH2 0x146 SWAP2 SWAP1 PUSH2 0xA9E JUMP JUMPDEST PUSH2 0x641 JUMP JUMPDEST STOP JUMPDEST PUSH2 0x155 PUSH2 0x6D9 JUMP JUMPDEST PUSH1 0x40 MLOAD PUSH2 0x162 SWAP2 SWAP1 PUSH2 0xCAF JUMP JUMPDEST PUSH1 0x40 MLOAD DUP1 SWAP2 SUB SWAP1 RETURN JUMPDEST PUSH2 0x185 PUSH1 0x4 DUP1 CALLDATASIZE SUB DUP2 ADD SWAP1 PUSH2 0x180 SWAP2 SWAP1 PUSH2 0xA9E JUMP JUMPDEST PUSH2 0x6DF JUMP JUMPDEST STOP JUMPDEST PUSH2 0x1A1 PUSH1 0x4 DUP1 CALLDATASIZE SUB DUP2 ADD SWAP1 PUSH2 0x19C SWAP2 SWAP1 PUSH2 0xA9E JUMP JUMPDEST PUSH2 0x777 JUMP JUMPDEST STOP JUMPDEST PUSH0 DUP1 SLOAD SWAP1 PUSH2 0x100 EXP SWAP1 DIV PUSH20 0xFFFFFFFFFFFFFFFFFFFFFFFFFFFFFFFFFFFFFFFF AND PUSH20 0xFFFFFFFFFFFFFFFFFFFFFFFFFFFFFFFFFFFFFFFF AND CALLER PUSH20 0xFFFFFFFFFFFFFFFFFFFFFFFFFFFFFFFFFFFFFFFF AND EQ PUSH2 0x230 JUMPI PUSH1 0x40 MLOAD PUSH32 0x8C379A000000000000000000000000000000000000000000000000000000000 DUP2 MSTORE PUSH1 0x4 ADD PUSH2 0x227 SWAP1 PUSH2 0xD38 JUMP JUMPDEST PUSH1 0x40 MLOAD DUP1 SWAP2 SUB SWAP1 REVERT JUMPDEST PUSH1 0x40 MLOAD DUP1 PUSH2 0x100 ADD PUSH1 0x40 MSTORE DUP1 DUP5 DUP2 MSTORE PUSH1 0x20 ADD DUP4 DUP2 MSTORE PUSH1 0x20 ADD PUSH0 DUP2 MSTORE PUSH1 0x20 ADD PUSH0 DUP2 MSTORE PUSH1 0x20 ADD PUSH0 DUP2 MSTORE PUSH1 0x20 ADD DUP3 DUP2 MSTORE PUSH1 0x20 ADD PUSH0 ISZERO ISZERO DUP2 MSTORE PUSH1 0x20 ADD PUSH1 0x1 ISZERO ISZERO DUP2 MSTORE POP PUSH1 0x2 PUSH0 PUSH1 0x1 SLOAD DUP2 MSTORE PUSH1 0x20 ADD SWAP1 DUP2 MSTORE PUSH1 0x20 ADD PUSH0 KECCAK256 PUSH0 DUP3 ADD MLOAD DUP2 PUSH0 ADD SWAP1 DUP2 PUSH2 0x295 SWAP2 SWAP1 PUSH2 0xF50 JUMP JUMPDEST POP PUSH1 0x20 DUP3 ADD MLOAD DUP2 PUSH1 0x1 ADD SWAP1 DUP2 PUSH2 0x2AB SWAP2 SWAP1 PUSH2 0xF50 JUMP JUMPDEST POP PUSH1 0x40 DUP3 ADD MLOAD DUP2 PUSH1 0x2 ADD SSTORE PUSH1 0x60 DUP3 ADD MLOAD DUP2 PUSH1 0x3 ADD SSTORE PUSH1 0x80 DUP3 ADD MLOAD DUP2 PUSH1 0x4 ADD SSTORE PUSH1 0xA0 DUP3 ADD MLOAD DUP2 PUSH1 0x5 ADD SSTORE PUSH1 0xC0 DUP3 ADD MLOAD DUP2 PUSH1 0x6 ADD PUSH0 PUSH2 0x100 EXP DUP2 SLOAD DUP2 PUSH1 0xFF MUL NOT AND SWAP1 DUP4 ISZERO ISZERO MUL OR SWAP1 SSTORE POP PUSH1 0xE0 DUP3 ADD MLOAD DUP2 PUSH1 0x6 ADD PUSH1 0x1 PUSH2 0x100 EXP DUP2 SLOAD DUP2 PUSH1 0xFF MUL NOT AND SWAP1 DUP4 ISZERO ISZERO MUL OR SWAP1 SSTORE POP SWAP1 POP POP PUSH1 0x1 PUSH0 DUP2 SLOAD DUP1 SWAP3 SWAP2 SWAP1 PUSH2 0x328 SWAP1 PUSH2 0x104C JUMP JUMPDEST SWAP2 SWAP1 POP SSTORE POP POP POP POP JUMP JUMPDEST PUSH1 0x2 PUSH1 0x20 MSTORE DUP1 PUSH0 MSTORE PUSH1 0x40 PUSH0 KECCAK256 PUSH0 SWAP2 POP SWAP1 POP DUP1 PUSH0 ADD DUP1 SLOAD PUSH2 0x351 SWAP1 PUSH2 0xD83 JUMP JUMPDEST DUP1 PUSH1 0x1F ADD PUSH1 0x20 DUP1 SWAP2 DIV MUL PUSH1 0x20 ADD PUSH1 0x40 MLOAD SWAP1 DUP2 ADD PUSH1 0x40 MSTORE DUP1 SWAP3 SWAP2 SWAP1 DUP2 DUP2 MSTORE PUSH1 0x20 ADD DUP3 DUP1 SLOAD PUSH2 0x37D SWAP1 PUSH2 0xD83 JUMP JUMPDEST DUP1 ISZERO PUSH2 0x3C8 JUMPI DUP1 PUSH1 0x1F LT PUSH2 0x39F JUMPI PUSH2 0x100 DUP1 DUP4 SLOAD DIV MUL DUP4 MSTORE SWAP2 PUSH1 0x20 ADD SWAP2 PUSH2 0x3C8 JUMP JUMPDEST DUP3 ADD SWAP2 SWAP1 PUSH0 MSTORE PUSH1 0x20 PUSH0 KECCAK256 SWAP1 JUMPDEST DUP2 SLOAD DUP2 MSTORE SWAP1 PUSH1 0x1 ADD SWAP1 PUSH1 0x20 ADD DUP1 DUP4 GT PUSH2 0x3AB JUMPI DUP3 SWAP1 SUB PUSH1 0x1F AND DUP3 ADD SWAP2 JUMPDEST POP POP POP POP POP SWAP1 DUP1 PUSH1 0x1 ADD DUP1 SLOAD PUSH2 0x3DD SWAP1 PUSH2 0xD83 JUMP JUMPDEST DUP1 PUSH1 0x1F ADD PUSH1 0x20 DUP1 SWAP2 DIV MUL PUSH1 0x20 ADD PUSH1 0x40 MLOAD SWAP1 DUP2 ADD PUSH1 0x40 MSTORE DUP1 SWAP3 SWAP2 SWAP1 DUP2 DUP2 MSTORE PUSH1 0x20 ADD DUP3 DUP1 SLOAD PUSH2 0x409 SWAP1 PUSH2 0xD83 JUMP JUMPDEST DUP1 ISZERO PUSH2 0x454 JUMPI DUP1 PUSH1 0x1F LT PUSH2 0x42B JUMPI PUSH2 0x100 DUP1 DUP4 SLOAD DIV MUL DUP4 MSTORE SWAP2 PUSH1 0x20 ADD SWAP2 PUSH2 0x454 JUMP JUMPDEST DUP3 ADD SWAP2 SWAP1 PUSH0 MSTORE PUSH1 0x20 PUSH0 KECCAK256 SWAP1 JUMPDEST DUP2 SLOAD DUP2 MSTORE SWAP1 PUSH1 0x1 ADD SWAP1 PUSH1 0x20 ADD DUP1 DUP4 GT PUSH2 0x437 JUMPI DUP3 SWAP1 SUB PUSH1 0x1F AND DUP3 ADD SWAP2 JUMPDEST POP POP POP POP POP SWAP1 DUP1 PUSH1 0x2 ADD SLOAD SWAP1 DUP1 PUSH1 0x3 ADD SLOAD SWAP1 DUP1 PUSH1 0x4 ADD SLOAD SWAP1 DUP1 PUSH1 0x5 ADD SLOAD SWAP1 DUP1 PUSH1 0x6 ADD PUSH0 SWAP1 SLOAD SWAP1 PUSH2 0x100 EXP SWAP1 DIV PUSH1 0xFF AND SWAP1 DUP1 PUSH1 0x6 ADD PUSH1 0x1 SWAP1 SLOAD SWAP1 PUSH2 0x100 EXP SWAP1 DIV PUSH1 0xFF AND SWAP1 POP DUP9 JUMP JUMPDEST PUSH0 DUP1 SLOAD SWAP1 PUSH2 0x100 EXP SWAP1 DIV PUSH20 0xFFFFFFFFFFFFFFFFFFFFFFFFFFFFFFFFFFFFFFFF AND DUP2 JUMP JUMPDEST PUSH1 0x60 DUP1 PUSH0 DUP1 PUSH0 DUP1 PUSH0 DUP1 PUSH1 0x2 PUSH0 DUP11 DUP2 MSTORE PUSH1 0x20 ADD SWAP1 DUP2 MSTORE PUSH1 0x20 ADD PUSH0 KECCAK256 SWAP1 POP DUP1 PUSH0 ADD DUP2 PUSH1 0x1 ADD DUP3 PUSH1 0x2 ADD SLOAD DUP4 PUSH1 0x3 ADD SLOAD DUP5 PUSH1 0x4 ADD SLOAD DUP6 PUSH1 0x6 ADD PUSH0 SWAP1 SLOAD SWAP1 PUSH2 0x100 EXP SWAP1 DIV PUSH1 0xFF AND DUP7 PUSH1 0x6 ADD PUSH1 0x1 SWAP1 SLOAD SWAP1 PUSH2 0x100 EXP SWAP1 DIV PUSH1 0xFF AND DUP7 DUP1 SLOAD PUSH2 0x51F SWAP1 PUSH2 0xD83 JUMP JUMPDEST DUP1 PUSH1 0x1F ADD PUSH1 0x20 DUP1 SWAP2 DIV MUL PUSH1 0x20 ADD PUSH1 0x40 MLOAD SWAP1 DUP2 ADD PUSH1 0x40 MSTORE DUP1 SWAP3 SWAP2 SWAP1 DUP2 DUP2 MSTORE PUSH1 0x20 ADD DUP3 DUP1 SLOAD PUSH2 0x54B SWAP1 PUSH2 0xD83 JUMP JUMPDEST DUP1 ISZERO PUSH2 0x596 JUMPI DUP1 PUSH1 0x1F LT PUSH2 0x56D JUMPI PUSH2 0x100 DUP1 DUP4 SLOAD DIV MUL DUP4 MSTORE SWAP2 PUSH1 0x20 ADD SWAP2 PUSH2 0x596 JUMP JUMPDEST DUP3 ADD SWAP2 SWAP1 PUSH0 MSTORE PUSH1 0x20 PUSH0 KECCAK256 SWAP1 JUMPDEST DUP2 SLOAD DUP2 MSTORE SWAP1 PUSH1 0x1 ADD SWAP1 PUSH1 0x20 ADD DUP1 DUP4 GT PUSH2 0x579 JUMPI DUP3 SWAP1 SUB PUSH1 0x1F AND DUP3 ADD SWAP2 JUMPDEST POP POP POP POP POP SWAP7 POP DUP6 DUP1 SLOAD PUSH2 0x5A9 SWAP1 PUSH2 0xD83 JUMP JUMPDEST DUP1 PUSH1 0x1F ADD PUSH1 0x20 DUP1 SWAP2 DIV MUL PUSH1 0x20 ADD PUSH1 0x40 MLOAD SWAP1 DUP2 ADD PUSH1 0x40 MSTORE DUP1 SWAP3 SWAP2 SWAP1 DUP2 DUP2 MSTORE PUSH1 0x20 ADD DUP3 DUP1 SLOAD PUSH2 0x5D5 SWAP1 PUSH2 0xD83 JUMP JUMPDEST DUP1 ISZERO PUSH2 0x620 JUMPI DUP1 PUSH1 0x1F LT PUSH2 0x5F7 JUMPI PUSH2 0x100 DUP1 DUP4 SLOAD DIV MUL DUP4 MSTORE SWAP2 PUSH1 0x20 ADD SWAP2 PUSH2 0x620 JUMP JUMPDEST DUP3 ADD SWAP2 SWAP1 PUSH0 MSTORE PUSH1 0x20 PUSH0 KECCAK256 SWAP1 JUMPDEST DUP2 SLOAD DUP2 MSTORE SWAP1 PUSH1 0x1 ADD SWAP1 PUSH1 0x20 ADD DUP1 DUP4 GT PUSH2 0x603 JUMPI DUP3 SWAP1 SUB PUSH1 0x1F AND DUP3 ADD SWAP2 JUMPDEST POP POP POP POP POP SWAP6 POP SWAP8 POP SWAP8 POP SWAP8 POP SWAP8 POP SWAP8 POP SWAP8 POP SWAP8 POP POP SWAP2 SWAP4 SWAP6 SWAP8 SWAP1 SWAP3 SWAP5 SWAP7 POP JUMP JUMPDEST DUP1 PUSH1 0x2 PUSH0 DUP3 DUP2 MSTORE PUSH1 0x20 ADD SWAP1 DUP2 MSTORE PUSH1 0x20 ADD PUSH0 KECCAK256 PUSH1 0x6 ADD PUSH1 0x1 SWAP1 SLOAD SWAP1 PUSH2 0x100 EXP SWAP1 DIV PUSH1 0xFF AND PUSH2 0x6A3 JUMPI PUSH1 0x40 MLOAD PUSH32 0x8C379A000000000000000000000000000000000000000000000000000000000 DUP2 MSTORE PUSH1 0x4 ADD PUSH2 0x69A SWAP1 PUSH2 0x10DD JUMP JUMPDEST PUSH1 0x40 MLOAD DUP1 SWAP2 SUB SWAP1 REVERT JUMPDEST PUSH1 0x2 PUSH0 DUP4 DUP2 MSTORE PUSH1 0x20 ADD SWAP1 DUP2 MSTORE PUSH1 0x20 ADD PUSH0 KECCAK256 PUSH1 0x2 ADD PUSH0 DUP2 SLOAD DUP1 SWAP3 SWAP2 SWAP1 PUSH2 0x6C7 SWAP1 PUSH2 0x104C JUMP JUMPDEST SWAP2 SWAP1 POP SSTORE POP PUSH2 0x6D5 DUP3 PUSH2 0x80F JUMP JUMPDEST POP POP JUMP JUMPDEST PUSH1 0x1 SLOAD DUP2 JUMP JUMPDEST DUP1 PUSH1 0x2 PUSH0 DUP3 DUP2 MSTORE PUSH1 0x20 ADD SWAP1 DUP2 MSTORE PUSH1 0x20 ADD PUSH0 KECCAK256 PUSH1 0x6 ADD PUSH1 0x1 SWAP1 SLOAD SWAP1 PUSH2 0x100 EXP SWAP1 DIV PUSH1 0xFF AND PUSH2 0x741 JUMPI PUSH1 0x40 MLOAD PUSH32 0x8C379A000000000000000000000000000000000000000000000000000000000 DUP2 MSTORE PUSH1 0x4 ADD PUSH2 0x738 SWAP1 PUSH2 0x10DD JUMP JUMPDEST PUSH1 0x40 MLOAD DUP1 SWAP2 SUB SWAP1 REVERT JUMPDEST PUSH1 0x2 PUSH0 DUP4 DUP2 MSTORE PUSH1 0x20 ADD SWAP1 DUP2 MSTORE PUSH1 0x20 ADD PUSH0 KECCAK256 PUSH1 0x4 ADD PUSH0 DUP2 SLOAD DUP1 SWAP3 SWAP2 SWAP1 PUSH2 0x765 SWAP1 PUSH2 0x104C JUMP JUMPDEST SWAP2 SWAP1 POP SSTORE POP PUSH2 0x773 DUP3 PUSH2 0x80F JUMP JUMPDEST POP POP JUMP JUMPDEST DUP1 PUSH1 0x2 PUSH0 DUP3 DUP2 MSTORE PUSH1 0x20 ADD SWAP1 DUP2 MSTORE PUSH1 0x20 ADD PUSH0 KECCAK256 PUSH1 0x6 ADD PUSH1 0x1 SWAP1 SLOAD SWAP1 PUSH2 0x100 EXP SWAP1 DIV PUSH1 0xFF AND PUSH2 0x7D9 JUMPI PUSH1 0x40 MLOAD PUSH32 0x8C379A000000000000000000000000000000000000000000000000000000000 DUP2 MSTORE PUSH1 0x4 ADD PUSH2 0x7D0 SWAP1 PUSH2 0x10DD JUMP JUMPDEST PUSH1 0x40 MLOAD DUP1 SWAP2 SUB SWAP1 REVERT JUMPDEST PUSH1 0x2 PUSH0 DUP4 DUP2 MSTORE PUSH1 0x20 ADD SWAP1 DUP2 MSTORE PUSH1 0x20 ADD PUSH0 KECCAK256 PUSH1 0x3 ADD PUSH0 DUP2 SLOAD DUP1 SWAP3 SWAP2 SWAP1 PUSH2 0x7FD SWAP1 PUSH2 0x104C JUMP JUMPDEST SWAP2 SWAP1 POP SSTORE POP PUSH2 0x80B DUP3 PUSH2 0x80F JUMP JUMPDEST POP POP JUMP JUMPDEST PUSH0 PUSH1 0x2 PUSH0 DUP4 DUP2 MSTORE PUSH1 0x20 ADD SWAP1 DUP2 MSTORE PUSH1 0x20 ADD PUSH0 KECCAK256 SWAP1 POP DUP1 PUSH1 0x5 ADD SLOAD DUP2 PUSH1 0x4 ADD SLOAD DUP3 PUSH1 0x3 ADD SLOAD DUP4 PUSH1 0x2 ADD SLOAD PUSH2 0x841 SWAP2 SWAP1 PUSH2 0x10FB JUMP JUMPDEST PUSH2 0x84B SWAP2 SWAP1 PUSH2 0x10FB JUMP JUMPDEST LT PUSH2 0x892 JUMPI PUSH0 DUP2 PUSH1 0x6 ADD PUSH1 0x1 PUSH2 0x100 EXP DUP2 SLOAD DUP2 PUSH1 0xFF MUL NOT AND SWAP1 DUP4 ISZERO ISZERO MUL OR SWAP1 SSTORE POP DUP1 PUSH1 0x3 ADD SLOAD DUP2 PUSH1 0x2 ADD SLOAD GT DUP2 PUSH1 0x6 ADD PUSH0 PUSH2 0x100 EXP DUP2 SLOAD DUP2 PUSH1 0xFF MUL NOT AND SWAP1 DUP4 ISZERO ISZERO MUL OR SWAP1 SSTORE POP JUMPDEST POP POP JUMP JUMPDEST PUSH0 PUSH1 0x40 MLOAD SWAP1 POP SWAP1 JUMP JUMPDEST PUSH0 DUP1 REVERT JUMPDEST PUSH0 DUP1 REVERT JUMPDEST PUSH0 DUP1 REVERT JUMPDEST PUSH0 DUP1 REVERT JUMPDEST PUSH0 PUSH1 0x1F NOT PUSH1 0x1F DUP4 ADD AND SWAP1 POP SWAP2 SWAP1 POP JUMP JUMPDEST PUSH32 0x4E487B7100000000000000000000000000000000000000000000000000000000 PUSH0 MSTORE PUSH1 0x41 PUSH1 0x4 MSTORE PUSH1 0x24 PUSH0 REVERT JUMPDEST PUSH2 0x8F5 DUP3 PUSH2 0x8AF JUMP JUMPDEST DUP2 ADD DUP2 DUP2 LT PUSH8 0xFFFFFFFFFFFFFFFF DUP3 GT OR ISZERO PUSH2 0x914 JUMPI PUSH2 0x913 PUSH2 0x8BF JUMP JUMPDEST JUMPDEST DUP1 PUSH1 0x40 MSTORE POP POP POP JUMP JUMPDEST PUSH0 PUSH2 0x926 PUSH2 0x896 JUMP JUMPDEST SWAP1 POP PUSH2 0x932 DUP3 DUP3 PUSH2 0x8EC JUMP JUMPDEST SWAP2 SWAP1 POP JUMP JUMPDEST PUSH0 PUSH8 0xFFFFFFFFFFFFFFFF DUP3 GT ISZERO PUSH2 0x951 JUMPI PUSH2 0x950 PUSH2 0x8BF JUMP JUMPDEST JUMPDEST PUSH2 0x95A DUP3 PUSH2 0x8AF JUMP JUMPDEST SWAP1 POP PUSH1 0x20 DUP2 ADD SWAP1 POP SWAP2 SWAP1 POP JUMP JUMPDEST DUP3 DUP2 DUP4 CALLDATACOPY PUSH0 DUP4 DUP4 ADD MSTORE POP POP POP JUMP JUMPDEST PUSH0 PUSH2 0x987 PUSH2 0x982 DUP5 PUSH2 0x937 JUMP JUMPDEST PUSH2 0x91D JUMP JUMPDEST SWAP1 POP DUP3 DUP2 MSTORE PUSH1 0x20 DUP2 ADD DUP5 DUP5 DUP5 ADD GT ISZERO PUSH2 0x9A3 JUMPI PUSH2 0x9A2 PUSH2 0x8AB JUMP JUMPDEST JUMPDEST PUSH2 0x9AE DUP5 DUP3 DUP6 PUSH2 0x967 JUMP JUMPDEST POP SWAP4 SWAP3 POP POP POP JUMP JUMPDEST PUSH0 DUP3 PUSH1 0x1F DUP4 ADD SLT PUSH2 0x9CA JUMPI PUSH2 0x9C9 PUSH2 0x8A7 JUMP JUMPDEST JUMPDEST DUP2 CALLDATALOAD PUSH2 0x9DA DUP5 DUP3 PUSH1 0x20 DUP7 ADD PUSH2 0x975 JUMP JUMPDEST SWAP2 POP POP SWAP3 SWAP2 POP POP JUMP JUMPDEST PUSH0 DUP2 SWAP1 POP SWAP2 SWAP1 POP JUMP JUMPDEST PUSH2 0x9F5 DUP2 PUSH2 0x9E3 JUMP JUMPDEST DUP2 EQ PUSH2 0x9FF JUMPI PUSH0 DUP1 REVERT JUMPDEST POP JUMP JUMPDEST PUSH0 DUP2 CALLDATALOAD SWAP1 POP PUSH2 0xA10 DUP2 PUSH2 0x9EC JUMP JUMPDEST SWAP3 SWAP2 POP POP JUMP JUMPDEST PUSH0 DUP1 PUSH0 PUSH1 0x60 DUP5 DUP7 SUB SLT ISZERO PUSH2 0xA2D JUMPI PUSH2 0xA2C PUSH2 0x89F JUMP JUMPDEST JUMPDEST PUSH0 DUP5 ADD CALLDATALOAD PUSH8 0xFFFFFFFFFFFFFFFF DUP2 GT ISZERO PUSH2 0xA4A JUMPI PUSH2 0xA49 PUSH2 0x8A3 JUMP JUMPDEST JUMPDEST PUSH2 0xA56 DUP7 DUP3 DUP8 ADD PUSH2 0x9B6 JUMP JUMPDEST SWAP4 POP POP PUSH1 0x20 DUP5 ADD CALLDATALOAD PUSH8 0xFFFFFFFFFFFFFFFF DUP2 GT ISZERO PUSH2 0xA77 JUMPI PUSH2 0xA76 PUSH2 0x8A3 JUMP JUMPDEST JUMPDEST PUSH2 0xA83 DUP7 DUP3 DUP8 ADD PUSH2 0x9B6 JUMP JUMPDEST SWAP3 POP POP PUSH1 0x40 PUSH2 0xA94 DUP7 DUP3 DUP8 ADD PUSH2 0xA02 JUMP JUMPDEST SWAP2 POP POP SWAP3 POP SWAP3 POP SWAP3 JUMP JUMPDEST PUSH0 PUSH1 0x20 DUP3 DUP5 SUB SLT ISZERO PUSH2 0xAB3 JUMPI PUSH2 0xAB2 PUSH2 0x89F JUMP JUMPDEST JUMPDEST PUSH0 PUSH2 0xAC0 DUP5 DUP3 DUP6 ADD PUSH2 0xA02 JUMP JUMPDEST SWAP2 POP POP SWAP3 SWAP2 POP POP JUMP JUMPDEST PUSH0 DUP2 MLOAD SWAP1 POP SWAP2 SWAP1 POP JUMP JUMPDEST PUSH0 DUP3 DUP3 MSTORE PUSH1 0x20 DUP3 ADD SWAP1 POP SWAP3 SWAP2 POP POP JUMP JUMPDEST DUP3 DUP2 DUP4 MCOPY PUSH0 DUP4 DUP4 ADD MSTORE POP POP POP JUMP JUMPDEST PUSH0 PUSH2 0xAFB DUP3 PUSH2 0xAC9 JUMP JUMPDEST PUSH2 0xB05 DUP2 DUP6 PUSH2 0xAD3 JUMP JUMPDEST SWAP4 POP PUSH2 0xB15 DUP2 DUP6 PUSH1 0x20 DUP7 ADD PUSH2 0xAE3 JUMP JUMPDEST PUSH2 0xB1E DUP2 PUSH2 0x8AF JUMP JUMPDEST DUP5 ADD SWAP2 POP POP SWAP3 SWAP2 POP POP JUMP JUMPDEST PUSH2 0xB32 DUP2 PUSH2 0x9E3 JUMP JUMPDEST DUP3 MSTORE POP POP JUMP JUMPDEST PUSH0 DUP2 ISZERO ISZERO SWAP1 POP SWAP2 SWAP1 POP JUMP JUMPDEST PUSH2 0xB4C DUP2 PUSH2 0xB38 JUMP JUMPDEST DUP3 MSTORE POP POP JUMP JUMPDEST PUSH0 PUSH2 0x100 DUP3 ADD SWAP1 POP DUP2 DUP2 SUB PUSH0 DUP4 ADD MSTORE PUSH2 0xB6B DUP2 DUP12 PUSH2 0xAF1 JUMP JUMPDEST SWAP1 POP DUP2 DUP2 SUB PUSH1 0x20 DUP4 ADD MSTORE PUSH2 0xB7F DUP2 DUP11 PUSH2 0xAF1 JUMP JUMPDEST SWAP1 POP PUSH2 0xB8E PUSH1 0x40 DUP4 ADD DUP10 PUSH2 0xB29 JUMP JUMPDEST PUSH2 0xB9B PUSH1 0x60 DUP4 ADD DUP9 PUSH2 0xB29 JUMP JUMPDEST PUSH2 0xBA8 PUSH1 0x80 DUP4 ADD DUP8 PUSH2 0xB29 JUMP JUMPDEST PUSH2 0xBB5 PUSH1 0xA0 DUP4 ADD DUP7 PUSH2 0xB29 JUMP JUMPDEST PUSH2 0xBC2 PUSH1 0xC0 DUP4 ADD DUP6 PUSH2 0xB43 JUMP JUMPDEST PUSH2 0xBCF PUSH1 0xE0 DUP4 ADD DUP5 PUSH2 0xB43 JUMP JUMPDEST SWAP10 SWAP9 POP POP POP POP POP POP POP POP POP JUMP JUMPDEST PUSH0 PUSH20 0xFFFFFFFFFFFFFFFFFFFFFFFFFFFFFFFFFFFFFFFF DUP3 AND SWAP1 POP SWAP2 SWAP1 POP JUMP JUMPDEST PUSH0 PUSH2 0xC05 DUP3 PUSH2 0xBDC JUMP JUMPDEST SWAP1 POP SWAP2 SWAP1 POP JUMP JUMPDEST PUSH2 0xC15 DUP2 PUSH2 0xBFB JUMP JUMPDEST DUP3 MSTORE POP POP JUMP JUMPDEST PUSH0 PUSH1 0x20 DUP3 ADD SWAP1 POP PUSH2 0xC2E PUSH0 DUP4 ADD DUP5 PUSH2 0xC0C JUMP JUMPDEST SWAP3 SWAP2 POP POP JUMP JUMPDEST PUSH0 PUSH1 0xE0 DUP3 ADD SWAP1 POP DUP2 DUP2 SUB PUSH0 DUP4 ADD MSTORE PUSH2 0xC4C DUP2 DUP11 PUSH2 0xAF1 JUMP JUMPDEST SWAP1 POP DUP2 DUP2 SUB PUSH1 0x20 DUP4 ADD MSTORE PUSH2 0xC60 DUP2 DUP10 PUSH2 0xAF1 JUMP JUMPDEST SWAP1 POP PUSH2 0xC6F PUSH1 0x40 DUP4 ADD DUP9 PUSH2 0xB29 JUMP JUMPDEST PUSH2 0xC7C PUSH1 0x60 DUP4 ADD DUP8 PUSH2 0xB29 JUMP JUMPDEST PUSH2 0xC89 PUSH1 0x80 DUP4 ADD DUP7 PUSH2 0xB29 JUMP JUMPDEST PUSH2 0xC96 PUSH1 0xA0 DUP4 ADD DUP6 PUSH2 0xB43 JUMP JUMPDEST PUSH2 0xCA3 PUSH1 0xC0 DUP4 ADD DUP5 PUSH2 0xB43 JUMP JUMPDEST SWAP9 SWAP8 POP POP POP POP POP POP POP POP JUMP JUMPDEST PUSH0 PUSH1 0x20 DUP3 ADD SWAP1 POP PUSH2 0xCC2 PUSH0 DUP4 ADD DUP5 PUSH2 0xB29 JUMP JUMPDEST SWAP3 SWAP2 POP POP JUMP JUMPDEST PUSH32 0x4F6E6C7920746865206F776E65722063616E206372656174652070726F706F73 PUSH0 DUP3 ADD MSTORE PUSH32 0x616C730000000000000000000000000000000000000000000000000000000000 PUSH1 0x20 DUP3 ADD MSTORE POP JUMP JUMPDEST PUSH0 PUSH2 0xD22 PUSH1 0x23 DUP4 PUSH2 0xAD3 JUMP JUMPDEST SWAP2 POP PUSH2 0xD2D DUP3 PUSH2 0xCC8 JUMP JUMPDEST PUSH1 0x40 DUP3 ADD SWAP1 POP SWAP2 SWAP1 POP JUMP JUMPDEST PUSH0 PUSH1 0x20 DUP3 ADD SWAP1 POP DUP2 DUP2 SUB PUSH0 DUP4 ADD MSTORE PUSH2 0xD4F DUP2 PUSH2 0xD16 JUMP JUMPDEST SWAP1 POP SWAP2 SWAP1 POP JUMP JUMPDEST PUSH32 0x4E487B7100000000000000000000000000000000000000000000000000000000 PUSH0 MSTORE PUSH1 0x22 PUSH1 0x4 MSTORE PUSH1 0x24 PUSH0 REVERT JUMPDEST PUSH0 PUSH1 0x2 DUP3 DIV SWAP1 POP PUSH1 0x1 DUP3 AND DUP1 PUSH2 0xD9A JUMPI PUSH1 0x7F DUP3 AND SWAP2 POP JUMPDEST PUSH1 0x20 DUP3 LT DUP2 SUB PUSH2 0xDAD JUMPI PUSH2 0xDAC PUSH2 0xD56 JUMP JUMPDEST JUMPDEST POP SWAP2 SWAP1 POP JUMP JUMPDEST PUSH0 DUP2 SWAP1 POP DUP2 PUSH0 MSTORE PUSH1 0x20 PUSH0 KECCAK256 SWAP1 POP SWAP2 SWAP1 POP JUMP JUMPDEST PUSH0 PUSH1 0x20 PUSH1 0x1F DUP4 ADD DIV SWAP1 POP SWAP2 SWAP1 POP JUMP JUMPDEST PUSH0 DUP3 DUP3 SHL SWAP1 POP SWAP3 SWAP2 POP POP JUMP JUMPDEST PUSH0 PUSH1 0x8 DUP4 MUL PUSH2 0xE0F PUSH32 0xFFFFFFFFFFFFFFFFFFFFFFFFFFFFFFFFFFFFFFFFFFFFFFFFFFFFFFFFFFFFFFFF DUP3 PUSH2 0xDD4 JUMP JUMPDEST PUSH2 0xE19 DUP7 DUP4 PUSH2 0xDD4 JUMP JUMPDEST SWAP6 POP DUP1 NOT DUP5 AND SWAP4 POP DUP1 DUP7 AND DUP5 OR SWAP3 POP POP POP SWAP4 SWAP3 POP POP POP JUMP JUMPDEST PUSH0 DUP2 SWAP1 POP SWAP2 SWAP1 POP JUMP JUMPDEST PUSH0 PUSH2 0xE54 PUSH2 0xE4F PUSH2 0xE4A DUP5 PUSH2 0x9E3 JUMP JUMPDEST PUSH2 0xE31 JUMP JUMPDEST PUSH2 0x9E3 JUMP JUMPDEST SWAP1 POP SWAP2 SWAP1 POP JUMP JUMPDEST PUSH0 DUP2 SWAP1 POP SWAP2 SWAP1 POP JUMP JUMPDEST PUSH2 0xE6D DUP4 PUSH2 0xE3A JUMP JUMPDEST PUSH2 0xE81 PUSH2 0xE79 DUP3 PUSH2 0xE5B JUMP JUMPDEST DUP5 DUP5 SLOAD PUSH2 0xDE0 JUMP JUMPDEST DUP3 SSTORE POP POP POP POP JUMP JUMPDEST PUSH0 SWAP1 JUMP JUMPDEST PUSH2 0xE95 PUSH2 0xE89 JUMP JUMPDEST PUSH2 0xEA0 DUP2 DUP5 DUP5 PUSH2 0xE64 JUMP JUMPDEST POP POP POP JUMP JUMPDEST JUMPDEST DUP2 DUP2 LT ISZERO PUSH2 0xEC3 JUMPI PUSH2 0xEB8 PUSH0 DUP3 PUSH2 0xE8D JUMP JUMPDEST PUSH1 0x1 DUP2 ADD SWAP1 POP PUSH2 0xEA6 JUMP JUMPDEST POP POP JUMP JUMPDEST PUSH1 0x1F DUP3 GT ISZERO PUSH2 0xF08 JUMPI PUSH2 0xED9 DUP2 PUSH2 0xDB3 JUMP JUMPDEST PUSH2 0xEE2 DUP5 PUSH2 0xDC5 JUMP JUMPDEST DUP2 ADD PUSH1 0x20 DUP6 LT ISZERO PUSH2 0xEF1 JUMPI DUP2 SWAP1 POP JUMPDEST PUSH2 0xF05 PUSH2 0xEFD DUP6 PUSH2 0xDC5 JUMP JUMPDEST DUP4 ADD DUP3 PUSH2 0xEA5 JUMP JUMPDEST POP POP JUMPDEST POP POP POP JUMP JUMPDEST PUSH0 DUP3 DUP3 SHR SWAP1 POP SWAP3 SWAP2 POP POP JUMP JUMPDEST PUSH0 PUSH2 0xF28 PUSH0 NOT DUP5 PUSH1 0x8 MUL PUSH2 0xF0D JUMP JUMPDEST NOT DUP1 DUP4 AND SWAP2 POP POP SWAP3 SWAP2 POP POP JUMP JUMPDEST PUSH0 PUSH2 0xF40 DUP4 DUP4 PUSH2 0xF19 JUMP JUMPDEST SWAP2 POP DUP3 PUSH1 0x2 MUL DUP3 OR SWAP1 POP SWAP3 SWAP2 POP POP JUMP JUMPDEST PUSH2 0xF59 DUP3 PUSH2 0xAC9 JUMP JUMPDEST PUSH8 0xFFFFFFFFFFFFFFFF DUP2 GT ISZERO PUSH2 0xF72 JUMPI PUSH2 0xF71 PUSH2 0x8BF JUMP JUMPDEST JUMPDEST PUSH2 0xF7C DUP3 SLOAD PUSH2 0xD83 JUMP JUMPDEST PUSH2 0xF87 DUP3 DUP3 DUP6 PUSH2 0xEC7 JUMP JUMPDEST PUSH0 PUSH1 0x20 SWAP1 POP PUSH1 0x1F DUP4 GT PUSH1 0x1 DUP2 EQ PUSH2 0xFB8 JUMPI PUSH0 DUP5 ISZERO PUSH2 0xFA6 JUMPI DUP3 DUP8 ADD MLOAD SWAP1 POP JUMPDEST PUSH2 0xFB0 DUP6 DUP3 PUSH2 0xF35 JUMP JUMPDEST DUP7 SSTORE POP PUSH2 0x1017 JUMP JUMPDEST PUSH1 0x1F NOT DUP5 AND PUSH2 0xFC6 DUP7 PUSH2 0xDB3 JUMP JUMPDEST PUSH0 JUMPDEST DUP3 DUP2 LT ISZERO PUSH2 0xFED JUMPI DUP5 DUP10 ADD MLOAD DUP3 SSTORE PUSH1 0x1 DUP3 ADD SWAP2 POP PUSH1 0x20 DUP6 ADD SWAP5 POP PUSH1 0x20 DUP2 ADD SWAP1 POP PUSH2 0xFC8 JUMP JUMPDEST DUP7 DUP4 LT ISZERO PUSH2 0x100A JUMPI DUP5 DUP10 ADD MLOAD PUSH2 0x1006 PUSH1 0x1F DUP10 AND DUP3 PUSH2 0xF19 JUMP JUMPDEST DUP4 SSTORE POP JUMPDEST PUSH1 0x1 PUSH1 0x2 DUP9 MUL ADD DUP9 SSTORE POP POP POP JUMPDEST POP POP POP POP POP POP JUMP JUMPDEST PUSH32 0x4E487B7100000000000000000000000000000000000000000000000000000000 PUSH0 MSTORE PUSH1 0x11 PUSH1 0x4 MSTORE PUSH1 0x24 PUSH0 REVERT JUMPDEST PUSH0 PUSH2 0x1056 DUP3 PUSH2 0x9E3 JUMP JUMPDEST SWAP2 POP PUSH32 0xFFFFFFFFFFFFFFFFFFFFFFFFFFFFFFFFFFFFFFFFFFFFFFFFFFFFFFFFFFFFFFFF DUP3 SUB PUSH2 0x1088 JUMPI PUSH2 0x1087 PUSH2 0x101F JUMP JUMPDEST JUMPDEST PUSH1 0x1 DUP3 ADD SWAP1 POP SWAP2 SWAP1 POP JUMP JUMPDEST PUSH32 0x50726F706F73616C206973206E6F742061637469766500000000000000000000 PUSH0 DUP3 ADD MSTORE POP JUMP JUMPDEST PUSH0 PUSH2 0x10C7 PUSH1 0x16 DUP4 PUSH2 0xAD3 JUMP JUMPDEST SWAP2 POP PUSH2 0x10D2 DUP3 PUSH2 0x1093 JUMP JUMPDEST PUSH1 0x20 DUP3 ADD SWAP1 POP SWAP2 SWAP1 POP JUMP JUMPDEST PUSH0 PUSH1 0x20 DUP3 ADD SWAP1 POP DUP2 DUP2 SUB PUSH0 DUP4 ADD MSTORE PUSH2 0x10F4 DUP2 PUSH2 0x10BB JUMP JUMPDEST SWAP1 POP SWAP2 SWAP1 POP JUMP JUMPDEST PUSH0 PUSH2 0x1105 DUP3 PUSH2 0x9E3 JUMP JUMPDEST SWAP2 POP PUSH2 0x1110 DUP4 PUSH2 0x9E3 JUMP JUMPDEST SWAP3 POP DUP3 DUP3 ADD SWAP1 POP DUP1 DUP3 GT ISZERO PUSH2 0x1128 JUMPI PUSH2 0x1127 PUSH2 0x101F JUMP JUMPDEST JUMPDEST SWAP3 SWAP2 POP POP JUMP INVALID LOG2 PUSH5 0x6970667358 0x22 SLT KECCAK256 0xB9 0x4B SDIV 0xA9 MOD CALLDATASIZE BASEFEE PUSH7 0x2F2BC01E56C3AB 0xA9 SWAP6 0xB7 0xE6 0xC7 0x26 SIGNEXTEND 0xE3 0xB6 0xEE BLOBHASH PUSH5 0xBDFF853BA7 PUSH5 0x736F6C6343 STOP ADDMOD BYTE STOP CALLER "
		},
		"gasEstimates": {
			"creation": {
				"codeDepositCost": "890400",
				"executionCost": "30205",
				"totalCost": "920605"
			},
			"external": {
				"createProposal(string,string,uint256)": "infinite",
				"getProposal(uint256)": "infinite",
				"owner()": "2550",
				"proposalCount()": "2447",
				"proposal_history(uint256)": "infinite",
				"voteApprove(uint256)": "infinite",
				"votePass(uint256)": "infinite",
				"voteReject(uint256)": "infinite"
			},
			"internal": {
				"checkProposalState(uint256)": "infinite"
			}
		},
		"methodIdentifiers": {
			"createProposal(string,string,uint256)": "0ce0ebf4",
			"getProposal(uint256)": "c7f758a8",
			"owner()": "8da5cb5b",
			"proposalCount()": "da35c664",
			"proposal_history(uint256)": "350f0d8c",
			"voteApprove(uint256)": "d78c20ff",
			"votePass(uint256)": "ef19d1b5",
			"voteReject(uint256)": "fedf9462"
		}
	},
	"abi": [
		{
			"inputs": [],
			"stateMutability": "nonpayable",
			"type": "constructor"
		},
		{
			"inputs": [
				{
					"internalType": "string",
					"name": "title",
					"type": "string"
				},
				{
					"internalType": "string",
					"name": "description",
					"type": "string"
				},
				{
					"internalType": "uint256",
					"name": "voteLimit",
					"type": "uint256"
				}
			],
			"name": "createProposal",
			"outputs": [],
			"stateMutability": "nonpayable",
			"type": "function"
		},
		{
			"inputs": [
				{
					"internalType": "uint256",
					"name": "proposalId",
					"type": "uint256"
				}
			],
			"name": "getProposal",
			"outputs": [
				{
					"internalType": "string",
					"name": "",
					"type": "string"
				},
				{
					"internalType": "string",
					"name": "",
					"type": "string"
				},
				{
					"internalType": "uint256",
					"name": "",
					"type": "uint256"
				},
				{
					"internalType": "uint256",
					"name": "",
					"type": "uint256"
				},
				{
					"internalType": "uint256",
					"name": "",
					"type": "uint256"
				},
				{
					"internalType": "bool",
					"name": "",
					"type": "bool"
				},
				{
					"internalType": "bool",
					"name": "",
					"type": "bool"
				}
			],
			"stateMutability": "view",
			"type": "function"
		},
		{
			"inputs": [],
			"name": "owner",
			"outputs": [
				{
					"internalType": "address",
					"name": "",
					"type": "address"
				}
			],
			"stateMutability": "view",
			"type": "function"
		},
		{
			"inputs": [],
			"name": "proposalCount",
			"outputs": [
				{
					"internalType": "uint256",
					"name": "",
					"type": "uint256"
				}
			],
			"stateMutability": "view",
			"type": "function"
		},
		{
			"inputs": [
				{
					"internalType": "uint256",
					"name": "",
					"type": "uint256"
				}
			],
			"name": "proposal_history",
			"outputs": [
				{
					"internalType": "string",
					"name": "title",
					"type": "string"
				},
				{
					"internalType": "string",
					"name": "description",
					"type": "string"
				},
				{
					"internalType": "uint256",
					"name": "approve",
					"type": "uint256"
				},
				{
					"internalType": "uint256",
					"name": "reject",
					"type": "uint256"
				},
				{
					"internalType": "uint256",
					"name": "pass",
					"type": "uint256"
				},
				{
					"internalType": "uint256",
					"name": "total_vote_to_end",
					"type": "uint256"
				},
				{
					"internalType": "bool",
					"name": "current_state",
					"type": "bool"
				},
				{
					"internalType": "bool",
					"name": "is_active",
					"type": "bool"
				}
			],
			"stateMutability": "view",
			"type": "function"
		},
		{
			"inputs": [
				{
					"internalType": "uint256",
					"name": "proposalId",
					"type": "uint256"
				}
			],
			"name": "voteApprove",
			"outputs": [],
			"stateMutability": "nonpayable",
			"type": "function"
		},
		{
			"inputs": [
				{
					"internalType": "uint256",
					"name": "proposalId",
					"type": "uint256"
				}
			],
			"name": "votePass",
			"outputs": [],
			"stateMutability": "nonpayable",
			"type": "function"
		},
		{
			"inputs": [
				{
					"internalType": "uint256",
					"name": "proposalId",
					"type": "uint256"
				}
			],
			"name": "voteReject",
			"outputs": [],
			"stateMutability": "nonpayable",
			"type": "function"
		}
	]
}